{"contracts/ReactiveLeaderboard.sol":{"ReactiveLeaderboard":{"abi":[{"inputs":[],"name":"OnlyReactivityPrecompile","type":"error"},{"anonymous":false,"inputs":[{"indexed":true,"internalType":"address","name":"player","type":"address"},{"indexed":false,"internalType":"uint256","name":"biggestWin","type":"uint256"},{"indexed":false,"internalType":"uint256","name":"multiplier","type":"uint256"},{"indexed":false,"internalType":"uint8","name":"rank","type":"uint8"}],"name":"LeaderboardUpdated","type":"event"},{"anonymous":false,"inputs":[{"indexed":true,"internalType":"address","name":"player","type":"address"},{"indexed":false,"internalType":"uint256","name":"totalWon","type":"uint256"},{"indexed":false,"internalType":"uint256","name":"gamesWon","type":"uint256"}],"name":"PlayerStatsUpdated","type":"event"},{"inputs":[],"name":"MAX_LEADERS","outputs":[{"internalType":"uint8","name":"","type":"uint8"}],"stateMutability":"view","type":"function"},{"inputs":[],"name":"getLeaderboard","outputs":[{"components":[{"internalType":"address","name":"player","type":"address"},{"internalType":"uint256","name":"biggestWin","type":"uint256"},{"internalType":"uint256","name":"biggestMultiplier","type":"uint256"}],"internalType":"struct ReactiveLeaderboard.LeaderEntry[10]","name":"","type":"tuple[10]"}],"stateMutability":"view","type":"function"},{"inputs":[{"internalType":"address","name":"player","type":"address"}],"name":"getPlayerStats","outputs":[{"components":[{"internalType":"uint256","name":"totalWon","type":"uint256"},{"internalType":"uint256","name":"biggestWin","type":"uint256"},{"internalType":"uint256","name":"biggestMultiplier","type":"uint256"},{"internalType":"uint256","name":"gamesWon","type":"uint256"},{"internalType":"uint256","name":"gamesPlayed","type":"uint256"},{"internalType":"uint256","name":"lastActive","type":"uint256"}],"internalType":"struct ReactiveLeaderboard.PlayerStats","name":"","type":"tuple"}],"stateMutability":"view","type":"function"},{"inputs":[],"name":"leaderCount","outputs":[{"internalType":"uint8","name":"","type":"uint8"}],"stateMutability":"view","type":"function"},{"inputs":[{"internalType":"uint256","name":"","type":"uint256"}],"name":"leaderboard","outputs":[{"internalType":"address","name":"player","type":"address"},{"internalType":"uint256","name":"biggestWin","type":"uint256"},{"internalType":"uint256","name":"biggestMultiplier","type":"uint256"}],"stateMutability":"view","type":"function"},{"inputs":[{"internalType":"address","name":"emitter","type":"address"},{"internalType":"bytes32[]","name":"eventTopics","type":"bytes32[]"},{"internalType":"bytes","name":"data","type":"bytes"}],"name":"onEvent","outputs":[],"stateMutability":"nonpayable","type":"function"},{"inputs":[{"internalType":"address","name":"","type":"address"}],"name":"playerStats","outputs":[{"internalType":"uint256","name":"totalWon","type":"uint256"},{"internalType":"uint256","name":"biggestWin","type":"uint256"},{"internalType":"uint256","name":"biggestMultiplier","type":"uint256"},{"internalType":"uint256","name":"gamesWon","type":"uint256"},{"internalType":"uint256","name":"gamesPlayed","type":"uint256"},{"internalType":"uint256","name":"lastActive","type":"uint256"}],"stateMutability":"view","type":"function"},{"inputs":[{"internalType":"bytes4","name":"interfaceId","type":"bytes4"}],"name":"supportsInterface","outputs":[{"internalType":"bool","name":"","type":"bool"}],"stateMutability":"pure","type":"function"},{"inputs":[],"name":"totalGamesTracked","outputs":[{"internalType":"uint256","name":"","type":"uint256"}],"stateMutability":"view","type":"function"},{"inputs":[],"name":"totalPayoutsTracked","outputs":[{"internalType":"uint256","name":"","type":"uint256"}],"stateMutability":"view","type":"function"}],"evm":{"bytecode":{"linkReferences":{},"object":"6080604052348015600f57600080fd5b50610d348061001f6000396000f3fe608060405234801561001057600080fd5b506004361061009d5760003560e01c80636d763a6e116100665780636d763a6e1461016f5780639c440b1e14610184578063bf36839914610191578063cdafbbb6146101c9578063e484339c1461023957600080fd5b80629e5a22146100a257806301ffc9a7146100c15780634fd66eae146100e457806353edf33d146101435780635c13e57a14610158575b600080fd5b6100aa600a81565b60405160ff90911681526020015b60405180910390f35b6100d46100cf366004610a5a565b610242565b60405190151581526020016100b8565b6100f76100f2366004610aa7565b610279565b6040516100b89190600060c082019050825182526020830151602083015260408301516040830152606083015160608301526080830151608083015260a083015160a083015292915050565b610156610151366004610b0b565b610312565b005b61016160205481565b6040519081526020016100b8565b610177610348565b6040516100b89190610bc6565b601f546100aa9060ff1681565b6101a461019f366004610c1a565b6103ba565b604080516001600160a01b0390941684526020840192909252908201526060016100b8565b61020c6101d7366004610aa7565b600060208190529081526040902080546001820154600283015460038401546004850154600590950154939492939192909186565b604080519687526020870195909552938501929092526060840152608083015260a082015260c0016100b8565b61016160215481565b60006301ffc9a760e01b6001600160e01b03198316148061027357506353edf33d60e01b6001600160e01b03198316145b92915050565b6102b26040518060c001604052806000815260200160008152602001600081526020016000815260200160008152602001600081525090565b506001600160a01b031660009081526020818152604091829020825160c08101845281548152600182015492810192909252600281015492820192909252600382015460608201526004820154608082015260059091015460a082015290565b33610100146103345760405163191fbb7560e01b815260040160405180910390fd5b61034185858585856103eb565b5050505050565b610350610a07565b6040805161014081019091526001600a6000835b828210156103b1576040805160608101825260038402860180546001600160a01b031682526001808201546020808501919091526002909201549383019390935290835292019101610364565b50505050905090565b600181600a81106103ca57600080fd5b60030201805460018201546002909201546001600160a01b03909116925083565b7ff84628f2e60bdbeba9f69b77bc46e521674525a65d95c82a999a4ec15e8b521280858560008161041e5761041e610c33565b905060200201350361046d5760008585600281811061043f5761043f610c33565b60200291909101359150600090508061045a85870187610c49565b91509150610469838383610475565b5050505b505050505050565b6001600160a01b03831660009081526020819052604081208054909184918391906104a1908490610c81565b90915550506003810180549060006104b883610c94565b909155505042600582015560018101548311156104d757600181018390555b80600201548211156104eb57600281018290555b602080549060006104fb83610c94565b919050555082602160008282546105129190610c81565b9091555050805460038201546040516001600160a01b038716927f518fe7501685a267757fa6cd1db666952ee3e655b901ba1eb1cd4e50cfdc85889261056092918252602082015260400190565b60405180910390a261057b8482600101548360020154610581565b50505050565b60001960005b601f5460ff908116908216101561061f57846001600160a01b031660018260ff16600a81106105b8576105b8610c33565b60030201546001600160a01b031603610617578091508360018260ff16600a81106105e5576105e5610c33565b60030201600101819055508260018260ff16600a811061060757610607610c33565b600302016002018190555061061f565b600101610587565b508060000b60001914801561063b5750601f54600a60ff909116105b156106ec57604080516060810182526001600160a01b038616815260208101859052908101839052601f5460019060ff16600a811061067c5761067c610c33565b82516003919091029190910180546001600160a01b0319166001600160a01b0390921691909117815560208201516001820155604090910151600290910155601f805460ff169060006106ce83610cad565b91906101000a81548160ff021916908360ff160217905550506107b8565b8060000b600019036107b857601f5460019061070c90829060ff16610ccc565b60ff16600a811061071f5761071f610c33565b60030201600101548311156107b857604080516060810182526001600160a01b038616815260208101859052908101839052601f5460019061076590829060ff16610ccc565b60ff16600a811061077857610778610c33565b82516003919091029190910180546001600160a01b0319166001600160a01b03909216919091178155602082015160018201556040909101516002909101555b60005b601f5460ff90811690821610156109595760006107d9826001610ce5565b90505b601f5460ff90811690821610156109505760018260ff16600a811061080357610803610c33565b600302016001015460018260ff16600a811061082157610821610c33565b6003020160010154111561094857600060018360ff16600a811061084757610847610c33565b604080516060810182526003929092029290920180546001600160a01b03168252600180820154602084015260029091015492820192909252915060ff8316600a811061089657610896610c33565b6003020160018460ff16600a81106108b0576108b0610c33565b82546003919091029190910180546001600160a01b0319166001600160a01b03909216919091178155600180830154818301556002928301549290910191909155819060ff8416600a811061090757610907610c33565b82516003919091029190910180546001600160a01b0319166001600160a01b0390921691909117815560208201516001820155604090910151600290910155505b6001016107dc565b506001016107bb565b5060005b601f5460ff908116908216101561034157846001600160a01b031660018260ff16600a811061098e5761098e610c33565b60030201546001600160a01b0316036109ff576001600160a01b0385167f612adb333a8c30aec7463292343d7f7a62e402fc9033d445818da8d77a5086e185856109d9856001610ce5565b60408051938452602084019290925260ff169082015260600160405180910390a2610341565b60010161095d565b604051806101400160405280600a905b610a44604051806060016040528060006001600160a01b0316815260200160008152602001600081525090565b815260200190600190039081610a175790505090565b600060208284031215610a6c57600080fd5b81356001600160e01b031981168114610a8457600080fd5b9392505050565b80356001600160a01b0381168114610aa257600080fd5b919050565b600060208284031215610ab957600080fd5b610a8482610a8b565b60008083601f840112610ad457600080fd5b50813567ffffffffffffffff811115610aec57600080fd5b602083019150836020828501011115610b0457600080fd5b9250929050565b600080600080600060608688031215610b2357600080fd5b610b2c86610a8b565b9450602086013567ffffffffffffffff811115610b4857600080fd5b8601601f81018813610b5957600080fd5b803567ffffffffffffffff811115610b7057600080fd5b8860208260051b8401011115610b8557600080fd5b60209190910194509250604086013567ffffffffffffffff811115610ba957600080fd5b610bb588828901610ac2565b969995985093965092949392505050565b6103c08101818360005b600a811015610c1157815180516001600160a01b03168452602080820151818601526040918201519185019190915260609093019290910190600101610bd0565b50505092915050565b600060208284031215610c2c57600080fd5b5035919050565b634e487b7160e01b600052603260045260246000fd5b60008060408385031215610c5c57600080fd5b50508035926020909101359150565b634e487b7160e01b600052601160045260246000fd5b8082018082111561027357610273610c6b565b600060018201610ca657610ca6610c6b565b5060010190565b600060ff821660ff8103610cc357610cc3610c6b565b60010192915050565b60ff828116828216039081111561027357610273610c6b565b60ff818116838216019081111561027357610273610c6b56fea26469706673582212208b459c6ba8dfa23c9dc3352bcccb9b34251e6c835a6fbbcd179b7db1cb83a1d864736f6c634300081e0033","opcodes":"PUSH1 0x80 PUSH1 0x40 MSTORE CALLVALUE DUP1 ISZERO PUSH1 0xF JUMPI PUSH1 0x0 DUP1 REVERT JUMPDEST POP PUSH2 0xD34 DUP1 PUSH2 0x1F PUSH1 0x0 CODECOPY PUSH1 0x0 RETURN INVALID PUSH1 0x80 PUSH1 0x40 MSTORE CALLVALUE DUP1 ISZERO PUSH2 0x10 JUMPI PUSH1 0x0 DUP1 REVERT JUMPDEST POP PUSH1 0x4 CALLDATASIZE LT PUSH2 0x9D JUMPI PUSH1 0x0 CALLDATALOAD PUSH1 0xE0 SHR DUP1 PUSH4 0x6D763A6E GT PUSH2 0x66 JUMPI DUP1 PUSH4 0x6D763A6E EQ PUSH2 0x16F JUMPI DUP1 PUSH4 0x9C440B1E EQ PUSH2 0x184 JUMPI DUP1 PUSH4 0xBF368399 EQ PUSH2 0x191 JUMPI DUP1 PUSH4 0xCDAFBBB6 EQ PUSH2 0x1C9 JUMPI DUP1 PUSH4 0xE484339C EQ PUSH2 0x239 JUMPI PUSH1 0x0 DUP1 REVERT JUMPDEST DUP1 PUSH3 0x9E5A22 EQ PUSH2 0xA2 JUMPI DUP1 PUSH4 0x1FFC9A7 EQ PUSH2 0xC1 JUMPI DUP1 PUSH4 0x4FD66EAE EQ PUSH2 0xE4 JUMPI DUP1 PUSH4 0x53EDF33D EQ PUSH2 0x143 JUMPI DUP1 PUSH4 0x5C13E57A EQ PUSH2 0x158 JUMPI JUMPDEST PUSH1 0x0 DUP1 REVERT JUMPDEST PUSH2 0xAA PUSH1 0xA DUP2 JUMP JUMPDEST PUSH1 0x40 MLOAD PUSH1 0xFF SWAP1 SWAP2 AND DUP2 MSTORE PUSH1 0x20 ADD JUMPDEST PUSH1 0x40 MLOAD DUP1 SWAP2 SUB SWAP1 RETURN JUMPDEST PUSH2 0xD4 PUSH2 0xCF CALLDATASIZE PUSH1 0x4 PUSH2 0xA5A JUMP JUMPDEST PUSH2 0x242 JUMP JUMPDEST PUSH1 0x40 MLOAD SWAP1 ISZERO ISZERO DUP2 MSTORE PUSH1 0x20 ADD PUSH2 0xB8 JUMP JUMPDEST PUSH2 0xF7 PUSH2 0xF2 CALLDATASIZE PUSH1 0x4 PUSH2 0xAA7 JUMP JUMPDEST PUSH2 0x279 JUMP JUMPDEST PUSH1 0x40 MLOAD PUSH2 0xB8 SWAP2 SWAP1 PUSH1 0x0 PUSH1 0xC0 DUP3 ADD SWAP1 POP DUP3 MLOAD DUP3 MSTORE PUSH1 0x20 DUP4 ADD MLOAD PUSH1 0x20 DUP4 ADD MSTORE PUSH1 0x40 DUP4 ADD MLOAD PUSH1 0x40 DUP4 ADD MSTORE PUSH1 0x60 DUP4 ADD MLOAD PUSH1 0x60 DUP4 ADD MSTORE PUSH1 0x80 DUP4 ADD MLOAD PUSH1 0x80 DUP4 ADD MSTORE PUSH1 0xA0 DUP4 ADD MLOAD PUSH1 0xA0 DUP4 ADD MSTORE SWAP3 SWAP2 POP POP JUMP JUMPDEST PUSH2 0x156 PUSH2 0x151 CALLDATASIZE PUSH1 0x4 PUSH2 0xB0B JUMP JUMPDEST PUSH2 0x312 JUMP JUMPDEST STOP JUMPDEST PUSH2 0x161 PUSH1 0x20 SLOAD DUP2 JUMP JUMPDEST PUSH1 0x40 MLOAD SWAP1 DUP2 MSTORE PUSH1 0x20 ADD PUSH2 0xB8 JUMP JUMPDEST PUSH2 0x177 PUSH2 0x348 JUMP JUMPDEST PUSH1 0x40 MLOAD PUSH2 0xB8 SWAP2 SWAP1 PUSH2 0xBC6 JUMP JUMPDEST PUSH1 0x1F SLOAD PUSH2 0xAA SWAP1 PUSH1 0xFF AND DUP2 JUMP JUMPDEST PUSH2 0x1A4 PUSH2 0x19F CALLDATASIZE PUSH1 0x4 PUSH2 0xC1A JUMP JUMPDEST PUSH2 0x3BA JUMP JUMPDEST PUSH1 0x40 DUP1 MLOAD PUSH1 0x1 PUSH1 0x1 PUSH1 0xA0 SHL SUB SWAP1 SWAP5 AND DUP5 MSTORE PUSH1 0x20 DUP5 ADD SWAP3 SWAP1 SWAP3 MSTORE SWAP1 DUP3 ADD MSTORE PUSH1 0x60 ADD PUSH2 0xB8 JUMP JUMPDEST PUSH2 0x20C PUSH2 0x1D7 CALLDATASIZE PUSH1 0x4 PUSH2 0xAA7 JUMP JUMPDEST PUSH1 0x0 PUSH1 0x20 DUP2 SWAP1 MSTORE SWAP1 DUP2 MSTORE PUSH1 0x40 SWAP1 KECCAK256 DUP1 SLOAD PUSH1 0x1 DUP3 ADD SLOAD PUSH1 0x2 DUP4 ADD SLOAD PUSH1 0x3 DUP5 ADD SLOAD PUSH1 0x4 DUP6 ADD SLOAD PUSH1 0x5 SWAP1 SWAP6 ADD SLOAD SWAP4 SWAP5 SWAP3 SWAP4 SWAP2 SWAP3 SWAP1 SWAP2 DUP7 JUMP JUMPDEST PUSH1 0x40 DUP1 MLOAD SWAP7 DUP8 MSTORE PUSH1 0x20 DUP8 ADD SWAP6 SWAP1 SWAP6 MSTORE SWAP4 DUP6 ADD SWAP3 SWAP1 SWAP3 MSTORE PUSH1 0x60 DUP5 ADD MSTORE PUSH1 0x80 DUP4 ADD MSTORE PUSH1 0xA0 DUP3 ADD MSTORE PUSH1 0xC0 ADD PUSH2 0xB8 JUMP JUMPDEST PUSH2 0x161 PUSH1 0x21 SLOAD DUP2 JUMP JUMPDEST PUSH1 0x0 PUSH4 0x1FFC9A7 PUSH1 0xE0 SHL PUSH1 0x1 PUSH1 0x1 PUSH1 0xE0 SHL SUB NOT DUP4 AND EQ DUP1 PUSH2 0x273 JUMPI POP PUSH4 0x53EDF33D PUSH1 0xE0 SHL PUSH1 0x1 PUSH1 0x1 PUSH1 0xE0 SHL SUB NOT DUP4 AND EQ JUMPDEST SWAP3 SWAP2 POP POP JUMP JUMPDEST PUSH2 0x2B2 PUSH1 0x40 MLOAD DUP1 PUSH1 0xC0 ADD PUSH1 0x40 MSTORE DUP1 PUSH1 0x0 DUP2 MSTORE PUSH1 0x20 ADD PUSH1 0x0 DUP2 MSTORE PUSH1 0x20 ADD PUSH1 0x0 DUP2 MSTORE PUSH1 0x20 ADD PUSH1 0x0 DUP2 MSTORE PUSH1 0x20 ADD PUSH1 0x0 DUP2 MSTORE PUSH1 0x20 ADD PUSH1 0x0 DUP2 MSTORE POP SWAP1 JUMP JUMPDEST POP PUSH1 0x1 PUSH1 0x1 PUSH1 0xA0 SHL SUB AND PUSH1 0x0 SWAP1 DUP2 MSTORE PUSH1 0x20 DUP2 DUP2 MSTORE PUSH1 0x40 SWAP2 DUP3 SWAP1 KECCAK256 DUP3 MLOAD PUSH1 0xC0 DUP2 ADD DUP5 MSTORE DUP2 SLOAD DUP2 MSTORE PUSH1 0x1 DUP3 ADD SLOAD SWAP3 DUP2 ADD SWAP3 SWAP1 SWAP3 MSTORE PUSH1 0x2 DUP2 ADD SLOAD SWAP3 DUP3 ADD SWAP3 SWAP1 SWAP3 MSTORE PUSH1 0x3 DUP3 ADD SLOAD PUSH1 0x60 DUP3 ADD MSTORE PUSH1 0x4 DUP3 ADD SLOAD PUSH1 0x80 DUP3 ADD MSTORE PUSH1 0x5 SWAP1 SWAP2 ADD SLOAD PUSH1 0xA0 DUP3 ADD MSTORE SWAP1 JUMP JUMPDEST CALLER PUSH2 0x100 EQ PUSH2 0x334 JUMPI PUSH1 0x40 MLOAD PUSH4 0x191FBB75 PUSH1 0xE0 SHL DUP2 MSTORE PUSH1 0x4 ADD PUSH1 0x40 MLOAD DUP1 SWAP2 SUB SWAP1 REVERT JUMPDEST PUSH2 0x341 DUP6 DUP6 DUP6 DUP6 DUP6 PUSH2 0x3EB JUMP JUMPDEST POP POP POP POP POP JUMP JUMPDEST PUSH2 0x350 PUSH2 0xA07 JUMP JUMPDEST PUSH1 0x40 DUP1 MLOAD PUSH2 0x140 DUP2 ADD SWAP1 SWAP2 MSTORE PUSH1 0x1 PUSH1 0xA PUSH1 0x0 DUP4 JUMPDEST DUP3 DUP3 LT ISZERO PUSH2 0x3B1 JUMPI PUSH1 0x40 DUP1 MLOAD PUSH1 0x60 DUP2 ADD DUP3 MSTORE PUSH1 0x3 DUP5 MUL DUP7 ADD DUP1 SLOAD PUSH1 0x1 PUSH1 0x1 PUSH1 0xA0 SHL SUB AND DUP3 MSTORE PUSH1 0x1 DUP1 DUP3 ADD SLOAD PUSH1 0x20 DUP1 DUP6 ADD SWAP2 SWAP1 SWAP2 MSTORE PUSH1 0x2 SWAP1 SWAP3 ADD SLOAD SWAP4 DUP4 ADD SWAP4 SWAP1 SWAP4 MSTORE SWAP1 DUP4 MSTORE SWAP3 ADD SWAP2 ADD PUSH2 0x364 JUMP JUMPDEST POP POP POP POP SWAP1 POP SWAP1 JUMP JUMPDEST PUSH1 0x1 DUP2 PUSH1 0xA DUP2 LT PUSH2 0x3CA JUMPI PUSH1 0x0 DUP1 REVERT JUMPDEST PUSH1 0x3 MUL ADD DUP1 SLOAD PUSH1 0x1 DUP3 ADD SLOAD PUSH1 0x2 SWAP1 SWAP3 ADD SLOAD PUSH1 0x1 PUSH1 0x1 PUSH1 0xA0 SHL SUB SWAP1 SWAP2 AND SWAP3 POP DUP4 JUMP JUMPDEST PUSH32 0xF84628F2E60BDBEBA9F69B77BC46E521674525A65D95C82A999A4EC15E8B5212 DUP1 DUP6 DUP6 PUSH1 0x0 DUP2 PUSH2 0x41E JUMPI PUSH2 0x41E PUSH2 0xC33 JUMP JUMPDEST SWAP1 POP PUSH1 0x20 MUL ADD CALLDATALOAD SUB PUSH2 0x46D JUMPI PUSH1 0x0 DUP6 DUP6 PUSH1 0x2 DUP2 DUP2 LT PUSH2 0x43F JUMPI PUSH2 0x43F PUSH2 0xC33 JUMP JUMPDEST PUSH1 0x20 MUL SWAP2 SWAP1 SWAP2 ADD CALLDATALOAD SWAP2 POP PUSH1 0x0 SWAP1 POP DUP1 PUSH2 0x45A DUP6 DUP8 ADD DUP8 PUSH2 0xC49 JUMP JUMPDEST SWAP2 POP SWAP2 POP PUSH2 0x469 DUP4 DUP4 DUP4 PUSH2 0x475 JUMP JUMPDEST POP POP POP JUMPDEST POP POP POP POP POP POP JUMP JUMPDEST PUSH1 0x1 PUSH1 0x1 PUSH1 0xA0 SHL SUB DUP4 AND PUSH1 0x0 SWAP1 DUP2 MSTORE PUSH1 0x20 DUP2 SWAP1 MSTORE PUSH1 0x40 DUP2 KECCAK256 DUP1 SLOAD SWAP1 SWAP2 DUP5 SWAP2 DUP4 SWAP2 SWAP1 PUSH2 0x4A1 SWAP1 DUP5 SWAP1 PUSH2 0xC81 JUMP JUMPDEST SWAP1 SWAP2 SSTORE POP POP PUSH1 0x3 DUP2 ADD DUP1 SLOAD SWAP1 PUSH1 0x0 PUSH2 0x4B8 DUP4 PUSH2 0xC94 JUMP JUMPDEST SWAP1 SWAP2 SSTORE POP POP TIMESTAMP PUSH1 0x5 DUP3 ADD SSTORE PUSH1 0x1 DUP2 ADD SLOAD DUP4 GT ISZERO PUSH2 0x4D7 JUMPI PUSH1 0x1 DUP2 ADD DUP4 SWAP1 SSTORE JUMPDEST DUP1 PUSH1 0x2 ADD SLOAD DUP3 GT ISZERO PUSH2 0x4EB JUMPI PUSH1 0x2 DUP2 ADD DUP3 SWAP1 SSTORE JUMPDEST PUSH1 0x20 DUP1 SLOAD SWAP1 PUSH1 0x0 PUSH2 0x4FB DUP4 PUSH2 0xC94 JUMP JUMPDEST SWAP2 SWAP1 POP SSTORE POP DUP3 PUSH1 0x21 PUSH1 0x0 DUP3 DUP3 SLOAD PUSH2 0x512 SWAP2 SWAP1 PUSH2 0xC81 JUMP JUMPDEST SWAP1 SWAP2 SSTORE POP POP DUP1 SLOAD PUSH1 0x3 DUP3 ADD SLOAD PUSH1 0x40 MLOAD PUSH1 0x1 PUSH1 0x1 PUSH1 0xA0 SHL SUB DUP8 AND SWAP3 PUSH32 0x518FE7501685A267757FA6CD1DB666952EE3E655B901BA1EB1CD4E50CFDC8588 SWAP3 PUSH2 0x560 SWAP3 SWAP2 DUP3 MSTORE PUSH1 0x20 DUP3 ADD MSTORE PUSH1 0x40 ADD SWAP1 JUMP JUMPDEST PUSH1 0x40 MLOAD DUP1 SWAP2 SUB SWAP1 LOG2 PUSH2 0x57B DUP5 DUP3 PUSH1 0x1 ADD SLOAD DUP4 PUSH1 0x2 ADD SLOAD PUSH2 0x581 JUMP JUMPDEST POP POP POP POP JUMP JUMPDEST PUSH1 0x0 NOT PUSH1 0x0 JUMPDEST PUSH1 0x1F SLOAD PUSH1 0xFF SWAP1 DUP2 AND SWAP1 DUP3 AND LT ISZERO PUSH2 0x61F JUMPI DUP5 PUSH1 0x1 PUSH1 0x1 PUSH1 0xA0 SHL SUB AND PUSH1 0x1 DUP3 PUSH1 0xFF AND PUSH1 0xA DUP2 LT PUSH2 0x5B8 JUMPI PUSH2 0x5B8 PUSH2 0xC33 JUMP JUMPDEST PUSH1 0x3 MUL ADD SLOAD PUSH1 0x1 PUSH1 0x1 PUSH1 0xA0 SHL SUB AND SUB PUSH2 0x617 JUMPI DUP1 SWAP2 POP DUP4 PUSH1 0x1 DUP3 PUSH1 0xFF AND PUSH1 0xA DUP2 LT PUSH2 0x5E5 JUMPI PUSH2 0x5E5 PUSH2 0xC33 JUMP JUMPDEST PUSH1 0x3 MUL ADD PUSH1 0x1 ADD DUP2 SWAP1 SSTORE POP DUP3 PUSH1 0x1 DUP3 PUSH1 0xFF AND PUSH1 0xA DUP2 LT PUSH2 0x607 JUMPI PUSH2 0x607 PUSH2 0xC33 JUMP JUMPDEST PUSH1 0x3 MUL ADD PUSH1 0x2 ADD DUP2 SWAP1 SSTORE POP PUSH2 0x61F JUMP JUMPDEST PUSH1 0x1 ADD PUSH2 0x587 JUMP JUMPDEST POP DUP1 PUSH1 0x0 SIGNEXTEND PUSH1 0x0 NOT EQ DUP1 ISZERO PUSH2 0x63B JUMPI POP PUSH1 0x1F SLOAD PUSH1 0xA PUSH1 0xFF SWAP1 SWAP2 AND LT JUMPDEST ISZERO PUSH2 0x6EC JUMPI PUSH1 0x40 DUP1 MLOAD PUSH1 0x60 DUP2 ADD DUP3 MSTORE PUSH1 0x1 PUSH1 0x1 PUSH1 0xA0 SHL SUB DUP7 AND DUP2 MSTORE PUSH1 0x20 DUP2 ADD DUP6 SWAP1 MSTORE SWAP1 DUP2 ADD DUP4 SWAP1 MSTORE PUSH1 0x1F SLOAD PUSH1 0x1 SWAP1 PUSH1 0xFF AND PUSH1 0xA DUP2 LT PUSH2 0x67C JUMPI PUSH2 0x67C PUSH2 0xC33 JUMP JUMPDEST DUP3 MLOAD PUSH1 0x3 SWAP2 SWAP1 SWAP2 MUL SWAP2 SWAP1 SWAP2 ADD DUP1 SLOAD PUSH1 0x1 PUSH1 0x1 PUSH1 0xA0 SHL SUB NOT AND PUSH1 0x1 PUSH1 0x1 PUSH1 0xA0 SHL SUB SWAP1 SWAP3 AND SWAP2 SWAP1 SWAP2 OR DUP2 SSTORE PUSH1 0x20 DUP3 ADD MLOAD PUSH1 0x1 DUP3 ADD SSTORE PUSH1 0x40 SWAP1 SWAP2 ADD MLOAD PUSH1 0x2 SWAP1 SWAP2 ADD SSTORE PUSH1 0x1F DUP1 SLOAD PUSH1 0xFF AND SWAP1 PUSH1 0x0 PUSH2 0x6CE DUP4 PUSH2 0xCAD JUMP JUMPDEST SWAP2 SWAP1 PUSH2 0x100 EXP DUP2 SLOAD DUP2 PUSH1 0xFF MUL NOT AND SWAP1 DUP4 PUSH1 0xFF AND MUL OR SWAP1 SSTORE POP POP PUSH2 0x7B8 JUMP JUMPDEST DUP1 PUSH1 0x0 SIGNEXTEND PUSH1 0x0 NOT SUB PUSH2 0x7B8 JUMPI PUSH1 0x1F SLOAD PUSH1 0x1 SWAP1 PUSH2 0x70C SWAP1 DUP3 SWAP1 PUSH1 0xFF AND PUSH2 0xCCC JUMP JUMPDEST PUSH1 0xFF AND PUSH1 0xA DUP2 LT PUSH2 0x71F JUMPI PUSH2 0x71F PUSH2 0xC33 JUMP JUMPDEST PUSH1 0x3 MUL ADD PUSH1 0x1 ADD SLOAD DUP4 GT ISZERO PUSH2 0x7B8 JUMPI PUSH1 0x40 DUP1 MLOAD PUSH1 0x60 DUP2 ADD DUP3 MSTORE PUSH1 0x1 PUSH1 0x1 PUSH1 0xA0 SHL SUB DUP7 AND DUP2 MSTORE PUSH1 0x20 DUP2 ADD DUP6 SWAP1 MSTORE SWAP1 DUP2 ADD DUP4 SWAP1 MSTORE PUSH1 0x1F SLOAD PUSH1 0x1 SWAP1 PUSH2 0x765 SWAP1 DUP3 SWAP1 PUSH1 0xFF AND PUSH2 0xCCC JUMP JUMPDEST PUSH1 0xFF AND PUSH1 0xA DUP2 LT PUSH2 0x778 JUMPI PUSH2 0x778 PUSH2 0xC33 JUMP JUMPDEST DUP3 MLOAD PUSH1 0x3 SWAP2 SWAP1 SWAP2 MUL SWAP2 SWAP1 SWAP2 ADD DUP1 SLOAD PUSH1 0x1 PUSH1 0x1 PUSH1 0xA0 SHL SUB NOT AND PUSH1 0x1 PUSH1 0x1 PUSH1 0xA0 SHL SUB SWAP1 SWAP3 AND SWAP2 SWAP1 SWAP2 OR DUP2 SSTORE PUSH1 0x20 DUP3 ADD MLOAD PUSH1 0x1 DUP3 ADD SSTORE PUSH1 0x40 SWAP1 SWAP2 ADD MLOAD PUSH1 0x2 SWAP1 SWAP2 ADD SSTORE JUMPDEST PUSH1 0x0 JUMPDEST PUSH1 0x1F SLOAD PUSH1 0xFF SWAP1 DUP2 AND SWAP1 DUP3 AND LT ISZERO PUSH2 0x959 JUMPI PUSH1 0x0 PUSH2 0x7D9 DUP3 PUSH1 0x1 PUSH2 0xCE5 JUMP JUMPDEST SWAP1 POP JUMPDEST PUSH1 0x1F SLOAD PUSH1 0xFF SWAP1 DUP2 AND SWAP1 DUP3 AND LT ISZERO PUSH2 0x950 JUMPI PUSH1 0x1 DUP3 PUSH1 0xFF AND PUSH1 0xA DUP2 LT PUSH2 0x803 JUMPI PUSH2 0x803 PUSH2 0xC33 JUMP JUMPDEST PUSH1 0x3 MUL ADD PUSH1 0x1 ADD SLOAD PUSH1 0x1 DUP3 PUSH1 0xFF AND PUSH1 0xA DUP2 LT PUSH2 0x821 JUMPI PUSH2 0x821 PUSH2 0xC33 JUMP JUMPDEST PUSH1 0x3 MUL ADD PUSH1 0x1 ADD SLOAD GT ISZERO PUSH2 0x948 JUMPI PUSH1 0x0 PUSH1 0x1 DUP4 PUSH1 0xFF AND PUSH1 0xA DUP2 LT PUSH2 0x847 JUMPI PUSH2 0x847 PUSH2 0xC33 JUMP JUMPDEST PUSH1 0x40 DUP1 MLOAD PUSH1 0x60 DUP2 ADD DUP3 MSTORE PUSH1 0x3 SWAP3 SWAP1 SWAP3 MUL SWAP3 SWAP1 SWAP3 ADD DUP1 SLOAD PUSH1 0x1 PUSH1 0x1 PUSH1 0xA0 SHL SUB AND DUP3 MSTORE PUSH1 0x1 DUP1 DUP3 ADD SLOAD PUSH1 0x20 DUP5 ADD MSTORE PUSH1 0x2 SWAP1 SWAP2 ADD SLOAD SWAP3 DUP3 ADD SWAP3 SWAP1 SWAP3 MSTORE SWAP2 POP PUSH1 0xFF DUP4 AND PUSH1 0xA DUP2 LT PUSH2 0x896 JUMPI PUSH2 0x896 PUSH2 0xC33 JUMP JUMPDEST PUSH1 0x3 MUL ADD PUSH1 0x1 DUP5 PUSH1 0xFF AND PUSH1 0xA DUP2 LT PUSH2 0x8B0 JUMPI PUSH2 0x8B0 PUSH2 0xC33 JUMP JUMPDEST DUP3 SLOAD PUSH1 0x3 SWAP2 SWAP1 SWAP2 MUL SWAP2 SWAP1 SWAP2 ADD DUP1 SLOAD PUSH1 0x1 PUSH1 0x1 PUSH1 0xA0 SHL SUB NOT AND PUSH1 0x1 PUSH1 0x1 PUSH1 0xA0 SHL SUB SWAP1 SWAP3 AND SWAP2 SWAP1 SWAP2 OR DUP2 SSTORE PUSH1 0x1 DUP1 DUP4 ADD SLOAD DUP2 DUP4 ADD SSTORE PUSH1 0x2 SWAP3 DUP4 ADD SLOAD SWAP3 SWAP1 SWAP2 ADD SWAP2 SWAP1 SWAP2 SSTORE DUP2 SWAP1 PUSH1 0xFF DUP5 AND PUSH1 0xA DUP2 LT PUSH2 0x907 JUMPI PUSH2 0x907 PUSH2 0xC33 JUMP JUMPDEST DUP3 MLOAD PUSH1 0x3 SWAP2 SWAP1 SWAP2 MUL SWAP2 SWAP1 SWAP2 ADD DUP1 SLOAD PUSH1 0x1 PUSH1 0x1 PUSH1 0xA0 SHL SUB NOT AND PUSH1 0x1 PUSH1 0x1 PUSH1 0xA0 SHL SUB SWAP1 SWAP3 AND SWAP2 SWAP1 SWAP2 OR DUP2 SSTORE PUSH1 0x20 DUP3 ADD MLOAD PUSH1 0x1 DUP3 ADD SSTORE PUSH1 0x40 SWAP1 SWAP2 ADD MLOAD PUSH1 0x2 SWAP1 SWAP2 ADD SSTORE POP JUMPDEST PUSH1 0x1 ADD PUSH2 0x7DC JUMP JUMPDEST POP PUSH1 0x1 ADD PUSH2 0x7BB JUMP JUMPDEST POP PUSH1 0x0 JUMPDEST PUSH1 0x1F SLOAD PUSH1 0xFF SWAP1 DUP2 AND SWAP1 DUP3 AND LT ISZERO PUSH2 0x341 JUMPI DUP5 PUSH1 0x1 PUSH1 0x1 PUSH1 0xA0 SHL SUB AND PUSH1 0x1 DUP3 PUSH1 0xFF AND PUSH1 0xA DUP2 LT PUSH2 0x98E JUMPI PUSH2 0x98E PUSH2 0xC33 JUMP JUMPDEST PUSH1 0x3 MUL ADD SLOAD PUSH1 0x1 PUSH1 0x1 PUSH1 0xA0 SHL SUB AND SUB PUSH2 0x9FF JUMPI PUSH1 0x1 PUSH1 0x1 PUSH1 0xA0 SHL SUB DUP6 AND PUSH32 0x612ADB333A8C30AEC7463292343D7F7A62E402FC9033D445818DA8D77A5086E1 DUP6 DUP6 PUSH2 0x9D9 DUP6 PUSH1 0x1 PUSH2 0xCE5 JUMP JUMPDEST PUSH1 0x40 DUP1 MLOAD SWAP4 DUP5 MSTORE PUSH1 0x20 DUP5 ADD SWAP3 SWAP1 SWAP3 MSTORE PUSH1 0xFF AND SWAP1 DUP3 ADD MSTORE PUSH1 0x60 ADD PUSH1 0x40 MLOAD DUP1 SWAP2 SUB SWAP1 LOG2 PUSH2 0x341 JUMP JUMPDEST PUSH1 0x1 ADD PUSH2 0x95D JUMP JUMPDEST PUSH1 0x40 MLOAD DUP1 PUSH2 0x140 ADD PUSH1 0x40 MSTORE DUP1 PUSH1 0xA SWAP1 JUMPDEST PUSH2 0xA44 PUSH1 0x40 MLOAD DUP1 PUSH1 0x60 ADD PUSH1 0x40 MSTORE DUP1 PUSH1 0x0 PUSH1 0x1 PUSH1 0x1 PUSH1 0xA0 SHL SUB AND DUP2 MSTORE PUSH1 0x20 ADD PUSH1 0x0 DUP2 MSTORE PUSH1 0x20 ADD PUSH1 0x0 DUP2 MSTORE POP SWAP1 JUMP JUMPDEST DUP2 MSTORE PUSH1 0x20 ADD SWAP1 PUSH1 0x1 SWAP1 SUB SWAP1 DUP2 PUSH2 0xA17 JUMPI SWAP1 POP POP SWAP1 JUMP JUMPDEST PUSH1 0x0 PUSH1 0x20 DUP3 DUP5 SUB SLT ISZERO PUSH2 0xA6C JUMPI PUSH1 0x0 DUP1 REVERT JUMPDEST DUP2 CALLDATALOAD PUSH1 0x1 PUSH1 0x1 PUSH1 0xE0 SHL SUB NOT DUP2 AND DUP2 EQ PUSH2 0xA84 JUMPI PUSH1 0x0 DUP1 REVERT JUMPDEST SWAP4 SWAP3 POP POP POP JUMP JUMPDEST DUP1 CALLDATALOAD PUSH1 0x1 PUSH1 0x1 PUSH1 0xA0 SHL SUB DUP2 AND DUP2 EQ PUSH2 0xAA2 JUMPI PUSH1 0x0 DUP1 REVERT JUMPDEST SWAP2 SWAP1 POP JUMP JUMPDEST PUSH1 0x0 PUSH1 0x20 DUP3 DUP5 SUB SLT ISZERO PUSH2 0xAB9 JUMPI PUSH1 0x0 DUP1 REVERT JUMPDEST PUSH2 0xA84 DUP3 PUSH2 0xA8B JUMP JUMPDEST PUSH1 0x0 DUP1 DUP4 PUSH1 0x1F DUP5 ADD SLT PUSH2 0xAD4 JUMPI PUSH1 0x0 DUP1 REVERT JUMPDEST POP DUP2 CALLDATALOAD PUSH8 0xFFFFFFFFFFFFFFFF DUP2 GT ISZERO PUSH2 0xAEC JUMPI PUSH1 0x0 DUP1 REVERT JUMPDEST PUSH1 0x20 DUP4 ADD SWAP2 POP DUP4 PUSH1 0x20 DUP3 DUP6 ADD ADD GT ISZERO PUSH2 0xB04 JUMPI PUSH1 0x0 DUP1 REVERT JUMPDEST SWAP3 POP SWAP3 SWAP1 POP JUMP JUMPDEST PUSH1 0x0 DUP1 PUSH1 0x0 DUP1 PUSH1 0x0 PUSH1 0x60 DUP7 DUP9 SUB SLT ISZERO PUSH2 0xB23 JUMPI PUSH1 0x0 DUP1 REVERT JUMPDEST PUSH2 0xB2C DUP7 PUSH2 0xA8B JUMP JUMPDEST SWAP5 POP PUSH1 0x20 DUP7 ADD CALLDATALOAD PUSH8 0xFFFFFFFFFFFFFFFF DUP2 GT ISZERO PUSH2 0xB48 JUMPI PUSH1 0x0 DUP1 REVERT JUMPDEST DUP7 ADD PUSH1 0x1F DUP2 ADD DUP9 SGT PUSH2 0xB59 JUMPI PUSH1 0x0 DUP1 REVERT JUMPDEST DUP1 CALLDATALOAD PUSH8 0xFFFFFFFFFFFFFFFF DUP2 GT ISZERO PUSH2 0xB70 JUMPI PUSH1 0x0 DUP1 REVERT JUMPDEST DUP9 PUSH1 0x20 DUP3 PUSH1 0x5 SHL DUP5 ADD ADD GT ISZERO PUSH2 0xB85 JUMPI PUSH1 0x0 DUP1 REVERT JUMPDEST PUSH1 0x20 SWAP2 SWAP1 SWAP2 ADD SWAP5 POP SWAP3 POP PUSH1 0x40 DUP7 ADD CALLDATALOAD PUSH8 0xFFFFFFFFFFFFFFFF DUP2 GT ISZERO PUSH2 0xBA9 JUMPI PUSH1 0x0 DUP1 REVERT JUMPDEST PUSH2 0xBB5 DUP9 DUP3 DUP10 ADD PUSH2 0xAC2 JUMP JUMPDEST SWAP7 SWAP10 SWAP6 SWAP9 POP SWAP4 SWAP7 POP SWAP3 SWAP5 SWAP4 SWAP3 POP POP POP JUMP JUMPDEST PUSH2 0x3C0 DUP2 ADD DUP2 DUP4 PUSH1 0x0 JUMPDEST PUSH1 0xA DUP2 LT ISZERO PUSH2 0xC11 JUMPI DUP2 MLOAD DUP1 MLOAD PUSH1 0x1 PUSH1 0x1 PUSH1 0xA0 SHL SUB AND DUP5 MSTORE PUSH1 0x20 DUP1 DUP3 ADD MLOAD DUP2 DUP7 ADD MSTORE PUSH1 0x40 SWAP2 DUP3 ADD MLOAD SWAP2 DUP6 ADD SWAP2 SWAP1 SWAP2 MSTORE PUSH1 0x60 SWAP1 SWAP4 ADD SWAP3 SWAP1 SWAP2 ADD SWAP1 PUSH1 0x1 ADD PUSH2 0xBD0 JUMP JUMPDEST POP POP POP SWAP3 SWAP2 POP POP JUMP JUMPDEST PUSH1 0x0 PUSH1 0x20 DUP3 DUP5 SUB SLT ISZERO PUSH2 0xC2C JUMPI PUSH1 0x0 DUP1 REVERT JUMPDEST POP CALLDATALOAD SWAP2 SWAP1 POP JUMP JUMPDEST PUSH4 0x4E487B71 PUSH1 0xE0 SHL PUSH1 0x0 MSTORE PUSH1 0x32 PUSH1 0x4 MSTORE PUSH1 0x24 PUSH1 0x0 REVERT JUMPDEST PUSH1 0x0 DUP1 PUSH1 0x40 DUP4 DUP6 SUB SLT ISZERO PUSH2 0xC5C JUMPI PUSH1 0x0 DUP1 REVERT JUMPDEST POP POP DUP1 CALLDATALOAD SWAP3 PUSH1 0x20 SWAP1 SWAP2 ADD CALLDATALOAD SWAP2 POP JUMP JUMPDEST PUSH4 0x4E487B71 PUSH1 0xE0 SHL PUSH1 0x0 MSTORE PUSH1 0x11 PUSH1 0x4 MSTORE PUSH1 0x24 PUSH1 0x0 REVERT JUMPDEST DUP1 DUP3 ADD DUP1 DUP3 GT ISZERO PUSH2 0x273 JUMPI PUSH2 0x273 PUSH2 0xC6B JUMP JUMPDEST PUSH1 0x0 PUSH1 0x1 DUP3 ADD PUSH2 0xCA6 JUMPI PUSH2 0xCA6 PUSH2 0xC6B JUMP JUMPDEST POP PUSH1 0x1 ADD SWAP1 JUMP JUMPDEST PUSH1 0x0 PUSH1 0xFF DUP3 AND PUSH1 0xFF DUP2 SUB PUSH2 0xCC3 JUMPI PUSH2 0xCC3 PUSH2 0xC6B JUMP JUMPDEST PUSH1 0x1 ADD SWAP3 SWAP2 POP POP JUMP JUMPDEST PUSH1 0xFF DUP3 DUP2 AND DUP3 DUP3 AND SUB SWAP1 DUP2 GT ISZERO PUSH2 0x273 JUMPI PUSH2 0x273 PUSH2 0xC6B JUMP JUMPDEST PUSH1 0xFF DUP2 DUP2 AND DUP4 DUP3 AND ADD SWAP1 DUP2 GT ISZERO PUSH2 0x273 JUMPI PUSH2 0x273 PUSH2 0xC6B JUMP INVALID LOG2 PUSH5 0x6970667358 0x22 SLT KECCAK256 DUP12 GASLIMIT SWAP13 PUSH12 0xA8DFA23C9DC3352BCCCB9B34 0x25 0x1E PUSH13 0x835A6FBBCD179B7DB1CB83A1D8 PUSH5 0x736F6C6343 STOP ADDMOD 0x1E STOP CALLER "},"methodIdentifiers":{"MAX_LEADERS()":"009e5a22","getLeaderboard()":"6d763a6e","getPlayerStats(address)":"4fd66eae","leaderCount()":"9c440b1e","leaderboard(uint256)":"bf368399","onEvent(address,bytes32[],bytes)":"53edf33d","playerStats(address)":"cdafbbb6","supportsInterface(bytes4)":"01ffc9a7","totalGamesTracked()":"5c13e57a","totalPayoutsTracked()":"e484339c"}}}}}