{"contracts/ReactiveRiskGuardian.sol":{"ReactiveRiskGuardian":{"abi":[{"inputs":[{"internalType":"address","name":"_vault","type":"address"}],"stateMutability":"nonpayable","type":"constructor"},{"inputs":[],"name":"OnlyReactivityPrecompile","type":"error"},{"anonymous":false,"inputs":[{"indexed":false,"internalType":"uint256","name":"gameId","type":"uint256"},{"indexed":false,"internalType":"bool","name":"won","type":"bool"},{"indexed":false,"internalType":"uint256","name":"healthPercent","type":"uint256"}],"name":"GuardianTriggered","type":"event"},{"anonymous":false,"inputs":[{"indexed":false,"internalType":"enum ReactiveRiskGuardian.RiskLevel","name":"level","type":"uint8"},{"indexed":false,"internalType":"uint256","name":"healthPercent","type":"uint256"},{"indexed":false,"internalType":"uint256","name":"newMaxBetPercent","type":"uint256"}],"name":"RiskAdjusted","type":"event"},{"anonymous":false,"inputs":[{"indexed":true,"internalType":"address","name":"player","type":"address"},{"indexed":false,"internalType":"uint256","name":"amount","type":"uint256"}],"name":"WhaleActivityFlagged","type":"event"},{"inputs":[],"name":"CAUTION_THRESHOLD","outputs":[{"internalType":"uint256","name":"","type":"uint256"}],"stateMutability":"view","type":"function"},{"inputs":[],"name":"EMERGENCY_THRESHOLD","outputs":[{"internalType":"uint256","name":"","type":"uint256"}],"stateMutability":"view","type":"function"},{"inputs":[],"name":"HEALTHY_THRESHOLD","outputs":[{"internalType":"uint256","name":"","type":"uint256"}],"stateMutability":"view","type":"function"},{"inputs":[],"name":"currentRisk","outputs":[{"internalType":"enum ReactiveRiskGuardian.RiskLevel","name":"","type":"uint8"}],"stateMutability":"view","type":"function"},{"inputs":[{"internalType":"address","name":"player","type":"address"},{"internalType":"uint256","name":"amount","type":"uint256"}],"name":"flagWhaleActivity","outputs":[],"stateMutability":"nonpayable","type":"function"},{"inputs":[],"name":"lastAdjustmentBlock","outputs":[{"internalType":"uint256","name":"","type":"uint256"}],"stateMutability":"view","type":"function"},{"inputs":[{"internalType":"address","name":"emitter","type":"address"},{"internalType":"bytes32[]","name":"eventTopics","type":"bytes32[]"},{"internalType":"bytes","name":"data","type":"bytes"}],"name":"onEvent","outputs":[],"stateMutability":"nonpayable","type":"function"},{"inputs":[],"name":"owner","outputs":[{"internalType":"address","name":"","type":"address"}],"stateMutability":"view","type":"function"},{"inputs":[{"internalType":"bytes4","name":"interfaceId","type":"bytes4"}],"name":"supportsInterface","outputs":[{"internalType":"bool","name":"","type":"bool"}],"stateMutability":"pure","type":"function"},{"inputs":[],"name":"totalGamesProcessed","outputs":[{"internalType":"uint256","name":"","type":"uint256"}],"stateMutability":"view","type":"function"},{"inputs":[],"name":"vault","outputs":[{"internalType":"contract KaboomVault","name":"","type":"address"}],"stateMutability":"view","type":"function"}],"evm":{"bytecode":{"linkReferences":{},"object":"6080604052348015600f57600080fd5b506040516109a83803806109a8833981016040819052602c916069565b600080546001600160a01b0319166001600160a01b0392909216919091179055600180546001600160a81b0319163360ff60a01b19161790556097565b600060208284031215607a57600080fd5b81516001600160a01b0381168114609057600080fd5b9392505050565b610902806100a66000396000f3fe608060405234801561001057600080fd5b50600436106100a95760003560e01c806378e0fe281161007157806378e0fe28146101115780638da5cb5b1461011a578063a9f4c25e14610145578063c289c06714610158578063fbfa77cf14610161578063ffde0f971461017457600080fd5b806301ffc9a7146100ae578063087d31b7146100d65780630bd4e0e3146100ec5780631b4abeff146100f457806353edf33d146100fc575b600080fd5b6100c16100bc3660046105f9565b610195565b60405190151581526020015b60405180910390f35b6100de603281565b6040519081526020016100cd565b6100de604681565b6100de605a81565b61010f61010a36600461068f565b6101cc565b005b6100de60025481565b60015461012d906001600160a01b031681565b6040516001600160a01b0390911681526020016100cd565b61010f61015336600461074a565b610202565b6100de60035481565b60005461012d906001600160a01b031681565b60015461018890600160a01b900460ff1681565b6040516100cd91906107ac565b60006301ffc9a760e01b6001600160e01b0319831614806101c657506353edf33d60e01b6001600160e01b03198316145b92915050565b33610100146101ee5760405163191fbb7560e01b815260040160405180910390fd5b6101fb85858585856102d6565b5050505050565b816001600160a01b03167fa10a7b7b57534a7a71f2c46c275a17cc025453481fe3e833e86047b258a39a108260405161023d91815260200190565b60405180910390a260008060009054906101000a90046001600160a01b03166001600160a01b031663f495cdde6040518163ffffffff1660e01b8152600401602060405180830381865afa158015610299573d6000803e3d6000fd5b505050506040513d601f19601f820116820180604052508101906102bd91906107ba565b905060508110156102d1576102d181610366565b505050565b7fab6752fb7b9372c3a768319ac552dda717633aa9cae3381f8253cfa68b8301d97fdb21a82a210d91e8e44319b3b82ac6d85cdcf818c6d718c1f8ddf4f24526e0a260008686828161032a5761032a6107d3565b90506020020135905082810361034b57610346878787876104a4565b61035c565b81810361035c5761035c85856105b5565b5050505050505050565b600080603283101561037e57506002905060196103a3565b604683101561039357506001905060326103a3565b605a83106102d157506000905060645b600154600160a01b900460ff1660028111156103c1576103c1610774565b8260028111156103d3576103d3610774565b146102d1576001805483919060ff60a01b1916600160a01b8360028111156103fd576103fd610774565b0217905550436003556000546040516335daf54b60e11b8152600481018390526001600160a01b0390911690636bb5ea9690602401600060405180830381600087803b15801561044c57600080fd5b505af1158015610460573d6000803e3d6000fd5b505050507fc436c1302602dee7d96f8322c3efd9e5e46176c1a0f67b7e1df61b8e5b1075a0828483604051610497939291906107e9565b60405180910390a1505050565b60006104b282840184610808565b50506002805491925060006104c683610858565b919050555060008060009054906101000a90046001600160a01b03166001600160a01b031663f495cdde6040518163ffffffff1660e01b8152600401602060405180830381865afa15801561051f573d6000803e3d6000fd5b505050506040513d601f19601f8201168201806040525081019061054391906107ba565b90507f7a7f016b8993a515d5b828f01291807acf740f97e5eca124e646704a9bd5a3a386866001818110610579576105796107d3565b604080516020928302949094013584528615159184019190915282018490525060600160405180910390a16105ad81610366565b505050505050565b6000806105c483850185610871565b9150915060008082116105d85760646105ee565b816105e4846064610893565b6105ee91906108aa565b90506101fb81610366565b60006020828403121561060b57600080fd5b81356001600160e01b03198116811461062357600080fd5b9392505050565b80356001600160a01b038116811461064157600080fd5b919050565b60008083601f84011261065857600080fd5b50813567ffffffffffffffff81111561067057600080fd5b60208301915083602082850101111561068857600080fd5b9250929050565b6000806000806000606086880312156106a757600080fd5b6106b08661062a565b9450602086013567ffffffffffffffff8111156106cc57600080fd5b8601601f810188136106dd57600080fd5b803567ffffffffffffffff8111156106f457600080fd5b8860208260051b840101111561070957600080fd5b60209190910194509250604086013567ffffffffffffffff81111561072d57600080fd5b61073988828901610646565b969995985093965092949392505050565b6000806040838503121561075d57600080fd5b6107668361062a565b946020939093013593505050565b634e487b7160e01b600052602160045260246000fd5b600381106107a857634e487b7160e01b600052602160045260246000fd5b9052565b602081016101c6828461078a565b6000602082840312156107cc57600080fd5b5051919050565b634e487b7160e01b600052603260045260246000fd5b606081016107f7828661078a565b602082019390935260400152919050565b60008060006060848603121561081d57600080fd5b8335801515811461082d57600080fd5b95602085013595506040909401359392505050565b634e487b7160e01b600052601160045260246000fd5b60006001820161086a5761086a610842565b5060010190565b6000806040838503121561088457600080fd5b50508035926020909101359150565b80820281158282048414176101c6576101c6610842565b6000826108c757634e487b7160e01b600052601260045260246000fd5b50049056fea2646970667358221220e1f5463901a43361f418fba50df8098506ae7cef6386970af9ac954c237d9dfe64736f6c634300081e0033","opcodes":"PUSH1 0x80 PUSH1 0x40 MSTORE CALLVALUE DUP1 ISZERO PUSH1 0xF JUMPI PUSH1 0x0 DUP1 REVERT JUMPDEST POP PUSH1 0x40 MLOAD PUSH2 0x9A8 CODESIZE SUB DUP1 PUSH2 0x9A8 DUP4 CODECOPY DUP2 ADD PUSH1 0x40 DUP2 SWAP1 MSTORE PUSH1 0x2C SWAP2 PUSH1 0x69 JUMP JUMPDEST PUSH1 0x0 DUP1 SLOAD PUSH1 0x1 PUSH1 0x1 PUSH1 0xA0 SHL SUB NOT AND PUSH1 0x1 PUSH1 0x1 PUSH1 0xA0 SHL SUB SWAP3 SWAP1 SWAP3 AND SWAP2 SWAP1 SWAP2 OR SWAP1 SSTORE PUSH1 0x1 DUP1 SLOAD PUSH1 0x1 PUSH1 0x1 PUSH1 0xA8 SHL SUB NOT AND CALLER PUSH1 0xFF PUSH1 0xA0 SHL NOT AND OR SWAP1 SSTORE PUSH1 0x97 JUMP JUMPDEST PUSH1 0x0 PUSH1 0x20 DUP3 DUP5 SUB SLT ISZERO PUSH1 0x7A JUMPI PUSH1 0x0 DUP1 REVERT JUMPDEST DUP2 MLOAD PUSH1 0x1 PUSH1 0x1 PUSH1 0xA0 SHL SUB DUP2 AND DUP2 EQ PUSH1 0x90 JUMPI PUSH1 0x0 DUP1 REVERT JUMPDEST SWAP4 SWAP3 POP POP POP JUMP JUMPDEST PUSH2 0x902 DUP1 PUSH2 0xA6 PUSH1 0x0 CODECOPY PUSH1 0x0 RETURN INVALID PUSH1 0x80 PUSH1 0x40 MSTORE CALLVALUE DUP1 ISZERO PUSH2 0x10 JUMPI PUSH1 0x0 DUP1 REVERT JUMPDEST POP PUSH1 0x4 CALLDATASIZE LT PUSH2 0xA9 JUMPI PUSH1 0x0 CALLDATALOAD PUSH1 0xE0 SHR DUP1 PUSH4 0x78E0FE28 GT PUSH2 0x71 JUMPI DUP1 PUSH4 0x78E0FE28 EQ PUSH2 0x111 JUMPI DUP1 PUSH4 0x8DA5CB5B EQ PUSH2 0x11A JUMPI DUP1 PUSH4 0xA9F4C25E EQ PUSH2 0x145 JUMPI DUP1 PUSH4 0xC289C067 EQ PUSH2 0x158 JUMPI DUP1 PUSH4 0xFBFA77CF EQ PUSH2 0x161 JUMPI DUP1 PUSH4 0xFFDE0F97 EQ PUSH2 0x174 JUMPI PUSH1 0x0 DUP1 REVERT JUMPDEST DUP1 PUSH4 0x1FFC9A7 EQ PUSH2 0xAE JUMPI DUP1 PUSH4 0x87D31B7 EQ PUSH2 0xD6 JUMPI DUP1 PUSH4 0xBD4E0E3 EQ PUSH2 0xEC JUMPI DUP1 PUSH4 0x1B4ABEFF EQ PUSH2 0xF4 JUMPI DUP1 PUSH4 0x53EDF33D EQ PUSH2 0xFC JUMPI JUMPDEST PUSH1 0x0 DUP1 REVERT JUMPDEST PUSH2 0xC1 PUSH2 0xBC CALLDATASIZE PUSH1 0x4 PUSH2 0x5F9 JUMP JUMPDEST PUSH2 0x195 JUMP JUMPDEST PUSH1 0x40 MLOAD SWAP1 ISZERO ISZERO DUP2 MSTORE PUSH1 0x20 ADD JUMPDEST PUSH1 0x40 MLOAD DUP1 SWAP2 SUB SWAP1 RETURN JUMPDEST PUSH2 0xDE PUSH1 0x32 DUP2 JUMP JUMPDEST PUSH1 0x40 MLOAD SWAP1 DUP2 MSTORE PUSH1 0x20 ADD PUSH2 0xCD JUMP JUMPDEST PUSH2 0xDE PUSH1 0x46 DUP2 JUMP JUMPDEST PUSH2 0xDE PUSH1 0x5A DUP2 JUMP JUMPDEST PUSH2 0x10F PUSH2 0x10A CALLDATASIZE PUSH1 0x4 PUSH2 0x68F JUMP JUMPDEST PUSH2 0x1CC JUMP JUMPDEST STOP JUMPDEST PUSH2 0xDE PUSH1 0x2 SLOAD DUP2 JUMP JUMPDEST PUSH1 0x1 SLOAD PUSH2 0x12D SWAP1 PUSH1 0x1 PUSH1 0x1 PUSH1 0xA0 SHL SUB AND DUP2 JUMP JUMPDEST PUSH1 0x40 MLOAD PUSH1 0x1 PUSH1 0x1 PUSH1 0xA0 SHL SUB SWAP1 SWAP2 AND DUP2 MSTORE PUSH1 0x20 ADD PUSH2 0xCD JUMP JUMPDEST PUSH2 0x10F PUSH2 0x153 CALLDATASIZE PUSH1 0x4 PUSH2 0x74A JUMP JUMPDEST PUSH2 0x202 JUMP JUMPDEST PUSH2 0xDE PUSH1 0x3 SLOAD DUP2 JUMP JUMPDEST PUSH1 0x0 SLOAD PUSH2 0x12D SWAP1 PUSH1 0x1 PUSH1 0x1 PUSH1 0xA0 SHL SUB AND DUP2 JUMP JUMPDEST PUSH1 0x1 SLOAD PUSH2 0x188 SWAP1 PUSH1 0x1 PUSH1 0xA0 SHL SWAP1 DIV PUSH1 0xFF AND DUP2 JUMP JUMPDEST PUSH1 0x40 MLOAD PUSH2 0xCD SWAP2 SWAP1 PUSH2 0x7AC JUMP JUMPDEST PUSH1 0x0 PUSH4 0x1FFC9A7 PUSH1 0xE0 SHL PUSH1 0x1 PUSH1 0x1 PUSH1 0xE0 SHL SUB NOT DUP4 AND EQ DUP1 PUSH2 0x1C6 JUMPI POP PUSH4 0x53EDF33D PUSH1 0xE0 SHL PUSH1 0x1 PUSH1 0x1 PUSH1 0xE0 SHL SUB NOT DUP4 AND EQ JUMPDEST SWAP3 SWAP2 POP POP JUMP JUMPDEST CALLER PUSH2 0x100 EQ PUSH2 0x1EE JUMPI PUSH1 0x40 MLOAD PUSH4 0x191FBB75 PUSH1 0xE0 SHL DUP2 MSTORE PUSH1 0x4 ADD PUSH1 0x40 MLOAD DUP1 SWAP2 SUB SWAP1 REVERT JUMPDEST PUSH2 0x1FB DUP6 DUP6 DUP6 DUP6 DUP6 PUSH2 0x2D6 JUMP JUMPDEST POP POP POP POP POP JUMP JUMPDEST DUP2 PUSH1 0x1 PUSH1 0x1 PUSH1 0xA0 SHL SUB AND PUSH32 0xA10A7B7B57534A7A71F2C46C275A17CC025453481FE3E833E86047B258A39A10 DUP3 PUSH1 0x40 MLOAD PUSH2 0x23D SWAP2 DUP2 MSTORE PUSH1 0x20 ADD SWAP1 JUMP JUMPDEST PUSH1 0x40 MLOAD DUP1 SWAP2 SUB SWAP1 LOG2 PUSH1 0x0 DUP1 PUSH1 0x0 SWAP1 SLOAD SWAP1 PUSH2 0x100 EXP SWAP1 DIV PUSH1 0x1 PUSH1 0x1 PUSH1 0xA0 SHL SUB AND PUSH1 0x1 PUSH1 0x1 PUSH1 0xA0 SHL SUB AND PUSH4 0xF495CDDE PUSH1 0x40 MLOAD DUP2 PUSH4 0xFFFFFFFF AND PUSH1 0xE0 SHL DUP2 MSTORE PUSH1 0x4 ADD PUSH1 0x20 PUSH1 0x40 MLOAD DUP1 DUP4 SUB DUP2 DUP7 GAS STATICCALL ISZERO DUP1 ISZERO PUSH2 0x299 JUMPI RETURNDATASIZE PUSH1 0x0 DUP1 RETURNDATACOPY RETURNDATASIZE PUSH1 0x0 REVERT JUMPDEST POP POP POP POP PUSH1 0x40 MLOAD RETURNDATASIZE PUSH1 0x1F NOT PUSH1 0x1F DUP3 ADD AND DUP3 ADD DUP1 PUSH1 0x40 MSTORE POP DUP2 ADD SWAP1 PUSH2 0x2BD SWAP2 SWAP1 PUSH2 0x7BA JUMP JUMPDEST SWAP1 POP PUSH1 0x50 DUP2 LT ISZERO PUSH2 0x2D1 JUMPI PUSH2 0x2D1 DUP2 PUSH2 0x366 JUMP JUMPDEST POP POP POP JUMP JUMPDEST PUSH32 0xAB6752FB7B9372C3A768319AC552DDA717633AA9CAE3381F8253CFA68B8301D9 PUSH32 0xDB21A82A210D91E8E44319B3B82AC6D85CDCF818C6D718C1F8DDF4F24526E0A2 PUSH1 0x0 DUP7 DUP7 DUP3 DUP2 PUSH2 0x32A JUMPI PUSH2 0x32A PUSH2 0x7D3 JUMP JUMPDEST SWAP1 POP PUSH1 0x20 MUL ADD CALLDATALOAD SWAP1 POP DUP3 DUP2 SUB PUSH2 0x34B JUMPI PUSH2 0x346 DUP8 DUP8 DUP8 DUP8 PUSH2 0x4A4 JUMP JUMPDEST PUSH2 0x35C JUMP JUMPDEST DUP2 DUP2 SUB PUSH2 0x35C JUMPI PUSH2 0x35C DUP6 DUP6 PUSH2 0x5B5 JUMP JUMPDEST POP POP POP POP POP POP POP POP JUMP JUMPDEST PUSH1 0x0 DUP1 PUSH1 0x32 DUP4 LT ISZERO PUSH2 0x37E JUMPI POP PUSH1 0x2 SWAP1 POP PUSH1 0x19 PUSH2 0x3A3 JUMP JUMPDEST PUSH1 0x46 DUP4 LT ISZERO PUSH2 0x393 JUMPI POP PUSH1 0x1 SWAP1 POP PUSH1 0x32 PUSH2 0x3A3 JUMP JUMPDEST PUSH1 0x5A DUP4 LT PUSH2 0x2D1 JUMPI POP PUSH1 0x0 SWAP1 POP PUSH1 0x64 JUMPDEST PUSH1 0x1 SLOAD PUSH1 0x1 PUSH1 0xA0 SHL SWAP1 DIV PUSH1 0xFF AND PUSH1 0x2 DUP2 GT ISZERO PUSH2 0x3C1 JUMPI PUSH2 0x3C1 PUSH2 0x774 JUMP JUMPDEST DUP3 PUSH1 0x2 DUP2 GT ISZERO PUSH2 0x3D3 JUMPI PUSH2 0x3D3 PUSH2 0x774 JUMP JUMPDEST EQ PUSH2 0x2D1 JUMPI PUSH1 0x1 DUP1 SLOAD DUP4 SWAP2 SWAP1 PUSH1 0xFF PUSH1 0xA0 SHL NOT AND PUSH1 0x1 PUSH1 0xA0 SHL DUP4 PUSH1 0x2 DUP2 GT ISZERO PUSH2 0x3FD JUMPI PUSH2 0x3FD PUSH2 0x774 JUMP JUMPDEST MUL OR SWAP1 SSTORE POP NUMBER PUSH1 0x3 SSTORE PUSH1 0x0 SLOAD PUSH1 0x40 MLOAD PUSH4 0x35DAF54B PUSH1 0xE1 SHL DUP2 MSTORE PUSH1 0x4 DUP2 ADD DUP4 SWAP1 MSTORE PUSH1 0x1 PUSH1 0x1 PUSH1 0xA0 SHL SUB SWAP1 SWAP2 AND SWAP1 PUSH4 0x6BB5EA96 SWAP1 PUSH1 0x24 ADD PUSH1 0x0 PUSH1 0x40 MLOAD DUP1 DUP4 SUB DUP2 PUSH1 0x0 DUP8 DUP1 EXTCODESIZE ISZERO DUP1 ISZERO PUSH2 0x44C JUMPI PUSH1 0x0 DUP1 REVERT JUMPDEST POP GAS CALL ISZERO DUP1 ISZERO PUSH2 0x460 JUMPI RETURNDATASIZE PUSH1 0x0 DUP1 RETURNDATACOPY RETURNDATASIZE PUSH1 0x0 REVERT JUMPDEST POP POP POP POP PUSH32 0xC436C1302602DEE7D96F8322C3EFD9E5E46176C1A0F67B7E1DF61B8E5B1075A0 DUP3 DUP5 DUP4 PUSH1 0x40 MLOAD PUSH2 0x497 SWAP4 SWAP3 SWAP2 SWAP1 PUSH2 0x7E9 JUMP JUMPDEST PUSH1 0x40 MLOAD DUP1 SWAP2 SUB SWAP1 LOG1 POP POP POP JUMP JUMPDEST PUSH1 0x0 PUSH2 0x4B2 DUP3 DUP5 ADD DUP5 PUSH2 0x808 JUMP JUMPDEST POP POP PUSH1 0x2 DUP1 SLOAD SWAP2 SWAP3 POP PUSH1 0x0 PUSH2 0x4C6 DUP4 PUSH2 0x858 JUMP JUMPDEST SWAP2 SWAP1 POP SSTORE POP PUSH1 0x0 DUP1 PUSH1 0x0 SWAP1 SLOAD SWAP1 PUSH2 0x100 EXP SWAP1 DIV PUSH1 0x1 PUSH1 0x1 PUSH1 0xA0 SHL SUB AND PUSH1 0x1 PUSH1 0x1 PUSH1 0xA0 SHL SUB AND PUSH4 0xF495CDDE PUSH1 0x40 MLOAD DUP2 PUSH4 0xFFFFFFFF AND PUSH1 0xE0 SHL DUP2 MSTORE PUSH1 0x4 ADD PUSH1 0x20 PUSH1 0x40 MLOAD DUP1 DUP4 SUB DUP2 DUP7 GAS STATICCALL ISZERO DUP1 ISZERO PUSH2 0x51F JUMPI RETURNDATASIZE PUSH1 0x0 DUP1 RETURNDATACOPY RETURNDATASIZE PUSH1 0x0 REVERT JUMPDEST POP POP POP POP PUSH1 0x40 MLOAD RETURNDATASIZE PUSH1 0x1F NOT PUSH1 0x1F DUP3 ADD AND DUP3 ADD DUP1 PUSH1 0x40 MSTORE POP DUP2 ADD SWAP1 PUSH2 0x543 SWAP2 SWAP1 PUSH2 0x7BA JUMP JUMPDEST SWAP1 POP PUSH32 0x7A7F016B8993A515D5B828F01291807ACF740F97E5ECA124E646704A9BD5A3A3 DUP7 DUP7 PUSH1 0x1 DUP2 DUP2 LT PUSH2 0x579 JUMPI PUSH2 0x579 PUSH2 0x7D3 JUMP JUMPDEST PUSH1 0x40 DUP1 MLOAD PUSH1 0x20 SWAP3 DUP4 MUL SWAP5 SWAP1 SWAP5 ADD CALLDATALOAD DUP5 MSTORE DUP7 ISZERO ISZERO SWAP2 DUP5 ADD SWAP2 SWAP1 SWAP2 MSTORE DUP3 ADD DUP5 SWAP1 MSTORE POP PUSH1 0x60 ADD PUSH1 0x40 MLOAD DUP1 SWAP2 SUB SWAP1 LOG1 PUSH2 0x5AD DUP2 PUSH2 0x366 JUMP JUMPDEST POP POP POP POP POP POP JUMP JUMPDEST PUSH1 0x0 DUP1 PUSH2 0x5C4 DUP4 DUP6 ADD DUP6 PUSH2 0x871 JUMP JUMPDEST SWAP2 POP SWAP2 POP PUSH1 0x0 DUP1 DUP3 GT PUSH2 0x5D8 JUMPI PUSH1 0x64 PUSH2 0x5EE JUMP JUMPDEST DUP2 PUSH2 0x5E4 DUP5 PUSH1 0x64 PUSH2 0x893 JUMP JUMPDEST PUSH2 0x5EE SWAP2 SWAP1 PUSH2 0x8AA JUMP JUMPDEST SWAP1 POP PUSH2 0x1FB DUP2 PUSH2 0x366 JUMP JUMPDEST PUSH1 0x0 PUSH1 0x20 DUP3 DUP5 SUB SLT ISZERO PUSH2 0x60B JUMPI PUSH1 0x0 DUP1 REVERT JUMPDEST DUP2 CALLDATALOAD PUSH1 0x1 PUSH1 0x1 PUSH1 0xE0 SHL SUB NOT DUP2 AND DUP2 EQ PUSH2 0x623 JUMPI PUSH1 0x0 DUP1 REVERT JUMPDEST SWAP4 SWAP3 POP POP POP JUMP JUMPDEST DUP1 CALLDATALOAD PUSH1 0x1 PUSH1 0x1 PUSH1 0xA0 SHL SUB DUP2 AND DUP2 EQ PUSH2 0x641 JUMPI PUSH1 0x0 DUP1 REVERT JUMPDEST SWAP2 SWAP1 POP JUMP JUMPDEST PUSH1 0x0 DUP1 DUP4 PUSH1 0x1F DUP5 ADD SLT PUSH2 0x658 JUMPI PUSH1 0x0 DUP1 REVERT JUMPDEST POP DUP2 CALLDATALOAD PUSH8 0xFFFFFFFFFFFFFFFF DUP2 GT ISZERO PUSH2 0x670 JUMPI PUSH1 0x0 DUP1 REVERT JUMPDEST PUSH1 0x20 DUP4 ADD SWAP2 POP DUP4 PUSH1 0x20 DUP3 DUP6 ADD ADD GT ISZERO PUSH2 0x688 JUMPI PUSH1 0x0 DUP1 REVERT JUMPDEST SWAP3 POP SWAP3 SWAP1 POP JUMP JUMPDEST PUSH1 0x0 DUP1 PUSH1 0x0 DUP1 PUSH1 0x0 PUSH1 0x60 DUP7 DUP9 SUB SLT ISZERO PUSH2 0x6A7 JUMPI PUSH1 0x0 DUP1 REVERT JUMPDEST PUSH2 0x6B0 DUP7 PUSH2 0x62A JUMP JUMPDEST SWAP5 POP PUSH1 0x20 DUP7 ADD CALLDATALOAD PUSH8 0xFFFFFFFFFFFFFFFF DUP2 GT ISZERO PUSH2 0x6CC JUMPI PUSH1 0x0 DUP1 REVERT JUMPDEST DUP7 ADD PUSH1 0x1F DUP2 ADD DUP9 SGT PUSH2 0x6DD JUMPI PUSH1 0x0 DUP1 REVERT JUMPDEST DUP1 CALLDATALOAD PUSH8 0xFFFFFFFFFFFFFFFF DUP2 GT ISZERO PUSH2 0x6F4 JUMPI PUSH1 0x0 DUP1 REVERT JUMPDEST DUP9 PUSH1 0x20 DUP3 PUSH1 0x5 SHL DUP5 ADD ADD GT ISZERO PUSH2 0x709 JUMPI PUSH1 0x0 DUP1 REVERT JUMPDEST PUSH1 0x20 SWAP2 SWAP1 SWAP2 ADD SWAP5 POP SWAP3 POP PUSH1 0x40 DUP7 ADD CALLDATALOAD PUSH8 0xFFFFFFFFFFFFFFFF DUP2 GT ISZERO PUSH2 0x72D JUMPI PUSH1 0x0 DUP1 REVERT JUMPDEST PUSH2 0x739 DUP9 DUP3 DUP10 ADD PUSH2 0x646 JUMP JUMPDEST SWAP7 SWAP10 SWAP6 SWAP9 POP SWAP4 SWAP7 POP SWAP3 SWAP5 SWAP4 SWAP3 POP POP POP JUMP JUMPDEST PUSH1 0x0 DUP1 PUSH1 0x40 DUP4 DUP6 SUB SLT ISZERO PUSH2 0x75D JUMPI PUSH1 0x0 DUP1 REVERT JUMPDEST PUSH2 0x766 DUP4 PUSH2 0x62A JUMP JUMPDEST SWAP5 PUSH1 0x20 SWAP4 SWAP1 SWAP4 ADD CALLDATALOAD SWAP4 POP POP POP JUMP JUMPDEST PUSH4 0x4E487B71 PUSH1 0xE0 SHL PUSH1 0x0 MSTORE PUSH1 0x21 PUSH1 0x4 MSTORE PUSH1 0x24 PUSH1 0x0 REVERT JUMPDEST PUSH1 0x3 DUP2 LT PUSH2 0x7A8 JUMPI PUSH4 0x4E487B71 PUSH1 0xE0 SHL PUSH1 0x0 MSTORE PUSH1 0x21 PUSH1 0x4 MSTORE PUSH1 0x24 PUSH1 0x0 REVERT JUMPDEST SWAP1 MSTORE JUMP JUMPDEST PUSH1 0x20 DUP2 ADD PUSH2 0x1C6 DUP3 DUP5 PUSH2 0x78A JUMP JUMPDEST PUSH1 0x0 PUSH1 0x20 DUP3 DUP5 SUB SLT ISZERO PUSH2 0x7CC JUMPI PUSH1 0x0 DUP1 REVERT JUMPDEST POP MLOAD SWAP2 SWAP1 POP JUMP JUMPDEST PUSH4 0x4E487B71 PUSH1 0xE0 SHL PUSH1 0x0 MSTORE PUSH1 0x32 PUSH1 0x4 MSTORE PUSH1 0x24 PUSH1 0x0 REVERT JUMPDEST PUSH1 0x60 DUP2 ADD PUSH2 0x7F7 DUP3 DUP7 PUSH2 0x78A JUMP JUMPDEST PUSH1 0x20 DUP3 ADD SWAP4 SWAP1 SWAP4 MSTORE PUSH1 0x40 ADD MSTORE SWAP2 SWAP1 POP JUMP JUMPDEST PUSH1 0x0 DUP1 PUSH1 0x0 PUSH1 0x60 DUP5 DUP7 SUB SLT ISZERO PUSH2 0x81D JUMPI PUSH1 0x0 DUP1 REVERT JUMPDEST DUP4 CALLDATALOAD DUP1 ISZERO ISZERO DUP2 EQ PUSH2 0x82D JUMPI PUSH1 0x0 DUP1 REVERT JUMPDEST SWAP6 PUSH1 0x20 DUP6 ADD CALLDATALOAD SWAP6 POP PUSH1 0x40 SWAP1 SWAP5 ADD CALLDATALOAD SWAP4 SWAP3 POP POP POP JUMP JUMPDEST PUSH4 0x4E487B71 PUSH1 0xE0 SHL PUSH1 0x0 MSTORE PUSH1 0x11 PUSH1 0x4 MSTORE PUSH1 0x24 PUSH1 0x0 REVERT JUMPDEST PUSH1 0x0 PUSH1 0x1 DUP3 ADD PUSH2 0x86A JUMPI PUSH2 0x86A PUSH2 0x842 JUMP JUMPDEST POP PUSH1 0x1 ADD SWAP1 JUMP JUMPDEST PUSH1 0x0 DUP1 PUSH1 0x40 DUP4 DUP6 SUB SLT ISZERO PUSH2 0x884 JUMPI PUSH1 0x0 DUP1 REVERT JUMPDEST POP POP DUP1 CALLDATALOAD SWAP3 PUSH1 0x20 SWAP1 SWAP2 ADD CALLDATALOAD SWAP2 POP JUMP JUMPDEST DUP1 DUP3 MUL DUP2 ISZERO DUP3 DUP3 DIV DUP5 EQ OR PUSH2 0x1C6 JUMPI PUSH2 0x1C6 PUSH2 0x842 JUMP JUMPDEST PUSH1 0x0 DUP3 PUSH2 0x8C7 JUMPI PUSH4 0x4E487B71 PUSH1 0xE0 SHL PUSH1 0x0 MSTORE PUSH1 0x12 PUSH1 0x4 MSTORE PUSH1 0x24 PUSH1 0x0 REVERT JUMPDEST POP DIV SWAP1 JUMP INVALID LOG2 PUSH5 0x6970667358 0x22 SLT KECCAK256 RJUMPI 0xF546 CODECOPY ADD LOG4 CALLER PUSH2 0xF418 EXTSTATICCALL 0xA5 0xD EXTCALL MULMOD DUP6 MOD 0xAE PUSH29 0xEF6386970AF9AC954C237D9DFE64736F6C634300081E00330000000000 "},"methodIdentifiers":{"CAUTION_THRESHOLD()":"0bd4e0e3","EMERGENCY_THRESHOLD()":"087d31b7","HEALTHY_THRESHOLD()":"1b4abeff","currentRisk()":"ffde0f97","flagWhaleActivity(address,uint256)":"a9f4c25e","lastAdjustmentBlock()":"c289c067","onEvent(address,bytes32[],bytes)":"53edf33d","owner()":"8da5cb5b","supportsInterface(bytes4)":"01ffc9a7","totalGamesProcessed()":"78e0fe28","vault()":"fbfa77cf"}}}}}