{"contracts/ReactiveReferral.sol":{"ReactiveReferral":{"abi":[{"inputs":[],"name":"OnlyReactivityPrecompile","type":"error"},{"anonymous":false,"inputs":[{"indexed":true,"internalType":"address","name":"referrer","type":"address"},{"indexed":false,"internalType":"uint256","name":"amount","type":"uint256"}],"name":"ReferralClaimed","type":"event"},{"anonymous":false,"inputs":[{"indexed":true,"internalType":"address","name":"referrer","type":"address"},{"indexed":true,"internalType":"address","name":"player","type":"address"},{"indexed":false,"internalType":"uint256","name":"betAmount","type":"uint256"},{"indexed":false,"internalType":"uint256","name":"reward","type":"uint256"}],"name":"ReferralCredited","type":"event"},{"anonymous":false,"inputs":[{"indexed":true,"internalType":"address","name":"player","type":"address"},{"indexed":true,"internalType":"address","name":"referrer","type":"address"}],"name":"ReferralRegistered","type":"event"},{"inputs":[],"name":"REFERRAL_BPS","outputs":[{"internalType":"uint256","name":"","type":"uint256"}],"stateMutability":"view","type":"function"},{"inputs":[],"name":"claimRewards","outputs":[],"stateMutability":"nonpayable","type":"function"},{"inputs":[{"internalType":"address","name":"referrer","type":"address"}],"name":"getReferralStats","outputs":[{"components":[{"internalType":"uint256","name":"totalEarned","type":"uint256"},{"internalType":"uint256","name":"totalReferredVolume","type":"uint256"},{"internalType":"uint256","name":"referralCount","type":"uint256"},{"internalType":"uint256","name":"pendingBalance","type":"uint256"}],"internalType":"struct ReactiveReferral.ReferralStats","name":"","type":"tuple"}],"stateMutability":"view","type":"function"},{"inputs":[{"internalType":"address","name":"player","type":"address"}],"name":"getReferrerOf","outputs":[{"internalType":"address","name":"","type":"address"}],"stateMutability":"view","type":"function"},{"inputs":[{"internalType":"address","name":"emitter","type":"address"},{"internalType":"bytes32[]","name":"eventTopics","type":"bytes32[]"},{"internalType":"bytes","name":"data","type":"bytes"}],"name":"onEvent","outputs":[],"stateMutability":"nonpayable","type":"function"},{"inputs":[{"internalType":"address","name":"","type":"address"}],"name":"referralStats","outputs":[{"internalType":"uint256","name":"totalEarned","type":"uint256"},{"internalType":"uint256","name":"totalReferredVolume","type":"uint256"},{"internalType":"uint256","name":"referralCount","type":"uint256"},{"internalType":"uint256","name":"pendingBalance","type":"uint256"}],"stateMutability":"view","type":"function"},{"inputs":[{"internalType":"address","name":"","type":"address"}],"name":"referrerOf","outputs":[{"internalType":"address","name":"","type":"address"}],"stateMutability":"view","type":"function"},{"inputs":[{"internalType":"bytes4","name":"interfaceId","type":"bytes4"}],"name":"supportsInterface","outputs":[{"internalType":"bool","name":"","type":"bool"}],"stateMutability":"pure","type":"function"},{"inputs":[],"name":"totalReferralsPaid","outputs":[{"internalType":"uint256","name":"","type":"uint256"}],"stateMutability":"view","type":"function"},{"inputs":[],"name":"totalReferredVolume","outputs":[{"internalType":"uint256","name":"","type":"uint256"}],"stateMutability":"view","type":"function"}],"evm":{"bytecode":{"linkReferences":{},"object":"6080604052348015600f57600080fd5b506108948061001f6000396000f3fe608060405234801561001057600080fd5b506004361061009e5760003560e01c80633a0e3409116100665780633a0e34091461013b57806353edf33d146101905780636e8cddea146101a3578063bc7f25e4146101ab578063d21cacdf146101ef57600080fd5b806301ffc9a7146100a357806311a64f2d146100cb5780631504b9b8146100e257806321bade13146100eb578063372500ab14610131575b600080fd5b6100b66100b1366004610631565b610218565b60405190151581526020015b60405180910390f35b6100d460025481565b6040519081526020016100c2565b6100d460035481565b6100fe6100f936600461067a565b61024f565b6040516100c291908151815260208083015190820152604080830151908201526060918201519181019190915260800190565b6101396102c6565b005b61017061014936600461067a565b60006020819052908152604090208054600182015460028301546003909301549192909184565b6040805194855260208501939093529183015260608201526080016100c2565b61013961019e3660046106e0565b610367565b6100d4606481565b6101d76101b936600461067a565b6001600160a01b039081166000908152600160205260409020541690565b6040516001600160a01b0390911681526020016100c2565b6101d76101fd36600461067a565b6001602052600090815260409020546001600160a01b031681565b60006301ffc9a760e01b6001600160e01b03198316148061024957506353edf33d60e01b6001600160e01b03198316145b92915050565b61027a6040518060800160405280600081526020016000815260200160008152602001600081525090565b506001600160a01b031660009081526020818152604091829020825160808101845281548152600182015492810192909252600281015492820192909252600390910154606082015290565b336000908152602081905260409020600301548061031d5760405162461bcd60e51b815260206004820152601060248201526f4e6f7468696e6720746f20636c61696d60801b604482015260640160405180910390fd5b336000818152602081815260408083206003019290925590518381527f6cd4d40588b17656762e007b5b0c873a86cc13d23123cd1c44b4389b8aafa105910160405180910390a250565b33610100146103895760405163191fbb7560e01b815260040160405180910390fd5b610396858585858561039d565b5050505050565b7f8f297a367476f4d40bc7e8d7ec84ee23ec7d7b2fb8233cb9b737b17004eb6bf38085856000816103d0576103d061079d565b905060200201350361044f576000858560028181106103f1576103f161079d565b60200291909101359150600090508061040c858701876107b3565b90925090506001600160a01b0381161580159061043b5750826001600160a01b0316816001600160a01b031614155b1561044b5761044b818484610457565b5050505b505050505050565b6001600160a01b0382811660009081526001602052604090205416610504576001600160a01b03828116600090815260016020908152604080832080546001600160a01b03191694881694851790559282528190529081206002018054916104be836107f9565b9190505550826001600160a01b0316826001600160a01b03167f5f1ca2fcc108b751843a763e60d2201f593516109d7dbb1b700468f2d4190bb760405160405180910390a35b6000612710610514606484610812565b61051e9190610829565b6001600160a01b03851660009081526020819052604081208054929350839290919061054b90849061084b565b90915550506001600160a01b0384166000908152602081905260408120600101805484929061057b90849061084b565b90915550506001600160a01b038416600090815260208190526040812060030180548392906105ab90849061084b565b9250508190555080600260008282546105c4919061084b565b9250508190555081600360008282546105dd919061084b565b909155505060408051838152602081018390526001600160a01b0380861692908716917fdc43a08089b55cf50b6f89c7793c678339b59379ea81e892b46a7c4891f8046a910160405180910390a350505050565b60006020828403121561064357600080fd5b81356001600160e01b03198116811461065b57600080fd5b9392505050565b6001600160a01b038116811461067757600080fd5b50565b60006020828403121561068c57600080fd5b813561065b81610662565b60008083601f8401126106a957600080fd5b50813567ffffffffffffffff8111156106c157600080fd5b6020830191508360208285010111156106d957600080fd5b9250929050565b6000806000806000606086880312156106f857600080fd5b853561070381610662565b9450602086013567ffffffffffffffff81111561071f57600080fd5b8601601f8101881361073057600080fd5b803567ffffffffffffffff81111561074757600080fd5b8860208260051b840101111561075c57600080fd5b60209190910194509250604086013567ffffffffffffffff81111561078057600080fd5b61078c88828901610697565b969995985093965092949392505050565b634e487b7160e01b600052603260045260246000fd5b600080604083850312156107c657600080fd5b8235915060208301356107d881610662565b809150509250929050565b634e487b7160e01b600052601160045260246000fd5b60006001820161080b5761080b6107e3565b5060010190565b8082028115828204841417610249576102496107e3565b60008261084657634e487b7160e01b600052601260045260246000fd5b500490565b80820180821115610249576102496107e356fea2646970667358221220b77b1f6ddb67556edda5f15dbc5efb4bf2665a05d9ceac59d9f96ce28dccc6ef64736f6c634300081e0033","opcodes":"PUSH1 0x80 PUSH1 0x40 MSTORE CALLVALUE DUP1 ISZERO PUSH1 0xF JUMPI PUSH1 0x0 DUP1 REVERT JUMPDEST POP PUSH2 0x894 DUP1 PUSH2 0x1F PUSH1 0x0 CODECOPY PUSH1 0x0 RETURN INVALID PUSH1 0x80 PUSH1 0x40 MSTORE CALLVALUE DUP1 ISZERO PUSH2 0x10 JUMPI PUSH1 0x0 DUP1 REVERT JUMPDEST POP PUSH1 0x4 CALLDATASIZE LT PUSH2 0x9E JUMPI PUSH1 0x0 CALLDATALOAD PUSH1 0xE0 SHR DUP1 PUSH4 0x3A0E3409 GT PUSH2 0x66 JUMPI DUP1 PUSH4 0x3A0E3409 EQ PUSH2 0x13B JUMPI DUP1 PUSH4 0x53EDF33D EQ PUSH2 0x190 JUMPI DUP1 PUSH4 0x6E8CDDEA EQ PUSH2 0x1A3 JUMPI DUP1 PUSH4 0xBC7F25E4 EQ PUSH2 0x1AB JUMPI DUP1 PUSH4 0xD21CACDF EQ PUSH2 0x1EF JUMPI PUSH1 0x0 DUP1 REVERT JUMPDEST DUP1 PUSH4 0x1FFC9A7 EQ PUSH2 0xA3 JUMPI DUP1 PUSH4 0x11A64F2D EQ PUSH2 0xCB JUMPI DUP1 PUSH4 0x1504B9B8 EQ PUSH2 0xE2 JUMPI DUP1 PUSH4 0x21BADE13 EQ PUSH2 0xEB JUMPI DUP1 PUSH4 0x372500AB EQ PUSH2 0x131 JUMPI JUMPDEST PUSH1 0x0 DUP1 REVERT JUMPDEST PUSH2 0xB6 PUSH2 0xB1 CALLDATASIZE PUSH1 0x4 PUSH2 0x631 JUMP JUMPDEST PUSH2 0x218 JUMP JUMPDEST PUSH1 0x40 MLOAD SWAP1 ISZERO ISZERO DUP2 MSTORE PUSH1 0x20 ADD JUMPDEST PUSH1 0x40 MLOAD DUP1 SWAP2 SUB SWAP1 RETURN JUMPDEST PUSH2 0xD4 PUSH1 0x2 SLOAD DUP2 JUMP JUMPDEST PUSH1 0x40 MLOAD SWAP1 DUP2 MSTORE PUSH1 0x20 ADD PUSH2 0xC2 JUMP JUMPDEST PUSH2 0xD4 PUSH1 0x3 SLOAD DUP2 JUMP JUMPDEST PUSH2 0xFE PUSH2 0xF9 CALLDATASIZE PUSH1 0x4 PUSH2 0x67A JUMP JUMPDEST PUSH2 0x24F JUMP JUMPDEST PUSH1 0x40 MLOAD PUSH2 0xC2 SWAP2 SWAP1 DUP2 MLOAD DUP2 MSTORE PUSH1 0x20 DUP1 DUP4 ADD MLOAD SWAP1 DUP3 ADD MSTORE PUSH1 0x40 DUP1 DUP4 ADD MLOAD SWAP1 DUP3 ADD MSTORE PUSH1 0x60 SWAP2 DUP3 ADD MLOAD SWAP2 DUP2 ADD SWAP2 SWAP1 SWAP2 MSTORE PUSH1 0x80 ADD SWAP1 JUMP JUMPDEST PUSH2 0x139 PUSH2 0x2C6 JUMP JUMPDEST STOP JUMPDEST PUSH2 0x170 PUSH2 0x149 CALLDATASIZE PUSH1 0x4 PUSH2 0x67A JUMP JUMPDEST PUSH1 0x0 PUSH1 0x20 DUP2 SWAP1 MSTORE SWAP1 DUP2 MSTORE PUSH1 0x40 SWAP1 KECCAK256 DUP1 SLOAD PUSH1 0x1 DUP3 ADD SLOAD PUSH1 0x2 DUP4 ADD SLOAD PUSH1 0x3 SWAP1 SWAP4 ADD SLOAD SWAP2 SWAP3 SWAP1 SWAP2 DUP5 JUMP JUMPDEST PUSH1 0x40 DUP1 MLOAD SWAP5 DUP6 MSTORE PUSH1 0x20 DUP6 ADD SWAP4 SWAP1 SWAP4 MSTORE SWAP2 DUP4 ADD MSTORE PUSH1 0x60 DUP3 ADD MSTORE PUSH1 0x80 ADD PUSH2 0xC2 JUMP JUMPDEST PUSH2 0x139 PUSH2 0x19E CALLDATASIZE PUSH1 0x4 PUSH2 0x6E0 JUMP JUMPDEST PUSH2 0x367 JUMP JUMPDEST PUSH2 0xD4 PUSH1 0x64 DUP2 JUMP JUMPDEST PUSH2 0x1D7 PUSH2 0x1B9 CALLDATASIZE PUSH1 0x4 PUSH2 0x67A JUMP JUMPDEST PUSH1 0x1 PUSH1 0x1 PUSH1 0xA0 SHL SUB SWAP1 DUP2 AND PUSH1 0x0 SWAP1 DUP2 MSTORE PUSH1 0x1 PUSH1 0x20 MSTORE PUSH1 0x40 SWAP1 KECCAK256 SLOAD AND SWAP1 JUMP JUMPDEST PUSH1 0x40 MLOAD PUSH1 0x1 PUSH1 0x1 PUSH1 0xA0 SHL SUB SWAP1 SWAP2 AND DUP2 MSTORE PUSH1 0x20 ADD PUSH2 0xC2 JUMP JUMPDEST PUSH2 0x1D7 PUSH2 0x1FD CALLDATASIZE PUSH1 0x4 PUSH2 0x67A JUMP JUMPDEST PUSH1 0x1 PUSH1 0x20 MSTORE PUSH1 0x0 SWAP1 DUP2 MSTORE PUSH1 0x40 SWAP1 KECCAK256 SLOAD PUSH1 0x1 PUSH1 0x1 PUSH1 0xA0 SHL SUB AND DUP2 JUMP JUMPDEST PUSH1 0x0 PUSH4 0x1FFC9A7 PUSH1 0xE0 SHL PUSH1 0x1 PUSH1 0x1 PUSH1 0xE0 SHL SUB NOT DUP4 AND EQ DUP1 PUSH2 0x249 JUMPI POP PUSH4 0x53EDF33D PUSH1 0xE0 SHL PUSH1 0x1 PUSH1 0x1 PUSH1 0xE0 SHL SUB NOT DUP4 AND EQ JUMPDEST SWAP3 SWAP2 POP POP JUMP JUMPDEST PUSH2 0x27A PUSH1 0x40 MLOAD DUP1 PUSH1 0x80 ADD PUSH1 0x40 MSTORE DUP1 PUSH1 0x0 DUP2 MSTORE PUSH1 0x20 ADD PUSH1 0x0 DUP2 MSTORE PUSH1 0x20 ADD PUSH1 0x0 DUP2 MSTORE PUSH1 0x20 ADD PUSH1 0x0 DUP2 MSTORE POP SWAP1 JUMP JUMPDEST POP PUSH1 0x1 PUSH1 0x1 PUSH1 0xA0 SHL SUB AND PUSH1 0x0 SWAP1 DUP2 MSTORE PUSH1 0x20 DUP2 DUP2 MSTORE PUSH1 0x40 SWAP2 DUP3 SWAP1 KECCAK256 DUP3 MLOAD PUSH1 0x80 DUP2 ADD DUP5 MSTORE DUP2 SLOAD DUP2 MSTORE PUSH1 0x1 DUP3 ADD SLOAD SWAP3 DUP2 ADD SWAP3 SWAP1 SWAP3 MSTORE PUSH1 0x2 DUP2 ADD SLOAD SWAP3 DUP3 ADD SWAP3 SWAP1 SWAP3 MSTORE PUSH1 0x3 SWAP1 SWAP2 ADD SLOAD PUSH1 0x60 DUP3 ADD MSTORE SWAP1 JUMP JUMPDEST CALLER PUSH1 0x0 SWAP1 DUP2 MSTORE PUSH1 0x20 DUP2 SWAP1 MSTORE PUSH1 0x40 SWAP1 KECCAK256 PUSH1 0x3 ADD SLOAD DUP1 PUSH2 0x31D JUMPI PUSH1 0x40 MLOAD PUSH3 0x461BCD PUSH1 0xE5 SHL DUP2 MSTORE PUSH1 0x20 PUSH1 0x4 DUP3 ADD MSTORE PUSH1 0x10 PUSH1 0x24 DUP3 ADD MSTORE PUSH16 0x4E6F7468696E6720746F20636C61696D PUSH1 0x80 SHL PUSH1 0x44 DUP3 ADD MSTORE PUSH1 0x64 ADD PUSH1 0x40 MLOAD DUP1 SWAP2 SUB SWAP1 REVERT JUMPDEST CALLER PUSH1 0x0 DUP2 DUP2 MSTORE PUSH1 0x20 DUP2 DUP2 MSTORE PUSH1 0x40 DUP1 DUP4 KECCAK256 PUSH1 0x3 ADD SWAP3 SWAP1 SWAP3 SSTORE SWAP1 MLOAD DUP4 DUP2 MSTORE PUSH32 0x6CD4D40588B17656762E007B5B0C873A86CC13D23123CD1C44B4389B8AAFA105 SWAP2 ADD PUSH1 0x40 MLOAD DUP1 SWAP2 SUB SWAP1 LOG2 POP JUMP JUMPDEST CALLER PUSH2 0x100 EQ PUSH2 0x389 JUMPI PUSH1 0x40 MLOAD PUSH4 0x191FBB75 PUSH1 0xE0 SHL DUP2 MSTORE PUSH1 0x4 ADD PUSH1 0x40 MLOAD DUP1 SWAP2 SUB SWAP1 REVERT JUMPDEST PUSH2 0x396 DUP6 DUP6 DUP6 DUP6 DUP6 PUSH2 0x39D JUMP JUMPDEST POP POP POP POP POP JUMP JUMPDEST PUSH32 0x8F297A367476F4D40BC7E8D7EC84EE23EC7D7B2FB8233CB9B737B17004EB6BF3 DUP1 DUP6 DUP6 PUSH1 0x0 DUP2 PUSH2 0x3D0 JUMPI PUSH2 0x3D0 PUSH2 0x79D JUMP JUMPDEST SWAP1 POP PUSH1 0x20 MUL ADD CALLDATALOAD SUB PUSH2 0x44F JUMPI PUSH1 0x0 DUP6 DUP6 PUSH1 0x2 DUP2 DUP2 LT PUSH2 0x3F1 JUMPI PUSH2 0x3F1 PUSH2 0x79D JUMP JUMPDEST PUSH1 0x20 MUL SWAP2 SWAP1 SWAP2 ADD CALLDATALOAD SWAP2 POP PUSH1 0x0 SWAP1 POP DUP1 PUSH2 0x40C DUP6 DUP8 ADD DUP8 PUSH2 0x7B3 JUMP JUMPDEST SWAP1 SWAP3 POP SWAP1 POP PUSH1 0x1 PUSH1 0x1 PUSH1 0xA0 SHL SUB DUP2 AND ISZERO DUP1 ISZERO SWAP1 PUSH2 0x43B JUMPI POP DUP3 PUSH1 0x1 PUSH1 0x1 PUSH1 0xA0 SHL SUB AND DUP2 PUSH1 0x1 PUSH1 0x1 PUSH1 0xA0 SHL SUB AND EQ ISZERO JUMPDEST ISZERO PUSH2 0x44B JUMPI PUSH2 0x44B DUP2 DUP5 DUP5 PUSH2 0x457 JUMP JUMPDEST POP POP POP JUMPDEST POP POP POP POP POP POP JUMP JUMPDEST PUSH1 0x1 PUSH1 0x1 PUSH1 0xA0 SHL SUB DUP3 DUP2 AND PUSH1 0x0 SWAP1 DUP2 MSTORE PUSH1 0x1 PUSH1 0x20 MSTORE PUSH1 0x40 SWAP1 KECCAK256 SLOAD AND PUSH2 0x504 JUMPI PUSH1 0x1 PUSH1 0x1 PUSH1 0xA0 SHL SUB DUP3 DUP2 AND PUSH1 0x0 SWAP1 DUP2 MSTORE PUSH1 0x1 PUSH1 0x20 SWAP1 DUP2 MSTORE PUSH1 0x40 DUP1 DUP4 KECCAK256 DUP1 SLOAD PUSH1 0x1 PUSH1 0x1 PUSH1 0xA0 SHL SUB NOT AND SWAP5 DUP9 AND SWAP5 DUP6 OR SWAP1 SSTORE SWAP3 DUP3 MSTORE DUP2 SWAP1 MSTORE SWAP1 DUP2 KECCAK256 PUSH1 0x2 ADD DUP1 SLOAD SWAP2 PUSH2 0x4BE DUP4 PUSH2 0x7F9 JUMP JUMPDEST SWAP2 SWAP1 POP SSTORE POP DUP3 PUSH1 0x1 PUSH1 0x1 PUSH1 0xA0 SHL SUB AND DUP3 PUSH1 0x1 PUSH1 0x1 PUSH1 0xA0 SHL SUB AND PUSH32 0x5F1CA2FCC108B751843A763E60D2201F593516109D7DBB1B700468F2D4190BB7 PUSH1 0x40 MLOAD PUSH1 0x40 MLOAD DUP1 SWAP2 SUB SWAP1 LOG3 JUMPDEST PUSH1 0x0 PUSH2 0x2710 PUSH2 0x514 PUSH1 0x64 DUP5 PUSH2 0x812 JUMP JUMPDEST PUSH2 0x51E SWAP2 SWAP1 PUSH2 0x829 JUMP JUMPDEST PUSH1 0x1 PUSH1 0x1 PUSH1 0xA0 SHL SUB DUP6 AND PUSH1 0x0 SWAP1 DUP2 MSTORE PUSH1 0x20 DUP2 SWAP1 MSTORE PUSH1 0x40 DUP2 KECCAK256 DUP1 SLOAD SWAP3 SWAP4 POP DUP4 SWAP3 SWAP1 SWAP2 SWAP1 PUSH2 0x54B SWAP1 DUP5 SWAP1 PUSH2 0x84B JUMP JUMPDEST SWAP1 SWAP2 SSTORE POP POP PUSH1 0x1 PUSH1 0x1 PUSH1 0xA0 SHL SUB DUP5 AND PUSH1 0x0 SWAP1 DUP2 MSTORE PUSH1 0x20 DUP2 SWAP1 MSTORE PUSH1 0x40 DUP2 KECCAK256 PUSH1 0x1 ADD DUP1 SLOAD DUP5 SWAP3 SWAP1 PUSH2 0x57B SWAP1 DUP5 SWAP1 PUSH2 0x84B JUMP JUMPDEST SWAP1 SWAP2 SSTORE POP POP PUSH1 0x1 PUSH1 0x1 PUSH1 0xA0 SHL SUB DUP5 AND PUSH1 0x0 SWAP1 DUP2 MSTORE PUSH1 0x20 DUP2 SWAP1 MSTORE PUSH1 0x40 DUP2 KECCAK256 PUSH1 0x3 ADD DUP1 SLOAD DUP4 SWAP3 SWAP1 PUSH2 0x5AB SWAP1 DUP5 SWAP1 PUSH2 0x84B JUMP JUMPDEST SWAP3 POP POP DUP2 SWAP1 SSTORE POP DUP1 PUSH1 0x2 PUSH1 0x0 DUP3 DUP3 SLOAD PUSH2 0x5C4 SWAP2 SWAP1 PUSH2 0x84B JUMP JUMPDEST SWAP3 POP POP DUP2 SWAP1 SSTORE POP DUP2 PUSH1 0x3 PUSH1 0x0 DUP3 DUP3 SLOAD PUSH2 0x5DD SWAP2 SWAP1 PUSH2 0x84B JUMP JUMPDEST SWAP1 SWAP2 SSTORE POP POP PUSH1 0x40 DUP1 MLOAD DUP4 DUP2 MSTORE PUSH1 0x20 DUP2 ADD DUP4 SWAP1 MSTORE PUSH1 0x1 PUSH1 0x1 PUSH1 0xA0 SHL SUB DUP1 DUP7 AND SWAP3 SWAP1 DUP8 AND SWAP2 PUSH32 0xDC43A08089B55CF50B6F89C7793C678339B59379EA81E892B46A7C4891F8046A SWAP2 ADD PUSH1 0x40 MLOAD DUP1 SWAP2 SUB SWAP1 LOG3 POP POP POP POP JUMP JUMPDEST PUSH1 0x0 PUSH1 0x20 DUP3 DUP5 SUB SLT ISZERO PUSH2 0x643 JUMPI PUSH1 0x0 DUP1 REVERT JUMPDEST DUP2 CALLDATALOAD PUSH1 0x1 PUSH1 0x1 PUSH1 0xE0 SHL SUB NOT DUP2 AND DUP2 EQ PUSH2 0x65B JUMPI PUSH1 0x0 DUP1 REVERT JUMPDEST SWAP4 SWAP3 POP POP POP JUMP JUMPDEST PUSH1 0x1 PUSH1 0x1 PUSH1 0xA0 SHL SUB DUP2 AND DUP2 EQ PUSH2 0x677 JUMPI PUSH1 0x0 DUP1 REVERT JUMPDEST POP JUMP JUMPDEST PUSH1 0x0 PUSH1 0x20 DUP3 DUP5 SUB SLT ISZERO PUSH2 0x68C JUMPI PUSH1 0x0 DUP1 REVERT JUMPDEST DUP2 CALLDATALOAD PUSH2 0x65B DUP2 PUSH2 0x662 JUMP JUMPDEST PUSH1 0x0 DUP1 DUP4 PUSH1 0x1F DUP5 ADD SLT PUSH2 0x6A9 JUMPI PUSH1 0x0 DUP1 REVERT JUMPDEST POP DUP2 CALLDATALOAD PUSH8 0xFFFFFFFFFFFFFFFF DUP2 GT ISZERO PUSH2 0x6C1 JUMPI PUSH1 0x0 DUP1 REVERT JUMPDEST PUSH1 0x20 DUP4 ADD SWAP2 POP DUP4 PUSH1 0x20 DUP3 DUP6 ADD ADD GT ISZERO PUSH2 0x6D9 JUMPI PUSH1 0x0 DUP1 REVERT JUMPDEST SWAP3 POP SWAP3 SWAP1 POP JUMP JUMPDEST PUSH1 0x0 DUP1 PUSH1 0x0 DUP1 PUSH1 0x0 PUSH1 0x60 DUP7 DUP9 SUB SLT ISZERO PUSH2 0x6F8 JUMPI PUSH1 0x0 DUP1 REVERT JUMPDEST DUP6 CALLDATALOAD PUSH2 0x703 DUP2 PUSH2 0x662 JUMP JUMPDEST SWAP5 POP PUSH1 0x20 DUP7 ADD CALLDATALOAD PUSH8 0xFFFFFFFFFFFFFFFF DUP2 GT ISZERO PUSH2 0x71F JUMPI PUSH1 0x0 DUP1 REVERT JUMPDEST DUP7 ADD PUSH1 0x1F DUP2 ADD DUP9 SGT PUSH2 0x730 JUMPI PUSH1 0x0 DUP1 REVERT JUMPDEST DUP1 CALLDATALOAD PUSH8 0xFFFFFFFFFFFFFFFF DUP2 GT ISZERO PUSH2 0x747 JUMPI PUSH1 0x0 DUP1 REVERT JUMPDEST DUP9 PUSH1 0x20 DUP3 PUSH1 0x5 SHL DUP5 ADD ADD GT ISZERO PUSH2 0x75C JUMPI PUSH1 0x0 DUP1 REVERT JUMPDEST PUSH1 0x20 SWAP2 SWAP1 SWAP2 ADD SWAP5 POP SWAP3 POP PUSH1 0x40 DUP7 ADD CALLDATALOAD PUSH8 0xFFFFFFFFFFFFFFFF DUP2 GT ISZERO PUSH2 0x780 JUMPI PUSH1 0x0 DUP1 REVERT JUMPDEST PUSH2 0x78C DUP9 DUP3 DUP10 ADD PUSH2 0x697 JUMP JUMPDEST SWAP7 SWAP10 SWAP6 SWAP9 POP SWAP4 SWAP7 POP SWAP3 SWAP5 SWAP4 SWAP3 POP POP POP JUMP JUMPDEST PUSH4 0x4E487B71 PUSH1 0xE0 SHL PUSH1 0x0 MSTORE PUSH1 0x32 PUSH1 0x4 MSTORE PUSH1 0x24 PUSH1 0x0 REVERT JUMPDEST PUSH1 0x0 DUP1 PUSH1 0x40 DUP4 DUP6 SUB SLT ISZERO PUSH2 0x7C6 JUMPI PUSH1 0x0 DUP1 REVERT JUMPDEST DUP3 CALLDATALOAD SWAP2 POP PUSH1 0x20 DUP4 ADD CALLDATALOAD PUSH2 0x7D8 DUP2 PUSH2 0x662 JUMP JUMPDEST DUP1 SWAP2 POP POP SWAP3 POP SWAP3 SWAP1 POP JUMP JUMPDEST PUSH4 0x4E487B71 PUSH1 0xE0 SHL PUSH1 0x0 MSTORE PUSH1 0x11 PUSH1 0x4 MSTORE PUSH1 0x24 PUSH1 0x0 REVERT JUMPDEST PUSH1 0x0 PUSH1 0x1 DUP3 ADD PUSH2 0x80B JUMPI PUSH2 0x80B PUSH2 0x7E3 JUMP JUMPDEST POP PUSH1 0x1 ADD SWAP1 JUMP JUMPDEST DUP1 DUP3 MUL DUP2 ISZERO DUP3 DUP3 DIV DUP5 EQ OR PUSH2 0x249 JUMPI PUSH2 0x249 PUSH2 0x7E3 JUMP JUMPDEST PUSH1 0x0 DUP3 PUSH2 0x846 JUMPI PUSH4 0x4E487B71 PUSH1 0xE0 SHL PUSH1 0x0 MSTORE PUSH1 0x12 PUSH1 0x4 MSTORE PUSH1 0x24 PUSH1 0x0 REVERT JUMPDEST POP DIV SWAP1 JUMP JUMPDEST DUP1 DUP3 ADD DUP1 DUP3 GT ISZERO PUSH2 0x249 JUMPI PUSH2 0x249 PUSH2 0x7E3 JUMP INVALID LOG2 PUSH5 0x6970667358 0x22 SLT KECCAK256 0xB7 PUSH28 0x1F6DDB67556EDDA5F15DBC5EFB4BF2665A05D9CEAC59D9F96CE28DCC 0xC6 0xEF PUSH5 0x736F6C6343 STOP ADDMOD 0x1E STOP CALLER "},"methodIdentifiers":{"REFERRAL_BPS()":"6e8cddea","claimRewards()":"372500ab","getReferralStats(address)":"21bade13","getReferrerOf(address)":"bc7f25e4","onEvent(address,bytes32[],bytes)":"53edf33d","referralStats(address)":"3a0e3409","referrerOf(address)":"d21cacdf","supportsInterface(bytes4)":"01ffc9a7","totalReferralsPaid()":"11a64f2d","totalReferredVolume()":"1504b9b8"}}}}}