{"contracts/KaboomGame.sol":{"KaboomGame":{"abi":[{"inputs":[{"internalType":"address","name":"_vault","type":"address"}],"stateMutability":"nonpayable","type":"constructor"},{"anonymous":false,"inputs":[{"indexed":true,"internalType":"uint256","name":"gameId","type":"uint256"},{"indexed":true,"internalType":"address","name":"player","type":"address"},{"indexed":false,"internalType":"uint256","name":"amount","type":"uint256"},{"indexed":false,"internalType":"address","name":"referrer","type":"address"}],"name":"BetPlaced","type":"event"},{"anonymous":false,"inputs":[{"indexed":true,"internalType":"uint256","name":"gameId","type":"uint256"},{"indexed":true,"internalType":"address","name":"player","type":"address"},{"indexed":false,"internalType":"uint256","name":"betAmount","type":"uint256"}],"name":"GameLost","type":"event"},{"anonymous":false,"inputs":[{"indexed":true,"internalType":"uint256","name":"gameId","type":"uint256"},{"indexed":true,"internalType":"address","name":"player","type":"address"},{"indexed":false,"internalType":"bool","name":"won","type":"bool"},{"indexed":false,"internalType":"uint256","name":"amount","type":"uint256"},{"indexed":false,"internalType":"uint256","name":"multiplier","type":"uint256"}],"name":"GameSettled","type":"event"},{"anonymous":false,"inputs":[{"indexed":true,"internalType":"uint256","name":"gameId","type":"uint256"},{"indexed":true,"internalType":"address","name":"player","type":"address"},{"indexed":false,"internalType":"uint256","name":"betAmount","type":"uint256"},{"indexed":false,"internalType":"uint8","name":"mineCount","type":"uint8"},{"indexed":false,"internalType":"bytes32","name":"commitment","type":"bytes32"}],"name":"GameStarted","type":"event"},{"anonymous":false,"inputs":[{"indexed":true,"internalType":"uint256","name":"gameId","type":"uint256"},{"indexed":true,"internalType":"address","name":"player","type":"address"},{"indexed":false,"internalType":"uint256","name":"payout","type":"uint256"},{"indexed":false,"internalType":"uint256","name":"multiplier","type":"uint256"}],"name":"GameWon","type":"event"},{"anonymous":false,"inputs":[{"indexed":true,"internalType":"uint256","name":"gameId","type":"uint256"},{"indexed":false,"internalType":"uint8","name":"tileIndex","type":"uint8"},{"indexed":false,"internalType":"bool","name":"safe","type":"bool"},{"indexed":false,"internalType":"uint256","name":"newMultiplier","type":"uint256"}],"name":"TileRevealed","type":"event"},{"inputs":[],"name":"GRID_SIZE","outputs":[{"internalType":"uint8","name":"","type":"uint8"}],"stateMutability":"view","type":"function"},{"inputs":[],"name":"HOUSE_EDGE_BPS","outputs":[{"internalType":"uint256","name":"","type":"uint256"}],"stateMutability":"view","type":"function"},{"inputs":[],"name":"WAD","outputs":[{"internalType":"uint256","name":"","type":"uint256"}],"stateMutability":"view","type":"function"},{"inputs":[{"internalType":"uint256","name":"gameId","type":"uint256"}],"name":"cashOut","outputs":[],"stateMutability":"nonpayable","type":"function"},{"inputs":[],"name":"gameCounter","outputs":[{"internalType":"uint256","name":"","type":"uint256"}],"stateMutability":"view","type":"function"},{"inputs":[{"internalType":"uint256","name":"","type":"uint256"}],"name":"games","outputs":[{"internalType":"address","name":"player","type":"address"},{"internalType":"uint256","name":"betAmount","type":"uint256"},{"internalType":"uint8","name":"mineCount","type":"uint8"},{"internalType":"uint16","name":"mineLayout","type":"uint16"},{"internalType":"bytes32","name":"salt","type":"bytes32"},{"internalType":"bytes32","name":"commitment","type":"bytes32"},{"internalType":"uint16","name":"revealedTiles","type":"uint16"},{"internalType":"uint8","name":"safeTilesRevealed","type":"uint8"},{"internalType":"uint256","name":"multiplier","type":"uint256"},{"internalType":"enum KaboomGame.GameStatus","name":"status","type":"uint8"},{"internalType":"address","name":"referrer","type":"address"},{"internalType":"uint256","name":"timestamp","type":"uint256"}],"stateMutability":"view","type":"function"},{"inputs":[{"internalType":"uint256","name":"gameId","type":"uint256"}],"name":"getGame","outputs":[{"internalType":"address","name":"player","type":"address"},{"internalType":"uint256","name":"betAmount","type":"uint256"},{"internalType":"uint8","name":"mineCount","type":"uint8"},{"internalType":"bytes32","name":"commitment","type":"bytes32"},{"internalType":"uint16","name":"revealedTiles","type":"uint16"},{"internalType":"uint8","name":"safeTilesRevealed","type":"uint8"},{"internalType":"uint256","name":"multiplier","type":"uint256"},{"internalType":"enum KaboomGame.GameStatus","name":"status","type":"uint8"}],"stateMutability":"view","type":"function"},{"inputs":[],"name":"owner","outputs":[{"internalType":"address","name":"","type":"address"}],"stateMutability":"view","type":"function"},{"inputs":[{"internalType":"uint256","name":"gameId","type":"uint256"},{"internalType":"uint8","name":"tileIndex","type":"uint8"}],"name":"revealTile","outputs":[],"stateMutability":"nonpayable","type":"function"},{"inputs":[{"internalType":"uint8","name":"mineCount","type":"uint8"},{"internalType":"address","name":"referrer","type":"address"}],"name":"startGame","outputs":[{"internalType":"uint256","name":"gameId","type":"uint256"}],"stateMutability":"payable","type":"function"},{"inputs":[],"name":"vault","outputs":[{"internalType":"contract KaboomVault","name":"","type":"address"}],"stateMutability":"view","type":"function"},{"inputs":[{"internalType":"uint256","name":"gameId","type":"uint256"}],"name":"verifyGame","outputs":[{"internalType":"bool","name":"verified","type":"bool"},{"internalType":"bytes32","name":"commitment","type":"bytes32"},{"internalType":"uint16","name":"mineLayout","type":"uint16"},{"internalType":"bytes32","name":"salt","type":"bytes32"}],"stateMutability":"view","type":"function"}],"evm":{"bytecode":{"linkReferences":{},"object":"6080604052348015600f57600080fd5b50604051611422380380611422833981016040819052602c916059565b600080546001600160a01b039092166001600160a01b031992831617905560018054909116331790556087565b600060208284031215606a57600080fd5b81516001600160a01b0381168114608057600080fd5b9392505050565b61138c806100966000396000f3fe6080604052600436106100a75760003560e01c80638aeb5f0f116100645780638aeb5f0f146102315780638da5cb5b14610251578063a2f77bcc14610289578063b32ff2be14610315578063dcb09d461461032a578063fbfa77cf1461033d57600080fd5b8063117a5b90146100ac5780632e0be39a1461015c578063524d7daf146101805780635c7b79f5146101cc5780636a146024146101ee5780637fc4eda81461020a575b600080fd5b3480156100b857600080fd5b5061013b6100c73660046110b9565b60036020819052600091825260409091208054600182015460028301549383015460048401546005850154600686015460078701546008909701546001600160a01b0396871698959760ff8088169861ffff610100998a90048116999087169662010000900483169594928416930416908c565b6040516101539c9b9a9998979695949392919061110a565b60405180910390f35b34801561016857600080fd5b5061017260025481565b604051908152602001610153565b34801561018c57600080fd5b506101a061019b3660046110b9565b61035d565b60405161015394939291909315158452602084019290925261ffff166040830152606082015260800190565b3480156101d857600080fd5b506101ec6101e73660046110b9565b61045e565b005b3480156101fa57600080fd5b50610172670de0b6b3a764000081565b34801561021657600080fd5b5061021f601081565b60405160ff9091168152602001610153565b34801561023d57600080fd5b506101ec61024c3660046111a4565b61056f565b34801561025d57600080fd5b50600154610271906001600160a01b031681565b6040516001600160a01b039091168152602001610153565b34801561029557600080fd5b506103016102a43660046110b9565b60009081526003602052604090208054600182015460028301546004840154600585015460068601546007909601546001600160a01b0390951696939560ff93841695929461ffff83169462010000909304831693919290911690565b6040516101539897969594939291906111d0565b34801561032157600080fd5b5061017260c881565b61017261033836600461122b565b6108ce565b34801561034957600080fd5b50600054610271906001600160a01b031681565b60008181526003602052604081208190819081906001600782015460ff16600381111561038c5761038c6110d2565b141580156103b357506000600782015460ff1660038111156103b0576103b06110d2565b14155b6103f75760405162461bcd60e51b815260206004820152601060248201526f11d85b59481b9bdd081cd95d1d1b195960821b60448201526064015b60405180910390fd5b60048101546002820154600383015460405161010090920460f081901b6001600160f01b03191660208401526022830182905292965061ffff9092169450909250849060420160405160208183030381529060405280519060200120149450509193509193565b60008181526003602052604090206001600782015460ff166003811115610487576104876110d2565b146104c65760405162461bcd60e51b815260206004820152600f60248201526e47616d65206e6f742061637469766560881b60448201526064016103ee565b80546001600160a01b0316331461050f5760405162461bcd60e51b815260206004820152600d60248201526c4e6f7420796f75722067616d6560981b60448201526064016103ee565b600581015462010000900460ff166105625760405162461bcd60e51b815260206004820152601660248201527552657665616c206174206c6561737420312074696c6560501b60448201526064016103ee565b61056b82610d95565b5050565b60008281526003602052604090206001600782015460ff166003811115610598576105986110d2565b146105d75760405162461bcd60e51b815260206004820152600f60248201526e47616d65206e6f742061637469766560881b60448201526064016103ee565b80546001600160a01b031633146106205760405162461bcd60e51b815260206004820152600d60248201526c4e6f7420796f75722067616d6560981b60448201526064016103ee565b601060ff8316106106625760405162461bcd60e51b815260206004820152600c60248201526b496e76616c69642074696c6560a01b60448201526064016103ee565b6005810154600160ff84161b1661ffff16156106b35760405162461bcd60e51b815260206004820152601060248201526f105b1c9958591e481c995d99585b195960821b60448201526064016103ee565b60058101805461ffff600160ff86161b8181168284161761ffff1990931692909217909255600283015461010090041616158015906107eb5760078201805460ff191660031790556040805160ff851681526000602082018190529181019190915284907f3ccfd89a70b559b187fb8adf600211d285ecc949512b9b07a87f24bb396b27d99060600160405180910390a2815460018301546040519081526001600160a01b039091169085907f6dd6b233b201ff5342eb5248f0849dd9ceac79f106942d38bb6341013bb901d59060200160405180910390a3815460018301546040805160008082526020820193909352908101919091526001600160a01b039091169085907fab6752fb7b9372c3a768319ac552dda717633aa9cae3381f8253cfa68b8301d99060600160405180910390a36108c8565b60058201805462010000900460ff1690600261080683611284565b82546101009290920a60ff8181021990931691831602179091556005840154600285015461083f93506201000090910482169116610f7d565b600683018190556040805160ff86168152600160208201529081019190915284907f3ccfd89a70b559b187fb8adf600211d285ecc949512b9b07a87f24bb396b27d99060600160405180910390a260028201546000906108a39060ff1660106112a3565b600584015490915060ff8083166201000090920416106108c6576108c685610d95565b505b50505050565b60008034116109145760405162461bcd60e51b81526020600482015260126024820152714d7573742062657420736f6d657468696e6760701b60448201526064016103ee565b60018360ff161015801561092c5750600c8360ff1611155b6109665760405162461bcd60e51b815260206004820152600b60248201526a26b4b732b99d101896989960a91b60448201526064016103ee565b60008054906101000a90046001600160a01b03166001600160a01b031663646668b66040518163ffffffff1660e01b8152600401602060405180830381865afa1580156109b7573d6000803e3d6000fd5b505050506040513d601f19601f820116820180604052508101906109db91906112bc565b341115610a1c5760405162461bcd60e51b815260206004820152600f60248201526e115e18d959591cc81b585e0818995d608a1b60448201526064016103ee565b600260008154610a2b906112d5565b91829055509050600044423384610a436001436112ee565b6040805160208101969096528501939093526bffffffffffffffffffffffff19606092831b1691840191909152607483015240609482015260b4016040516020818303038152906040528051906020012090506000610aa28286611024565b9050600082604051602001610acd9181526a12d05093d3d357d4d0531560aa1b6020820152602b0190565b60405160208183030381529060405280519060200120905060008282604051602001610b1292919060f09290921b6001600160f01b0319168252600282015260220190565b60408051601f19818403018152828252805160209182012061018084018352338452349184019190915260ff8a169183019190915261ffff851660608301526080820184905260a08201819052600060c0830181905260e0830152670de0b6b3a764000061010083015291506101208101600181526001600160a01b038089166020808401919091524260409384015260008981526003808352908490208551815494166001600160a01b03199094169390931783559084015160018084019190915592840151600283018054606087015161ffff90811661010090810262ffffff1993841660ff968716171790935560808801518686015560a0880151600487015560c088015160058701805460e08b015190961662010000029590931691161792909217909155840151600683015561012084015160078301805493949193909260ff199190911691908490811115610c6f57610c6f6110d2565b0217905550610140820151600782018054610100600160a81b0319166101006001600160a01b03938416021790556101609092015160089091015560008054604080516310422e0d60e11b8152905191909316926320845c1a92349260048084019382900301818588803b158015610ce657600080fd5b505af1158015610cfa573d6000803e3d6000fd5b50506040805134815260ff8c1660208201529081018590523393508892507fb8c831602db82cfad7e6f8ab684b76c502e97d9e96e6db0025c15107b13c9b3a915060600160405180910390a3604080513481526001600160a01b0388166020820152339187917f8f297a367476f4d40bc7e8d7ec84ee23ec7d7b2fb8233cb9b737b17004eb6bf3910160405180910390a35050505092915050565b600081815260036020526040812060078101805460ff1916600217905560068101546001820154919291670de0b6b3a764000091610dd291611301565b610ddc919061132e565b905060008060009054906101000a90046001600160a01b03166001600160a01b0316632d9a37d36040518163ffffffff1660e01b8152600401602060405180830381865afa158015610e32573d6000803e3d6000fd5b505050506040513d601f19601f82011682018060405250810190610e5691906112bc565b905080821115610e64578091505b600054835460405163117de2fd60e01b81526001600160a01b0391821660048201526024810185905291169063117de2fd90604401600060405180830381600087803b158015610eb357600080fd5b505af1158015610ec7573d6000803e3d6000fd5b5050845460068601546040516001600160a01b0390921693508792507ff84628f2e60bdbeba9f69b77bc46e521674525a65d95c82a999a4ec15e8b521291610f1791878252602082015260400190565b60405180910390a382546006840154604080516001815260208101869052908101919091526001600160a01b039091169085907fab6752fb7b9372c3a768319ac552dda717633aa9cae3381f8253cfa68b8301d99060600160405180910390a350505050565b6000670de0b6b3a7640000815b8460ff168160ff161015610ff7576000610fa58260106112a3565b60ff169050600082610fb88760106112a3565b610fc291906112a3565b60ff16905080600003610fd6575050610ff7565b80610fe18386611301565b610feb919061132e565b93505050600101610f8a565b5061271061100660c8826112ee565b6110109083611301565b61101a919061132e565b9150505b92915050565b600080805b8360ff168260ff1610156110b1576040805160208082018890528183018490528251808303840181526060909201909252805191012060009061106e90601090611342565b9050600160ff82161b841661ffff1660000361109e57600160ff82161b93909317928261109a81611284565b9350505b816110a8816112d5565b92505050611029565b505092915050565b6000602082840312156110cb57600080fd5b5035919050565b634e487b7160e01b600052602160045260246000fd5b6004811061110657634e487b7160e01b600052602160045260246000fd5b9052565b6001600160a01b038d168152602081018c905260ff8b8116604083015261ffff8b81166060840152608083018b905260a083018a9052881660c0830152861660e0820152610100810185905261018081016111696101208301866110e8565b6001600160a01b039390931661014082015261016001529a9950505050505050505050565b803560ff8116811461119f57600080fd5b919050565b600080604083850312156111b757600080fd5b823591506111c76020840161118e565b90509250929050565b6001600160a01b03891681526020810188905260ff87811660408301526060820187905261ffff86166080830152841660a082015260c08101839052610100810161121e60e08301846110e8565b9998505050505050505050565b6000806040838503121561123e57600080fd5b6112478361118e565b915060208301356001600160a01b038116811461126357600080fd5b809150509250929050565b634e487b7160e01b600052601160045260246000fd5b600060ff821660ff810361129a5761129a61126e565b60010192915050565b60ff828116828216039081111561101e5761101e61126e565b6000602082840312156112ce57600080fd5b5051919050565b6000600182016112e7576112e761126e565b5060010190565b8181038181111561101e5761101e61126e565b808202811582820484141761101e5761101e61126e565b634e487b7160e01b600052601260045260246000fd5b60008261133d5761133d611318565b500490565b60008261135157611351611318565b50069056fea2646970667358221220a600b67898b7960b666c797e79f73d238a01905409fe4e8689f1772922c7db2964736f6c634300081e0033","opcodes":"PUSH1 0x80 PUSH1 0x40 MSTORE CALLVALUE DUP1 ISZERO PUSH1 0xF JUMPI PUSH1 0x0 DUP1 REVERT JUMPDEST POP PUSH1 0x40 MLOAD PUSH2 0x1422 CODESIZE SUB DUP1 PUSH2 0x1422 DUP4 CODECOPY DUP2 ADD PUSH1 0x40 DUP2 SWAP1 MSTORE PUSH1 0x2C SWAP2 PUSH1 0x59 JUMP JUMPDEST PUSH1 0x0 DUP1 SLOAD PUSH1 0x1 PUSH1 0x1 PUSH1 0xA0 SHL SUB SWAP1 SWAP3 AND PUSH1 0x1 PUSH1 0x1 PUSH1 0xA0 SHL SUB NOT SWAP3 DUP4 AND OR SWAP1 SSTORE PUSH1 0x1 DUP1 SLOAD SWAP1 SWAP2 AND CALLER OR SWAP1 SSTORE PUSH1 0x87 JUMP JUMPDEST PUSH1 0x0 PUSH1 0x20 DUP3 DUP5 SUB SLT ISZERO PUSH1 0x6A JUMPI PUSH1 0x0 DUP1 REVERT JUMPDEST DUP2 MLOAD PUSH1 0x1 PUSH1 0x1 PUSH1 0xA0 SHL SUB DUP2 AND DUP2 EQ PUSH1 0x80 JUMPI PUSH1 0x0 DUP1 REVERT JUMPDEST SWAP4 SWAP3 POP POP POP JUMP JUMPDEST PUSH2 0x138C DUP1 PUSH2 0x96 PUSH1 0x0 CODECOPY PUSH1 0x0 RETURN INVALID PUSH1 0x80 PUSH1 0x40 MSTORE PUSH1 0x4 CALLDATASIZE LT PUSH2 0xA7 JUMPI PUSH1 0x0 CALLDATALOAD PUSH1 0xE0 SHR DUP1 PUSH4 0x8AEB5F0F GT PUSH2 0x64 JUMPI DUP1 PUSH4 0x8AEB5F0F EQ PUSH2 0x231 JUMPI DUP1 PUSH4 0x8DA5CB5B EQ PUSH2 0x251 JUMPI DUP1 PUSH4 0xA2F77BCC EQ PUSH2 0x289 JUMPI DUP1 PUSH4 0xB32FF2BE EQ PUSH2 0x315 JUMPI DUP1 PUSH4 0xDCB09D46 EQ PUSH2 0x32A JUMPI DUP1 PUSH4 0xFBFA77CF EQ PUSH2 0x33D JUMPI PUSH1 0x0 DUP1 REVERT JUMPDEST DUP1 PUSH4 0x117A5B90 EQ PUSH2 0xAC JUMPI DUP1 PUSH4 0x2E0BE39A EQ PUSH2 0x15C JUMPI DUP1 PUSH4 0x524D7DAF EQ PUSH2 0x180 JUMPI DUP1 PUSH4 0x5C7B79F5 EQ PUSH2 0x1CC JUMPI DUP1 PUSH4 0x6A146024 EQ PUSH2 0x1EE JUMPI DUP1 PUSH4 0x7FC4EDA8 EQ PUSH2 0x20A JUMPI JUMPDEST PUSH1 0x0 DUP1 REVERT JUMPDEST CALLVALUE DUP1 ISZERO PUSH2 0xB8 JUMPI PUSH1 0x0 DUP1 REVERT JUMPDEST POP PUSH2 0x13B PUSH2 0xC7 CALLDATASIZE PUSH1 0x4 PUSH2 0x10B9 JUMP JUMPDEST PUSH1 0x3 PUSH1 0x20 DUP2 SWAP1 MSTORE PUSH1 0x0 SWAP2 DUP3 MSTORE PUSH1 0x40 SWAP1 SWAP2 KECCAK256 DUP1 SLOAD PUSH1 0x1 DUP3 ADD SLOAD PUSH1 0x2 DUP4 ADD SLOAD SWAP4 DUP4 ADD SLOAD PUSH1 0x4 DUP5 ADD SLOAD PUSH1 0x5 DUP6 ADD SLOAD PUSH1 0x6 DUP7 ADD SLOAD PUSH1 0x7 DUP8 ADD SLOAD PUSH1 0x8 SWAP1 SWAP8 ADD SLOAD PUSH1 0x1 PUSH1 0x1 PUSH1 0xA0 SHL SUB SWAP7 DUP8 AND SWAP9 SWAP6 SWAP8 PUSH1 0xFF DUP1 DUP9 AND SWAP9 PUSH2 0xFFFF PUSH2 0x100 SWAP10 DUP11 SWAP1 DIV DUP2 AND SWAP10 SWAP1 DUP8 AND SWAP7 PUSH3 0x10000 SWAP1 DIV DUP4 AND SWAP6 SWAP5 SWAP3 DUP5 AND SWAP4 DIV AND SWAP1 DUP13 JUMP JUMPDEST PUSH1 0x40 MLOAD PUSH2 0x153 SWAP13 SWAP12 SWAP11 SWAP10 SWAP9 SWAP8 SWAP7 SWAP6 SWAP5 SWAP4 SWAP3 SWAP2 SWAP1 PUSH2 0x110A JUMP JUMPDEST PUSH1 0x40 MLOAD DUP1 SWAP2 SUB SWAP1 RETURN JUMPDEST CALLVALUE DUP1 ISZERO PUSH2 0x168 JUMPI PUSH1 0x0 DUP1 REVERT JUMPDEST POP PUSH2 0x172 PUSH1 0x2 SLOAD DUP2 JUMP JUMPDEST PUSH1 0x40 MLOAD SWAP1 DUP2 MSTORE PUSH1 0x20 ADD PUSH2 0x153 JUMP JUMPDEST CALLVALUE DUP1 ISZERO PUSH2 0x18C JUMPI PUSH1 0x0 DUP1 REVERT JUMPDEST POP PUSH2 0x1A0 PUSH2 0x19B CALLDATASIZE PUSH1 0x4 PUSH2 0x10B9 JUMP JUMPDEST PUSH2 0x35D JUMP JUMPDEST PUSH1 0x40 MLOAD PUSH2 0x153 SWAP5 SWAP4 SWAP3 SWAP2 SWAP1 SWAP4 ISZERO ISZERO DUP5 MSTORE PUSH1 0x20 DUP5 ADD SWAP3 SWAP1 SWAP3 MSTORE PUSH2 0xFFFF AND PUSH1 0x40 DUP4 ADD MSTORE PUSH1 0x60 DUP3 ADD MSTORE PUSH1 0x80 ADD SWAP1 JUMP JUMPDEST CALLVALUE DUP1 ISZERO PUSH2 0x1D8 JUMPI PUSH1 0x0 DUP1 REVERT JUMPDEST POP PUSH2 0x1EC PUSH2 0x1E7 CALLDATASIZE PUSH1 0x4 PUSH2 0x10B9 JUMP JUMPDEST PUSH2 0x45E JUMP JUMPDEST STOP JUMPDEST CALLVALUE DUP1 ISZERO PUSH2 0x1FA JUMPI PUSH1 0x0 DUP1 REVERT JUMPDEST POP PUSH2 0x172 PUSH8 0xDE0B6B3A7640000 DUP2 JUMP JUMPDEST CALLVALUE DUP1 ISZERO PUSH2 0x216 JUMPI PUSH1 0x0 DUP1 REVERT JUMPDEST POP PUSH2 0x21F PUSH1 0x10 DUP2 JUMP JUMPDEST PUSH1 0x40 MLOAD PUSH1 0xFF SWAP1 SWAP2 AND DUP2 MSTORE PUSH1 0x20 ADD PUSH2 0x153 JUMP JUMPDEST CALLVALUE DUP1 ISZERO PUSH2 0x23D JUMPI PUSH1 0x0 DUP1 REVERT JUMPDEST POP PUSH2 0x1EC PUSH2 0x24C CALLDATASIZE PUSH1 0x4 PUSH2 0x11A4 JUMP JUMPDEST PUSH2 0x56F JUMP JUMPDEST CALLVALUE DUP1 ISZERO PUSH2 0x25D JUMPI PUSH1 0x0 DUP1 REVERT JUMPDEST POP PUSH1 0x1 SLOAD PUSH2 0x271 SWAP1 PUSH1 0x1 PUSH1 0x1 PUSH1 0xA0 SHL SUB AND DUP2 JUMP JUMPDEST PUSH1 0x40 MLOAD PUSH1 0x1 PUSH1 0x1 PUSH1 0xA0 SHL SUB SWAP1 SWAP2 AND DUP2 MSTORE PUSH1 0x20 ADD PUSH2 0x153 JUMP JUMPDEST CALLVALUE DUP1 ISZERO PUSH2 0x295 JUMPI PUSH1 0x0 DUP1 REVERT JUMPDEST POP PUSH2 0x301 PUSH2 0x2A4 CALLDATASIZE PUSH1 0x4 PUSH2 0x10B9 JUMP JUMPDEST PUSH1 0x0 SWAP1 DUP2 MSTORE PUSH1 0x3 PUSH1 0x20 MSTORE PUSH1 0x40 SWAP1 KECCAK256 DUP1 SLOAD PUSH1 0x1 DUP3 ADD SLOAD PUSH1 0x2 DUP4 ADD SLOAD PUSH1 0x4 DUP5 ADD SLOAD PUSH1 0x5 DUP6 ADD SLOAD PUSH1 0x6 DUP7 ADD SLOAD PUSH1 0x7 SWAP1 SWAP7 ADD SLOAD PUSH1 0x1 PUSH1 0x1 PUSH1 0xA0 SHL SUB SWAP1 SWAP6 AND SWAP7 SWAP4 SWAP6 PUSH1 0xFF SWAP4 DUP5 AND SWAP6 SWAP3 SWAP5 PUSH2 0xFFFF DUP4 AND SWAP5 PUSH3 0x10000 SWAP1 SWAP4 DIV DUP4 AND SWAP4 SWAP2 SWAP3 SWAP1 SWAP2 AND SWAP1 JUMP JUMPDEST PUSH1 0x40 MLOAD PUSH2 0x153 SWAP9 SWAP8 SWAP7 SWAP6 SWAP5 SWAP4 SWAP3 SWAP2 SWAP1 PUSH2 0x11D0 JUMP JUMPDEST CALLVALUE DUP1 ISZERO PUSH2 0x321 JUMPI PUSH1 0x0 DUP1 REVERT JUMPDEST POP PUSH2 0x172 PUSH1 0xC8 DUP2 JUMP JUMPDEST PUSH2 0x172 PUSH2 0x338 CALLDATASIZE PUSH1 0x4 PUSH2 0x122B JUMP JUMPDEST PUSH2 0x8CE JUMP JUMPDEST CALLVALUE DUP1 ISZERO PUSH2 0x349 JUMPI PUSH1 0x0 DUP1 REVERT JUMPDEST POP PUSH1 0x0 SLOAD PUSH2 0x271 SWAP1 PUSH1 0x1 PUSH1 0x1 PUSH1 0xA0 SHL SUB AND DUP2 JUMP JUMPDEST PUSH1 0x0 DUP2 DUP2 MSTORE PUSH1 0x3 PUSH1 0x20 MSTORE PUSH1 0x40 DUP2 KECCAK256 DUP2 SWAP1 DUP2 SWAP1 DUP2 SWAP1 PUSH1 0x1 PUSH1 0x7 DUP3 ADD SLOAD PUSH1 0xFF AND PUSH1 0x3 DUP2 GT ISZERO PUSH2 0x38C JUMPI PUSH2 0x38C PUSH2 0x10D2 JUMP JUMPDEST EQ ISZERO DUP1 ISZERO PUSH2 0x3B3 JUMPI POP PUSH1 0x0 PUSH1 0x7 DUP3 ADD SLOAD PUSH1 0xFF AND PUSH1 0x3 DUP2 GT ISZERO PUSH2 0x3B0 JUMPI PUSH2 0x3B0 PUSH2 0x10D2 JUMP JUMPDEST EQ ISZERO JUMPDEST PUSH2 0x3F7 JUMPI PUSH1 0x40 MLOAD PUSH3 0x461BCD PUSH1 0xE5 SHL DUP2 MSTORE PUSH1 0x20 PUSH1 0x4 DUP3 ADD MSTORE PUSH1 0x10 PUSH1 0x24 DUP3 ADD MSTORE PUSH16 0x11D85B59481B9BDD081CD95D1D1B1959 PUSH1 0x82 SHL PUSH1 0x44 DUP3 ADD MSTORE PUSH1 0x64 ADD JUMPDEST PUSH1 0x40 MLOAD DUP1 SWAP2 SUB SWAP1 REVERT JUMPDEST PUSH1 0x4 DUP2 ADD SLOAD PUSH1 0x2 DUP3 ADD SLOAD PUSH1 0x3 DUP4 ADD SLOAD PUSH1 0x40 MLOAD PUSH2 0x100 SWAP1 SWAP3 DIV PUSH1 0xF0 DUP2 SWAP1 SHL PUSH1 0x1 PUSH1 0x1 PUSH1 0xF0 SHL SUB NOT AND PUSH1 0x20 DUP5 ADD MSTORE PUSH1 0x22 DUP4 ADD DUP3 SWAP1 MSTORE SWAP3 SWAP7 POP PUSH2 0xFFFF SWAP1 SWAP3 AND SWAP5 POP SWAP1 SWAP3 POP DUP5 SWAP1 PUSH1 0x42 ADD PUSH1 0x40 MLOAD PUSH1 0x20 DUP2 DUP4 SUB SUB DUP2 MSTORE SWAP1 PUSH1 0x40 MSTORE DUP1 MLOAD SWAP1 PUSH1 0x20 ADD KECCAK256 EQ SWAP5 POP POP SWAP2 SWAP4 POP SWAP2 SWAP4 JUMP JUMPDEST PUSH1 0x0 DUP2 DUP2 MSTORE PUSH1 0x3 PUSH1 0x20 MSTORE PUSH1 0x40 SWAP1 KECCAK256 PUSH1 0x1 PUSH1 0x7 DUP3 ADD SLOAD PUSH1 0xFF AND PUSH1 0x3 DUP2 GT ISZERO PUSH2 0x487 JUMPI PUSH2 0x487 PUSH2 0x10D2 JUMP JUMPDEST EQ PUSH2 0x4C6 JUMPI PUSH1 0x40 MLOAD PUSH3 0x461BCD PUSH1 0xE5 SHL DUP2 MSTORE PUSH1 0x20 PUSH1 0x4 DUP3 ADD MSTORE PUSH1 0xF PUSH1 0x24 DUP3 ADD MSTORE PUSH15 0x47616D65206E6F7420616374697665 PUSH1 0x88 SHL PUSH1 0x44 DUP3 ADD MSTORE PUSH1 0x64 ADD PUSH2 0x3EE JUMP JUMPDEST DUP1 SLOAD PUSH1 0x1 PUSH1 0x1 PUSH1 0xA0 SHL SUB AND CALLER EQ PUSH2 0x50F JUMPI PUSH1 0x40 MLOAD PUSH3 0x461BCD PUSH1 0xE5 SHL DUP2 MSTORE PUSH1 0x20 PUSH1 0x4 DUP3 ADD MSTORE PUSH1 0xD PUSH1 0x24 DUP3 ADD MSTORE PUSH13 0x4E6F7420796F75722067616D65 PUSH1 0x98 SHL PUSH1 0x44 DUP3 ADD MSTORE PUSH1 0x64 ADD PUSH2 0x3EE JUMP JUMPDEST PUSH1 0x5 DUP2 ADD SLOAD PUSH3 0x10000 SWAP1 DIV PUSH1 0xFF AND PUSH2 0x562 JUMPI PUSH1 0x40 MLOAD PUSH3 0x461BCD PUSH1 0xE5 SHL DUP2 MSTORE PUSH1 0x20 PUSH1 0x4 DUP3 ADD MSTORE PUSH1 0x16 PUSH1 0x24 DUP3 ADD MSTORE PUSH22 0x52657665616C206174206C6561737420312074696C65 PUSH1 0x50 SHL PUSH1 0x44 DUP3 ADD MSTORE PUSH1 0x64 ADD PUSH2 0x3EE JUMP JUMPDEST PUSH2 0x56B DUP3 PUSH2 0xD95 JUMP JUMPDEST POP POP JUMP JUMPDEST PUSH1 0x0 DUP3 DUP2 MSTORE PUSH1 0x3 PUSH1 0x20 MSTORE PUSH1 0x40 SWAP1 KECCAK256 PUSH1 0x1 PUSH1 0x7 DUP3 ADD SLOAD PUSH1 0xFF AND PUSH1 0x3 DUP2 GT ISZERO PUSH2 0x598 JUMPI PUSH2 0x598 PUSH2 0x10D2 JUMP JUMPDEST EQ PUSH2 0x5D7 JUMPI PUSH1 0x40 MLOAD PUSH3 0x461BCD PUSH1 0xE5 SHL DUP2 MSTORE PUSH1 0x20 PUSH1 0x4 DUP3 ADD MSTORE PUSH1 0xF PUSH1 0x24 DUP3 ADD MSTORE PUSH15 0x47616D65206E6F7420616374697665 PUSH1 0x88 SHL PUSH1 0x44 DUP3 ADD MSTORE PUSH1 0x64 ADD PUSH2 0x3EE JUMP JUMPDEST DUP1 SLOAD PUSH1 0x1 PUSH1 0x1 PUSH1 0xA0 SHL SUB AND CALLER EQ PUSH2 0x620 JUMPI PUSH1 0x40 MLOAD PUSH3 0x461BCD PUSH1 0xE5 SHL DUP2 MSTORE PUSH1 0x20 PUSH1 0x4 DUP3 ADD MSTORE PUSH1 0xD PUSH1 0x24 DUP3 ADD MSTORE PUSH13 0x4E6F7420796F75722067616D65 PUSH1 0x98 SHL PUSH1 0x44 DUP3 ADD MSTORE PUSH1 0x64 ADD PUSH2 0x3EE JUMP JUMPDEST PUSH1 0x10 PUSH1 0xFF DUP4 AND LT PUSH2 0x662 JUMPI PUSH1 0x40 MLOAD PUSH3 0x461BCD PUSH1 0xE5 SHL DUP2 MSTORE PUSH1 0x20 PUSH1 0x4 DUP3 ADD MSTORE PUSH1 0xC PUSH1 0x24 DUP3 ADD MSTORE PUSH12 0x496E76616C69642074696C65 PUSH1 0xA0 SHL PUSH1 0x44 DUP3 ADD MSTORE PUSH1 0x64 ADD PUSH2 0x3EE JUMP JUMPDEST PUSH1 0x5 DUP2 ADD SLOAD PUSH1 0x1 PUSH1 0xFF DUP5 AND SHL AND PUSH2 0xFFFF AND ISZERO PUSH2 0x6B3 JUMPI PUSH1 0x40 MLOAD PUSH3 0x461BCD PUSH1 0xE5 SHL DUP2 MSTORE PUSH1 0x20 PUSH1 0x4 DUP3 ADD MSTORE PUSH1 0x10 PUSH1 0x24 DUP3 ADD MSTORE PUSH16 0x105B1C9958591E481C995D99585B1959 PUSH1 0x82 SHL PUSH1 0x44 DUP3 ADD MSTORE PUSH1 0x64 ADD PUSH2 0x3EE JUMP JUMPDEST PUSH1 0x5 DUP2 ADD DUP1 SLOAD PUSH2 0xFFFF PUSH1 0x1 PUSH1 0xFF DUP7 AND SHL DUP2 DUP2 AND DUP3 DUP5 AND OR PUSH2 0xFFFF NOT SWAP1 SWAP4 AND SWAP3 SWAP1 SWAP3 OR SWAP1 SWAP3 SSTORE PUSH1 0x2 DUP4 ADD SLOAD PUSH2 0x100 SWAP1 DIV AND AND ISZERO DUP1 ISZERO SWAP1 PUSH2 0x7EB JUMPI PUSH1 0x7 DUP3 ADD DUP1 SLOAD PUSH1 0xFF NOT AND PUSH1 0x3 OR SWAP1 SSTORE PUSH1 0x40 DUP1 MLOAD PUSH1 0xFF DUP6 AND DUP2 MSTORE PUSH1 0x0 PUSH1 0x20 DUP3 ADD DUP2 SWAP1 MSTORE SWAP2 DUP2 ADD SWAP2 SWAP1 SWAP2 MSTORE DUP5 SWAP1 PUSH32 0x3CCFD89A70B559B187FB8ADF600211D285ECC949512B9B07A87F24BB396B27D9 SWAP1 PUSH1 0x60 ADD PUSH1 0x40 MLOAD DUP1 SWAP2 SUB SWAP1 LOG2 DUP2 SLOAD PUSH1 0x1 DUP4 ADD SLOAD PUSH1 0x40 MLOAD SWAP1 DUP2 MSTORE PUSH1 0x1 PUSH1 0x1 PUSH1 0xA0 SHL SUB SWAP1 SWAP2 AND SWAP1 DUP6 SWAP1 PUSH32 0x6DD6B233B201FF5342EB5248F0849DD9CEAC79F106942D38BB6341013BB901D5 SWAP1 PUSH1 0x20 ADD PUSH1 0x40 MLOAD DUP1 SWAP2 SUB SWAP1 LOG3 DUP2 SLOAD PUSH1 0x1 DUP4 ADD SLOAD PUSH1 0x40 DUP1 MLOAD PUSH1 0x0 DUP1 DUP3 MSTORE PUSH1 0x20 DUP3 ADD SWAP4 SWAP1 SWAP4 MSTORE SWAP1 DUP2 ADD SWAP2 SWAP1 SWAP2 MSTORE PUSH1 0x1 PUSH1 0x1 PUSH1 0xA0 SHL SUB SWAP1 SWAP2 AND SWAP1 DUP6 SWAP1 PUSH32 0xAB6752FB7B9372C3A768319AC552DDA717633AA9CAE3381F8253CFA68B8301D9 SWAP1 PUSH1 0x60 ADD PUSH1 0x40 MLOAD DUP1 SWAP2 SUB SWAP1 LOG3 PUSH2 0x8C8 JUMP JUMPDEST PUSH1 0x5 DUP3 ADD DUP1 SLOAD PUSH3 0x10000 SWAP1 DIV PUSH1 0xFF AND SWAP1 PUSH1 0x2 PUSH2 0x806 DUP4 PUSH2 0x1284 JUMP JUMPDEST DUP3 SLOAD PUSH2 0x100 SWAP3 SWAP1 SWAP3 EXP PUSH1 0xFF DUP2 DUP2 MUL NOT SWAP1 SWAP4 AND SWAP2 DUP4 AND MUL OR SWAP1 SWAP2 SSTORE PUSH1 0x5 DUP5 ADD SLOAD PUSH1 0x2 DUP6 ADD SLOAD PUSH2 0x83F SWAP4 POP PUSH3 0x10000 SWAP1 SWAP2 DIV DUP3 AND SWAP2 AND PUSH2 0xF7D JUMP JUMPDEST PUSH1 0x6 DUP4 ADD DUP2 SWAP1 SSTORE PUSH1 0x40 DUP1 MLOAD PUSH1 0xFF DUP7 AND DUP2 MSTORE PUSH1 0x1 PUSH1 0x20 DUP3 ADD MSTORE SWAP1 DUP2 ADD SWAP2 SWAP1 SWAP2 MSTORE DUP5 SWAP1 PUSH32 0x3CCFD89A70B559B187FB8ADF600211D285ECC949512B9B07A87F24BB396B27D9 SWAP1 PUSH1 0x60 ADD PUSH1 0x40 MLOAD DUP1 SWAP2 SUB SWAP1 LOG2 PUSH1 0x2 DUP3 ADD SLOAD PUSH1 0x0 SWAP1 PUSH2 0x8A3 SWAP1 PUSH1 0xFF AND PUSH1 0x10 PUSH2 0x12A3 JUMP JUMPDEST PUSH1 0x5 DUP5 ADD SLOAD SWAP1 SWAP2 POP PUSH1 0xFF DUP1 DUP4 AND PUSH3 0x10000 SWAP1 SWAP3 DIV AND LT PUSH2 0x8C6 JUMPI PUSH2 0x8C6 DUP6 PUSH2 0xD95 JUMP JUMPDEST POP JUMPDEST POP POP POP POP JUMP JUMPDEST PUSH1 0x0 DUP1 CALLVALUE GT PUSH2 0x914 JUMPI PUSH1 0x40 MLOAD PUSH3 0x461BCD PUSH1 0xE5 SHL DUP2 MSTORE PUSH1 0x20 PUSH1 0x4 DUP3 ADD MSTORE PUSH1 0x12 PUSH1 0x24 DUP3 ADD MSTORE PUSH18 0x4D7573742062657420736F6D657468696E67 PUSH1 0x70 SHL PUSH1 0x44 DUP3 ADD MSTORE PUSH1 0x64 ADD PUSH2 0x3EE JUMP JUMPDEST PUSH1 0x1 DUP4 PUSH1 0xFF AND LT ISZERO DUP1 ISZERO PUSH2 0x92C JUMPI POP PUSH1 0xC DUP4 PUSH1 0xFF AND GT ISZERO JUMPDEST PUSH2 0x966 JUMPI PUSH1 0x40 MLOAD PUSH3 0x461BCD PUSH1 0xE5 SHL DUP2 MSTORE PUSH1 0x20 PUSH1 0x4 DUP3 ADD MSTORE PUSH1 0xB PUSH1 0x24 DUP3 ADD MSTORE PUSH11 0x26B4B732B99D1018969899 PUSH1 0xA9 SHL PUSH1 0x44 DUP3 ADD MSTORE PUSH1 0x64 ADD PUSH2 0x3EE JUMP JUMPDEST PUSH1 0x0 DUP1 SLOAD SWAP1 PUSH2 0x100 EXP SWAP1 DIV PUSH1 0x1 PUSH1 0x1 PUSH1 0xA0 SHL SUB AND PUSH1 0x1 PUSH1 0x1 PUSH1 0xA0 SHL SUB AND PUSH4 0x646668B6 PUSH1 0x40 MLOAD DUP2 PUSH4 0xFFFFFFFF AND PUSH1 0xE0 SHL DUP2 MSTORE PUSH1 0x4 ADD PUSH1 0x20 PUSH1 0x40 MLOAD DUP1 DUP4 SUB DUP2 DUP7 GAS STATICCALL ISZERO DUP1 ISZERO PUSH2 0x9B7 JUMPI RETURNDATASIZE PUSH1 0x0 DUP1 RETURNDATACOPY RETURNDATASIZE PUSH1 0x0 REVERT JUMPDEST POP POP POP POP PUSH1 0x40 MLOAD RETURNDATASIZE PUSH1 0x1F NOT PUSH1 0x1F DUP3 ADD AND DUP3 ADD DUP1 PUSH1 0x40 MSTORE POP DUP2 ADD SWAP1 PUSH2 0x9DB SWAP2 SWAP1 PUSH2 0x12BC JUMP JUMPDEST CALLVALUE GT ISZERO PUSH2 0xA1C JUMPI PUSH1 0x40 MLOAD PUSH3 0x461BCD PUSH1 0xE5 SHL DUP2 MSTORE PUSH1 0x20 PUSH1 0x4 DUP3 ADD MSTORE PUSH1 0xF PUSH1 0x24 DUP3 ADD MSTORE PUSH15 0x115E18D959591CC81B585E0818995D PUSH1 0x8A SHL PUSH1 0x44 DUP3 ADD MSTORE PUSH1 0x64 ADD PUSH2 0x3EE JUMP JUMPDEST PUSH1 0x2 PUSH1 0x0 DUP2 SLOAD PUSH2 0xA2B SWAP1 PUSH2 0x12D5 JUMP JUMPDEST SWAP2 DUP3 SWAP1 SSTORE POP SWAP1 POP PUSH1 0x0 PREVRANDAO TIMESTAMP CALLER DUP5 PUSH2 0xA43 PUSH1 0x1 NUMBER PUSH2 0x12EE JUMP JUMPDEST PUSH1 0x40 DUP1 MLOAD PUSH1 0x20 DUP2 ADD SWAP7 SWAP1 SWAP7 MSTORE DUP6 ADD SWAP4 SWAP1 SWAP4 MSTORE PUSH12 0xFFFFFFFFFFFFFFFFFFFFFFFF NOT PUSH1 0x60 SWAP3 DUP4 SHL AND SWAP2 DUP5 ADD SWAP2 SWAP1 SWAP2 MSTORE PUSH1 0x74 DUP4 ADD MSTORE BLOCKHASH PUSH1 0x94 DUP3 ADD MSTORE PUSH1 0xB4 ADD PUSH1 0x40 MLOAD PUSH1 0x20 DUP2 DUP4 SUB SUB DUP2 MSTORE SWAP1 PUSH1 0x40 MSTORE DUP1 MLOAD SWAP1 PUSH1 0x20 ADD KECCAK256 SWAP1 POP PUSH1 0x0 PUSH2 0xAA2 DUP3 DUP7 PUSH2 0x1024 JUMP JUMPDEST SWAP1 POP PUSH1 0x0 DUP3 PUSH1 0x40 MLOAD PUSH1 0x20 ADD PUSH2 0xACD SWAP2 DUP2 MSTORE PUSH11 0x12D05093D3D357D4D05315 PUSH1 0xAA SHL PUSH1 0x20 DUP3 ADD MSTORE PUSH1 0x2B ADD SWAP1 JUMP JUMPDEST PUSH1 0x40 MLOAD PUSH1 0x20 DUP2 DUP4 SUB SUB DUP2 MSTORE SWAP1 PUSH1 0x40 MSTORE DUP1 MLOAD SWAP1 PUSH1 0x20 ADD KECCAK256 SWAP1 POP PUSH1 0x0 DUP3 DUP3 PUSH1 0x40 MLOAD PUSH1 0x20 ADD PUSH2 0xB12 SWAP3 SWAP2 SWAP1 PUSH1 0xF0 SWAP3 SWAP1 SWAP3 SHL PUSH1 0x1 PUSH1 0x1 PUSH1 0xF0 SHL SUB NOT AND DUP3 MSTORE PUSH1 0x2 DUP3 ADD MSTORE PUSH1 0x22 ADD SWAP1 JUMP JUMPDEST PUSH1 0x40 DUP1 MLOAD PUSH1 0x1F NOT DUP2 DUP5 SUB ADD DUP2 MSTORE DUP3 DUP3 MSTORE DUP1 MLOAD PUSH1 0x20 SWAP2 DUP3 ADD KECCAK256 PUSH2 0x180 DUP5 ADD DUP4 MSTORE CALLER DUP5 MSTORE CALLVALUE SWAP2 DUP5 ADD SWAP2 SWAP1 SWAP2 MSTORE PUSH1 0xFF DUP11 AND SWAP2 DUP4 ADD SWAP2 SWAP1 SWAP2 MSTORE PUSH2 0xFFFF DUP6 AND PUSH1 0x60 DUP4 ADD MSTORE PUSH1 0x80 DUP3 ADD DUP5 SWAP1 MSTORE PUSH1 0xA0 DUP3 ADD DUP2 SWAP1 MSTORE PUSH1 0x0 PUSH1 0xC0 DUP4 ADD DUP2 SWAP1 MSTORE PUSH1 0xE0 DUP4 ADD MSTORE PUSH8 0xDE0B6B3A7640000 PUSH2 0x100 DUP4 ADD MSTORE SWAP2 POP PUSH2 0x120 DUP2 ADD PUSH1 0x1 DUP2 MSTORE PUSH1 0x1 PUSH1 0x1 PUSH1 0xA0 SHL SUB DUP1 DUP10 AND PUSH1 0x20 DUP1 DUP5 ADD SWAP2 SWAP1 SWAP2 MSTORE TIMESTAMP PUSH1 0x40 SWAP4 DUP5 ADD MSTORE PUSH1 0x0 DUP10 DUP2 MSTORE PUSH1 0x3 DUP1 DUP4 MSTORE SWAP1 DUP5 SWAP1 KECCAK256 DUP6 MLOAD DUP2 SLOAD SWAP5 AND PUSH1 0x1 PUSH1 0x1 PUSH1 0xA0 SHL SUB NOT SWAP1 SWAP5 AND SWAP4 SWAP1 SWAP4 OR DUP4 SSTORE SWAP1 DUP5 ADD MLOAD PUSH1 0x1 DUP1 DUP5 ADD SWAP2 SWAP1 SWAP2 SSTORE SWAP3 DUP5 ADD MLOAD PUSH1 0x2 DUP4 ADD DUP1 SLOAD PUSH1 0x60 DUP8 ADD MLOAD PUSH2 0xFFFF SWAP1 DUP2 AND PUSH2 0x100 SWAP1 DUP2 MUL PUSH3 0xFFFFFF NOT SWAP4 DUP5 AND PUSH1 0xFF SWAP7 DUP8 AND OR OR SWAP1 SWAP4 SSTORE PUSH1 0x80 DUP9 ADD MLOAD DUP7 DUP7 ADD SSTORE PUSH1 0xA0 DUP9 ADD MLOAD PUSH1 0x4 DUP8 ADD SSTORE PUSH1 0xC0 DUP9 ADD MLOAD PUSH1 0x5 DUP8 ADD DUP1 SLOAD PUSH1 0xE0 DUP12 ADD MLOAD SWAP1 SWAP7 AND PUSH3 0x10000 MUL SWAP6 SWAP1 SWAP4 AND SWAP2 AND OR SWAP3 SWAP1 SWAP3 OR SWAP1 SWAP2 SSTORE DUP5 ADD MLOAD PUSH1 0x6 DUP4 ADD SSTORE PUSH2 0x120 DUP5 ADD MLOAD PUSH1 0x7 DUP4 ADD DUP1 SLOAD SWAP4 SWAP5 SWAP2 SWAP4 SWAP1 SWAP3 PUSH1 0xFF NOT SWAP2 SWAP1 SWAP2 AND SWAP2 SWAP1 DUP5 SWAP1 DUP2 GT ISZERO PUSH2 0xC6F JUMPI PUSH2 0xC6F PUSH2 0x10D2 JUMP JUMPDEST MUL OR SWAP1 SSTORE POP PUSH2 0x140 DUP3 ADD MLOAD PUSH1 0x7 DUP3 ADD DUP1 SLOAD PUSH2 0x100 PUSH1 0x1 PUSH1 0xA8 SHL SUB NOT AND PUSH2 0x100 PUSH1 0x1 PUSH1 0x1 PUSH1 0xA0 SHL SUB SWAP4 DUP5 AND MUL OR SWAP1 SSTORE PUSH2 0x160 SWAP1 SWAP3 ADD MLOAD PUSH1 0x8 SWAP1 SWAP2 ADD SSTORE PUSH1 0x0 DUP1 SLOAD PUSH1 0x40 DUP1 MLOAD PUSH4 0x10422E0D PUSH1 0xE1 SHL DUP2 MSTORE SWAP1 MLOAD SWAP2 SWAP1 SWAP4 AND SWAP3 PUSH4 0x20845C1A SWAP3 CALLVALUE SWAP3 PUSH1 0x4 DUP1 DUP5 ADD SWAP4 DUP3 SWAP1 SUB ADD DUP2 DUP6 DUP9 DUP1 EXTCODESIZE ISZERO DUP1 ISZERO PUSH2 0xCE6 JUMPI PUSH1 0x0 DUP1 REVERT JUMPDEST POP GAS CALL ISZERO DUP1 ISZERO PUSH2 0xCFA JUMPI RETURNDATASIZE PUSH1 0x0 DUP1 RETURNDATACOPY RETURNDATASIZE PUSH1 0x0 REVERT JUMPDEST POP POP PUSH1 0x40 DUP1 MLOAD CALLVALUE DUP2 MSTORE PUSH1 0xFF DUP13 AND PUSH1 0x20 DUP3 ADD MSTORE SWAP1 DUP2 ADD DUP6 SWAP1 MSTORE CALLER SWAP4 POP DUP9 SWAP3 POP PUSH32 0xB8C831602DB82CFAD7E6F8AB684B76C502E97D9E96E6DB0025C15107B13C9B3A SWAP2 POP PUSH1 0x60 ADD PUSH1 0x40 MLOAD DUP1 SWAP2 SUB SWAP1 LOG3 PUSH1 0x40 DUP1 MLOAD CALLVALUE DUP2 MSTORE PUSH1 0x1 PUSH1 0x1 PUSH1 0xA0 SHL SUB DUP9 AND PUSH1 0x20 DUP3 ADD MSTORE CALLER SWAP2 DUP8 SWAP2 PUSH32 0x8F297A367476F4D40BC7E8D7EC84EE23EC7D7B2FB8233CB9B737B17004EB6BF3 SWAP2 ADD PUSH1 0x40 MLOAD DUP1 SWAP2 SUB SWAP1 LOG3 POP POP POP POP SWAP3 SWAP2 POP POP JUMP JUMPDEST PUSH1 0x0 DUP2 DUP2 MSTORE PUSH1 0x3 PUSH1 0x20 MSTORE PUSH1 0x40 DUP2 KECCAK256 PUSH1 0x7 DUP2 ADD DUP1 SLOAD PUSH1 0xFF NOT AND PUSH1 0x2 OR SWAP1 SSTORE PUSH1 0x6 DUP2 ADD SLOAD PUSH1 0x1 DUP3 ADD SLOAD SWAP2 SWAP3 SWAP2 PUSH8 0xDE0B6B3A7640000 SWAP2 PUSH2 0xDD2 SWAP2 PUSH2 0x1301 JUMP JUMPDEST PUSH2 0xDDC SWAP2 SWAP1 PUSH2 0x132E JUMP JUMPDEST SWAP1 POP PUSH1 0x0 DUP1 PUSH1 0x0 SWAP1 SLOAD SWAP1 PUSH2 0x100 EXP SWAP1 DIV PUSH1 0x1 PUSH1 0x1 PUSH1 0xA0 SHL SUB AND PUSH1 0x1 PUSH1 0x1 PUSH1 0xA0 SHL SUB AND PUSH4 0x2D9A37D3 PUSH1 0x40 MLOAD DUP2 PUSH4 0xFFFFFFFF AND PUSH1 0xE0 SHL DUP2 MSTORE PUSH1 0x4 ADD PUSH1 0x20 PUSH1 0x40 MLOAD DUP1 DUP4 SUB DUP2 DUP7 GAS STATICCALL ISZERO DUP1 ISZERO PUSH2 0xE32 JUMPI RETURNDATASIZE PUSH1 0x0 DUP1 RETURNDATACOPY RETURNDATASIZE PUSH1 0x0 REVERT JUMPDEST POP POP POP POP PUSH1 0x40 MLOAD RETURNDATASIZE PUSH1 0x1F NOT PUSH1 0x1F DUP3 ADD AND DUP3 ADD DUP1 PUSH1 0x40 MSTORE POP DUP2 ADD SWAP1 PUSH2 0xE56 SWAP2 SWAP1 PUSH2 0x12BC JUMP JUMPDEST SWAP1 POP DUP1 DUP3 GT ISZERO PUSH2 0xE64 JUMPI DUP1 SWAP2 POP JUMPDEST PUSH1 0x0 SLOAD DUP4 SLOAD PUSH1 0x40 MLOAD PUSH4 0x117DE2FD PUSH1 0xE0 SHL DUP2 MSTORE PUSH1 0x1 PUSH1 0x1 PUSH1 0xA0 SHL SUB SWAP2 DUP3 AND PUSH1 0x4 DUP3 ADD MSTORE PUSH1 0x24 DUP2 ADD DUP6 SWAP1 MSTORE SWAP2 AND SWAP1 PUSH4 0x117DE2FD SWAP1 PUSH1 0x44 ADD PUSH1 0x0 PUSH1 0x40 MLOAD DUP1 DUP4 SUB DUP2 PUSH1 0x0 DUP8 DUP1 EXTCODESIZE ISZERO DUP1 ISZERO PUSH2 0xEB3 JUMPI PUSH1 0x0 DUP1 REVERT JUMPDEST POP GAS CALL ISZERO DUP1 ISZERO PUSH2 0xEC7 JUMPI RETURNDATASIZE PUSH1 0x0 DUP1 RETURNDATACOPY RETURNDATASIZE PUSH1 0x0 REVERT JUMPDEST POP POP DUP5 SLOAD PUSH1 0x6 DUP7 ADD SLOAD PUSH1 0x40 MLOAD PUSH1 0x1 PUSH1 0x1 PUSH1 0xA0 SHL SUB SWAP1 SWAP3 AND SWAP4 POP DUP8 SWAP3 POP PUSH32 0xF84628F2E60BDBEBA9F69B77BC46E521674525A65D95C82A999A4EC15E8B5212 SWAP2 PUSH2 0xF17 SWAP2 DUP8 DUP3 MSTORE PUSH1 0x20 DUP3 ADD MSTORE PUSH1 0x40 ADD SWAP1 JUMP JUMPDEST PUSH1 0x40 MLOAD DUP1 SWAP2 SUB SWAP1 LOG3 DUP3 SLOAD PUSH1 0x6 DUP5 ADD SLOAD PUSH1 0x40 DUP1 MLOAD PUSH1 0x1 DUP2 MSTORE PUSH1 0x20 DUP2 ADD DUP7 SWAP1 MSTORE SWAP1 DUP2 ADD SWAP2 SWAP1 SWAP2 MSTORE PUSH1 0x1 PUSH1 0x1 PUSH1 0xA0 SHL SUB SWAP1 SWAP2 AND SWAP1 DUP6 SWAP1 PUSH32 0xAB6752FB7B9372C3A768319AC552DDA717633AA9CAE3381F8253CFA68B8301D9 SWAP1 PUSH1 0x60 ADD PUSH1 0x40 MLOAD DUP1 SWAP2 SUB SWAP1 LOG3 POP POP POP POP JUMP JUMPDEST PUSH1 0x0 PUSH8 0xDE0B6B3A7640000 DUP2 JUMPDEST DUP5 PUSH1 0xFF AND DUP2 PUSH1 0xFF AND LT ISZERO PUSH2 0xFF7 JUMPI PUSH1 0x0 PUSH2 0xFA5 DUP3 PUSH1 0x10 PUSH2 0x12A3 JUMP JUMPDEST PUSH1 0xFF AND SWAP1 POP PUSH1 0x0 DUP3 PUSH2 0xFB8 DUP8 PUSH1 0x10 PUSH2 0x12A3 JUMP JUMPDEST PUSH2 0xFC2 SWAP2 SWAP1 PUSH2 0x12A3 JUMP JUMPDEST PUSH1 0xFF AND SWAP1 POP DUP1 PUSH1 0x0 SUB PUSH2 0xFD6 JUMPI POP POP PUSH2 0xFF7 JUMP JUMPDEST DUP1 PUSH2 0xFE1 DUP4 DUP7 PUSH2 0x1301 JUMP JUMPDEST PUSH2 0xFEB SWAP2 SWAP1 PUSH2 0x132E JUMP JUMPDEST SWAP4 POP POP POP PUSH1 0x1 ADD PUSH2 0xF8A JUMP JUMPDEST POP PUSH2 0x2710 PUSH2 0x1006 PUSH1 0xC8 DUP3 PUSH2 0x12EE JUMP JUMPDEST PUSH2 0x1010 SWAP1 DUP4 PUSH2 0x1301 JUMP JUMPDEST PUSH2 0x101A SWAP2 SWAP1 PUSH2 0x132E JUMP JUMPDEST SWAP2 POP POP JUMPDEST SWAP3 SWAP2 POP POP JUMP JUMPDEST PUSH1 0x0 DUP1 DUP1 JUMPDEST DUP4 PUSH1 0xFF AND DUP3 PUSH1 0xFF AND LT ISZERO PUSH2 0x10B1 JUMPI PUSH1 0x40 DUP1 MLOAD PUSH1 0x20 DUP1 DUP3 ADD DUP9 SWAP1 MSTORE DUP2 DUP4 ADD DUP5 SWAP1 MSTORE DUP3 MLOAD DUP1 DUP4 SUB DUP5 ADD DUP2 MSTORE PUSH1 0x60 SWAP1 SWAP3 ADD SWAP1 SWAP3 MSTORE DUP1 MLOAD SWAP2 ADD KECCAK256 PUSH1 0x0 SWAP1 PUSH2 0x106E SWAP1 PUSH1 0x10 SWAP1 PUSH2 0x1342 JUMP JUMPDEST SWAP1 POP PUSH1 0x1 PUSH1 0xFF DUP3 AND SHL DUP5 AND PUSH2 0xFFFF AND PUSH1 0x0 SUB PUSH2 0x109E JUMPI PUSH1 0x1 PUSH1 0xFF DUP3 AND SHL SWAP4 SWAP1 SWAP4 OR SWAP3 DUP3 PUSH2 0x109A DUP2 PUSH2 0x1284 JUMP JUMPDEST SWAP4 POP POP JUMPDEST DUP2 PUSH2 0x10A8 DUP2 PUSH2 0x12D5 JUMP JUMPDEST SWAP3 POP POP POP PUSH2 0x1029 JUMP JUMPDEST POP POP SWAP3 SWAP2 POP POP JUMP JUMPDEST PUSH1 0x0 PUSH1 0x20 DUP3 DUP5 SUB SLT ISZERO PUSH2 0x10CB JUMPI PUSH1 0x0 DUP1 REVERT JUMPDEST POP CALLDATALOAD SWAP2 SWAP1 POP JUMP JUMPDEST PUSH4 0x4E487B71 PUSH1 0xE0 SHL PUSH1 0x0 MSTORE PUSH1 0x21 PUSH1 0x4 MSTORE PUSH1 0x24 PUSH1 0x0 REVERT JUMPDEST PUSH1 0x4 DUP2 LT PUSH2 0x1106 JUMPI PUSH4 0x4E487B71 PUSH1 0xE0 SHL PUSH1 0x0 MSTORE PUSH1 0x21 PUSH1 0x4 MSTORE PUSH1 0x24 PUSH1 0x0 REVERT JUMPDEST SWAP1 MSTORE JUMP JUMPDEST PUSH1 0x1 PUSH1 0x1 PUSH1 0xA0 SHL SUB DUP14 AND DUP2 MSTORE PUSH1 0x20 DUP2 ADD DUP13 SWAP1 MSTORE PUSH1 0xFF DUP12 DUP2 AND PUSH1 0x40 DUP4 ADD MSTORE PUSH2 0xFFFF DUP12 DUP2 AND PUSH1 0x60 DUP5 ADD MSTORE PUSH1 0x80 DUP4 ADD DUP12 SWAP1 MSTORE PUSH1 0xA0 DUP4 ADD DUP11 SWAP1 MSTORE DUP9 AND PUSH1 0xC0 DUP4 ADD MSTORE DUP7 AND PUSH1 0xE0 DUP3 ADD MSTORE PUSH2 0x100 DUP2 ADD DUP6 SWAP1 MSTORE PUSH2 0x180 DUP2 ADD PUSH2 0x1169 PUSH2 0x120 DUP4 ADD DUP7 PUSH2 0x10E8 JUMP JUMPDEST PUSH1 0x1 PUSH1 0x1 PUSH1 0xA0 SHL SUB SWAP4 SWAP1 SWAP4 AND PUSH2 0x140 DUP3 ADD MSTORE PUSH2 0x160 ADD MSTORE SWAP11 SWAP10 POP POP POP POP POP POP POP POP POP POP JUMP JUMPDEST DUP1 CALLDATALOAD PUSH1 0xFF DUP2 AND DUP2 EQ PUSH2 0x119F JUMPI PUSH1 0x0 DUP1 REVERT JUMPDEST SWAP2 SWAP1 POP JUMP JUMPDEST PUSH1 0x0 DUP1 PUSH1 0x40 DUP4 DUP6 SUB SLT ISZERO PUSH2 0x11B7 JUMPI PUSH1 0x0 DUP1 REVERT JUMPDEST DUP3 CALLDATALOAD SWAP2 POP PUSH2 0x11C7 PUSH1 0x20 DUP5 ADD PUSH2 0x118E JUMP JUMPDEST SWAP1 POP SWAP3 POP SWAP3 SWAP1 POP JUMP JUMPDEST PUSH1 0x1 PUSH1 0x1 PUSH1 0xA0 SHL SUB DUP10 AND DUP2 MSTORE PUSH1 0x20 DUP2 ADD DUP9 SWAP1 MSTORE PUSH1 0xFF DUP8 DUP2 AND PUSH1 0x40 DUP4 ADD MSTORE PUSH1 0x60 DUP3 ADD DUP8 SWAP1 MSTORE PUSH2 0xFFFF DUP7 AND PUSH1 0x80 DUP4 ADD MSTORE DUP5 AND PUSH1 0xA0 DUP3 ADD MSTORE PUSH1 0xC0 DUP2 ADD DUP4 SWAP1 MSTORE PUSH2 0x100 DUP2 ADD PUSH2 0x121E PUSH1 0xE0 DUP4 ADD DUP5 PUSH2 0x10E8 JUMP JUMPDEST SWAP10 SWAP9 POP POP POP POP POP POP POP POP POP JUMP JUMPDEST PUSH1 0x0 DUP1 PUSH1 0x40 DUP4 DUP6 SUB SLT ISZERO PUSH2 0x123E JUMPI PUSH1 0x0 DUP1 REVERT JUMPDEST PUSH2 0x1247 DUP4 PUSH2 0x118E JUMP JUMPDEST SWAP2 POP PUSH1 0x20 DUP4 ADD CALLDATALOAD PUSH1 0x1 PUSH1 0x1 PUSH1 0xA0 SHL SUB DUP2 AND DUP2 EQ PUSH2 0x1263 JUMPI PUSH1 0x0 DUP1 REVERT JUMPDEST DUP1 SWAP2 POP POP SWAP3 POP SWAP3 SWAP1 POP JUMP JUMPDEST PUSH4 0x4E487B71 PUSH1 0xE0 SHL PUSH1 0x0 MSTORE PUSH1 0x11 PUSH1 0x4 MSTORE PUSH1 0x24 PUSH1 0x0 REVERT JUMPDEST PUSH1 0x0 PUSH1 0xFF DUP3 AND PUSH1 0xFF DUP2 SUB PUSH2 0x129A JUMPI PUSH2 0x129A PUSH2 0x126E JUMP JUMPDEST PUSH1 0x1 ADD SWAP3 SWAP2 POP POP JUMP JUMPDEST PUSH1 0xFF DUP3 DUP2 AND DUP3 DUP3 AND SUB SWAP1 DUP2 GT ISZERO PUSH2 0x101E JUMPI PUSH2 0x101E PUSH2 0x126E JUMP JUMPDEST PUSH1 0x0 PUSH1 0x20 DUP3 DUP5 SUB SLT ISZERO PUSH2 0x12CE JUMPI PUSH1 0x0 DUP1 REVERT JUMPDEST POP MLOAD SWAP2 SWAP1 POP JUMP JUMPDEST PUSH1 0x0 PUSH1 0x1 DUP3 ADD PUSH2 0x12E7 JUMPI PUSH2 0x12E7 PUSH2 0x126E JUMP JUMPDEST POP PUSH1 0x1 ADD SWAP1 JUMP JUMPDEST DUP2 DUP2 SUB DUP2 DUP2 GT ISZERO PUSH2 0x101E JUMPI PUSH2 0x101E PUSH2 0x126E JUMP JUMPDEST DUP1 DUP3 MUL DUP2 ISZERO DUP3 DUP3 DIV DUP5 EQ OR PUSH2 0x101E JUMPI PUSH2 0x101E PUSH2 0x126E JUMP JUMPDEST PUSH4 0x4E487B71 PUSH1 0xE0 SHL PUSH1 0x0 MSTORE PUSH1 0x12 PUSH1 0x4 MSTORE PUSH1 0x24 PUSH1 0x0 REVERT JUMPDEST PUSH1 0x0 DUP3 PUSH2 0x133D JUMPI PUSH2 0x133D PUSH2 0x1318 JUMP JUMPDEST POP DIV SWAP1 JUMP JUMPDEST PUSH1 0x0 DUP3 PUSH2 0x1351 JUMPI PUSH2 0x1351 PUSH2 0x1318 JUMP JUMPDEST POP MOD SWAP1 JUMP INVALID LOG2 PUSH5 0x6970667358 0x22 SLT KECCAK256 0xA6 STOP 0xB6 PUSH25 0x98B7960B666C797E79F73D238A01905409FE4E8689F1772922 0xC7 0xDB 0x29 PUSH5 0x736F6C6343 STOP ADDMOD 0x1E STOP CALLER "},"methodIdentifiers":{"GRID_SIZE()":"7fc4eda8","HOUSE_EDGE_BPS()":"b32ff2be","WAD()":"6a146024","cashOut(uint256)":"5c7b79f5","gameCounter()":"2e0be39a","games(uint256)":"117a5b90","getGame(uint256)":"a2f77bcc","owner()":"8da5cb5b","revealTile(uint256,uint8)":"8aeb5f0f","startGame(uint8,address)":"dcb09d46","vault()":"fbfa77cf","verifyGame(uint256)":"524d7daf"}}}}}