{
  "_format": "hh-sol-artifact-1",
  "contractName": "ReactiveWhaleAlert",
  "sourceName": "contracts/ReactiveWhaleAlert.sol",
  "abi": [
    {
      "inputs": [
        {
          "internalType": "address",
          "name": "_vault",
          "type": "address"
        },
        {
          "internalType": "address",
          "name": "_riskGuardian",
          "type": "address"
        }
      ],
      "stateMutability": "nonpayable",
      "type": "constructor"
    },
    {
      "inputs": [],
      "name": "OnlyReactivityPrecompile",
      "type": "error"
    },
    {
      "anonymous": false,
      "inputs": [
        {
          "indexed": true,
          "internalType": "address",
          "name": "player",
          "type": "address"
        },
        {
          "indexed": false,
          "internalType": "uint256",
          "name": "amount",
          "type": "uint256"
        }
      ],
      "name": "RiskGuardianNotified",
      "type": "event"
    },
    {
      "anonymous": false,
      "inputs": [
        {
          "indexed": true,
          "internalType": "address",
          "name": "player",
          "type": "address"
        },
        {
          "indexed": false,
          "internalType": "uint256",
          "name": "amount",
          "type": "uint256"
        },
        {
          "indexed": false,
          "internalType": "uint256",
          "name": "vaultBalance",
          "type": "uint256"
        },
        {
          "indexed": false,
          "internalType": "uint256",
          "name": "percentBps",
          "type": "uint256"
        },
        {
          "indexed": true,
          "internalType": "uint256",
          "name": "blockNumber",
          "type": "uint256"
        }
      ],
      "name": "WhaleDetected",
      "type": "event"
    },
    {
      "inputs": [],
      "name": "WHALE_THRESHOLD_BPS",
      "outputs": [
        {
          "internalType": "uint256",
          "name": "",
          "type": "uint256"
        }
      ],
      "stateMutability": "view",
      "type": "function"
    },
    {
      "inputs": [
        {
          "internalType": "uint256",
          "name": "count",
          "type": "uint256"
        }
      ],
      "name": "getRecentWhaleEvents",
      "outputs": [
        {
          "components": [
            {
              "internalType": "address",
              "name": "player",
              "type": "address"
            },
            {
              "internalType": "uint256",
              "name": "amount",
              "type": "uint256"
            },
            {
              "internalType": "uint256",
              "name": "vaultBalance",
              "type": "uint256"
            },
            {
              "internalType": "uint256",
              "name": "percentOfVault",
              "type": "uint256"
            },
            {
              "internalType": "uint256",
              "name": "timestamp",
              "type": "uint256"
            },
            {
              "internalType": "uint256",
              "name": "blockNumber",
              "type": "uint256"
            }
          ],
          "internalType": "struct ReactiveWhaleAlert.WhaleEvent[]",
          "name": "",
          "type": "tuple[]"
        }
      ],
      "stateMutability": "view",
      "type": "function"
    },
    {
      "inputs": [],
      "name": "getWhaleEventsCount",
      "outputs": [
        {
          "internalType": "uint256",
          "name": "",
          "type": "uint256"
        }
      ],
      "stateMutability": "view",
      "type": "function"
    },
    {
      "inputs": [
        {
          "internalType": "address",
          "name": "emitter",
          "type": "address"
        },
        {
          "internalType": "bytes32[]",
          "name": "eventTopics",
          "type": "bytes32[]"
        },
        {
          "internalType": "bytes",
          "name": "data",
          "type": "bytes"
        }
      ],
      "name": "onEvent",
      "outputs": [],
      "stateMutability": "nonpayable",
      "type": "function"
    },
    {
      "inputs": [],
      "name": "owner",
      "outputs": [
        {
          "internalType": "address",
          "name": "",
          "type": "address"
        }
      ],
      "stateMutability": "view",
      "type": "function"
    },
    {
      "inputs": [],
      "name": "riskGuardian",
      "outputs": [
        {
          "internalType": "contract ReactiveRiskGuardian",
          "name": "",
          "type": "address"
        }
      ],
      "stateMutability": "view",
      "type": "function"
    },
    {
      "inputs": [
        {
          "internalType": "bytes4",
          "name": "interfaceId",
          "type": "bytes4"
        }
      ],
      "name": "supportsInterface",
      "outputs": [
        {
          "internalType": "bool",
          "name": "",
          "type": "bool"
        }
      ],
      "stateMutability": "pure",
      "type": "function"
    },
    {
      "inputs": [],
      "name": "totalWhaleAlerts",
      "outputs": [
        {
          "internalType": "uint256",
          "name": "",
          "type": "uint256"
        }
      ],
      "stateMutability": "view",
      "type": "function"
    },
    {
      "inputs": [],
      "name": "vault",
      "outputs": [
        {
          "internalType": "contract KaboomVault",
          "name": "",
          "type": "address"
        }
      ],
      "stateMutability": "view",
      "type": "function"
    },
    {
      "inputs": [
        {
          "internalType": "address",
          "name": "",
          "type": "address"
        }
      ],
      "name": "whaleAlertCount",
      "outputs": [
        {
          "internalType": "uint256",
          "name": "",
          "type": "uint256"
        }
      ],
      "stateMutability": "view",
      "type": "function"
    },
    {
      "inputs": [
        {
          "internalType": "uint256",
          "name": "",
          "type": "uint256"
        }
      ],
      "name": "whaleEvents",
      "outputs": [
        {
          "internalType": "address",
          "name": "player",
          "type": "address"
        },
        {
          "internalType": "uint256",
          "name": "amount",
          "type": "uint256"
        },
        {
          "internalType": "uint256",
          "name": "vaultBalance",
          "type": "uint256"
        },
        {
          "internalType": "uint256",
          "name": "percentOfVault",
          "type": "uint256"
        },
        {
          "internalType": "uint256",
          "name": "timestamp",
          "type": "uint256"
        },
        {
          "internalType": "uint256",
          "name": "blockNumber",
          "type": "uint256"
        }
      ],
      "stateMutability": "view",
      "type": "function"
    }
  ],
  "bytecode": "0x6080604052348015600f57600080fd5b50604051610bc2380380610bc2833981016040819052602c916087565b600080546001600160a01b039384166001600160a01b031991821617909155600180549290931691811691909117909155600280549091163317905560b5565b80516001600160a01b0381168114608257600080fd5b919050565b60008060408385031215609957600080fd5b60a083606c565b915060ac60208401606c565b90509250929050565b610afe806100c46000396000f3fe608060405234801561001057600080fd5b50600436106100a95760003560e01c806353edf33d1161007157806353edf33d146101995780638da5cb5b146101ae578063b753b55d146101c1578063bbe7ea4c146101c9578063c93a2267146101d2578063fbfa77cf146101db57600080fd5b806301ffc9a7146100ae57806304f225e2146100d657806311abcd00146101015780633b40e5241461012f578063481dab0a14610179575b600080fd5b6100c16100bc3660046107bd565b6101ee565b60405190151581526020015b60405180910390f35b6001546100e9906001600160a01b031681565b6040516001600160a01b0390911681526020016100cd565b61012161010f366004610806565b60056020526000908152604090205481565b6040519081526020016100cd565b61014261013d366004610823565b610225565b604080516001600160a01b0390971687526020870195909552938501929092526060840152608083015260a082015260c0016100cd565b61018c610187366004610823565b610275565b6040516100cd919061083c565b6101ac6101a7366004610908565b6103d7565b005b6002546100e9906001600160a01b031681565b600354610121565b61012160045481565b6101216101f481565b6000546100e9906001600160a01b031681565b60006301ffc9a760e01b6001600160e01b03198316148061021f57506353edf33d60e01b6001600160e01b03198316145b92915050565b6003818154811061023557600080fd5b60009182526020909120600690910201805460018201546002830154600384015460048501546005909501546001600160a01b0390941695509193909286565b60035460609080831115610287578092505b60008367ffffffffffffffff8111156102a2576102a26109c5565b60405190808252806020026020018201604052801561031557816020015b6103026040518060c0016040528060006001600160a01b0316815260200160008152602001600081526020016000815260200160008152602001600081525090565b8152602001906001900390816102c05790505b50905060005b848110156103cf5760038161033087866109f1565b61033a9190610a04565b8154811061034a5761034a610a17565b60009182526020918290206040805160c081018252600690930290910180546001600160a01b03168352600181015493830193909352600283015490820152600382015460608201526004820154608082015260059091015460a082015282518390839081106103bc576103bc610a17565b602090810291909101015260010161031b565b509392505050565b33610100146103f95760405163191fbb7560e01b815260040160405180910390fd5b610406858585858561040d565b5050505050565b7f8f297a367476f4d40bc7e8d7ec84ee23ec7d7b2fb8233cb9b737b17004eb6bf380858560008161044057610440610a17565b905060200201350361048b5760008585600281811061046157610461610a17565b602002919091013591506000905061047b84860186610a2d565b5090506104888282610493565b50505b505050505050565b60008060009054906101000a90046001600160a01b03166001600160a01b03166312065fe06040518163ffffffff1660e01b8152600401602060405180830381865afa1580156104e7573d6000803e3d6000fd5b505050506040513d601f19601f8201168201806040525081019061050b9190610a5d565b90508060000361051a57505050565b60008161052984612710610a76565b6105339190610a8d565b90506101f481106107b7576004805490600061054e83610aaf565b90915550506001600160a01b038416600090815260056020526040812080549161057783610aaf565b90915550506040805160c0810182526001600160a01b038681168083526020808401888152848601888152606080870189815242608089019081524360a08a01818152600380546001810182556000919091528b517fc2575a0e9e593c00f959f8c92f12db2869c3395a3b0502d05e2516446f71f85b600690920291820180546001600160a01b03191691909c1617909a5595517fc2575a0e9e593c00f959f8c92f12db2869c3395a3b0502d05e2516446f71f85c8a015593517fc2575a0e9e593c00f959f8c92f12db2869c3395a3b0502d05e2516446f71f85d89015590517fc2575a0e9e593c00f959f8c92f12db2869c3395a3b0502d05e2516446f71f85e880155517fc2575a0e9e593c00f959f8c92f12db2869c3395a3b0502d05e2516446f71f85f87015591517fc2575a0e9e593c00f959f8c92f12db2869c3395a3b0502d05e2516446f71f8609095019490945585518981529182018890529481018690529293919290917f4089924983b36e35f290343de39d25833fbb9573446a05e920707a6aa62f1981910160405180910390a36001546040516354fa612f60e11b81526001600160a01b038781166004830152602482018790529091169063a9f4c25e90604401600060405180830381600087803b15801561075a57600080fd5b505af115801561076e573d6000803e3d6000fd5b50505050846001600160a01b03167f1e951a5d445a612bec4e29f1366f430a951ad2ff25f97b18238b257129828bee856040516107ad91815260200190565b60405180910390a2505b50505050565b6000602082840312156107cf57600080fd5b81356001600160e01b0319811681146107e757600080fd5b9392505050565b6001600160a01b038116811461080357600080fd5b50565b60006020828403121561081857600080fd5b81356107e7816107ee565b60006020828403121561083557600080fd5b5035919050565b602080825282518282018190526000918401906040840190835b818110156108b457835180516001600160a01b031684526020808201518186015260408083015190860152606080830151908601526080808301519086015260a091820151918501919091529093019260c090920191600101610856565b509095945050505050565b60008083601f8401126108d157600080fd5b50813567ffffffffffffffff8111156108e957600080fd5b60208301915083602082850101111561090157600080fd5b9250929050565b60008060008060006060868803121561092057600080fd5b853561092b816107ee565b9450602086013567ffffffffffffffff81111561094757600080fd5b8601601f8101881361095857600080fd5b803567ffffffffffffffff81111561096f57600080fd5b8860208260051b840101111561098457600080fd5b60209190910194509250604086013567ffffffffffffffff8111156109a857600080fd5b6109b4888289016108bf565b969995985093965092949392505050565b634e487b7160e01b600052604160045260246000fd5b634e487b7160e01b600052601160045260246000fd5b8181038181111561021f5761021f6109db565b8082018082111561021f5761021f6109db565b634e487b7160e01b600052603260045260246000fd5b60008060408385031215610a4057600080fd5b823591506020830135610a52816107ee565b809150509250929050565b600060208284031215610a6f57600080fd5b5051919050565b808202811582820484141761021f5761021f6109db565b600082610aaa57634e487b7160e01b600052601260045260246000fd5b500490565b600060018201610ac157610ac16109db565b506001019056fea2646970667358221220ce59d8ebbe7f4dcbdcd21c11952b0ecee3ce5e6a589658bc4e99e7493dd2495f64736f6c634300081e0033",
  "linkReferences": {},
  "deployedLinkReferences": {}
}