{
  "_format": "hh-sol-artifact-1",
  "contractName": "ReactiveRiskGuardian",
  "sourceName": "contracts/ReactiveRiskGuardian.sol",
  "abi": [
    {
      "inputs": [
        {
          "internalType": "address",
          "name": "_vault",
          "type": "address"
        }
      ],
      "stateMutability": "nonpayable",
      "type": "constructor"
    },
    {
      "inputs": [],
      "name": "OnlyReactivityPrecompile",
      "type": "error"
    },
    {
      "anonymous": false,
      "inputs": [
        {
          "indexed": false,
          "internalType": "uint256",
          "name": "gameId",
          "type": "uint256"
        },
        {
          "indexed": false,
          "internalType": "bool",
          "name": "won",
          "type": "bool"
        },
        {
          "indexed": false,
          "internalType": "uint256",
          "name": "healthPercent",
          "type": "uint256"
        }
      ],
      "name": "GuardianTriggered",
      "type": "event"
    },
    {
      "anonymous": false,
      "inputs": [
        {
          "indexed": false,
          "internalType": "enum ReactiveRiskGuardian.RiskLevel",
          "name": "level",
          "type": "uint8"
        },
        {
          "indexed": false,
          "internalType": "uint256",
          "name": "healthPercent",
          "type": "uint256"
        },
        {
          "indexed": false,
          "internalType": "uint256",
          "name": "newMaxBetPercent",
          "type": "uint256"
        }
      ],
      "name": "RiskAdjusted",
      "type": "event"
    },
    {
      "anonymous": false,
      "inputs": [
        {
          "indexed": true,
          "internalType": "address",
          "name": "player",
          "type": "address"
        },
        {
          "indexed": false,
          "internalType": "uint256",
          "name": "amount",
          "type": "uint256"
        }
      ],
      "name": "WhaleActivityFlagged",
      "type": "event"
    },
    {
      "inputs": [],
      "name": "CAUTION_THRESHOLD",
      "outputs": [
        {
          "internalType": "uint256",
          "name": "",
          "type": "uint256"
        }
      ],
      "stateMutability": "view",
      "type": "function"
    },
    {
      "inputs": [],
      "name": "EMERGENCY_THRESHOLD",
      "outputs": [
        {
          "internalType": "uint256",
          "name": "",
          "type": "uint256"
        }
      ],
      "stateMutability": "view",
      "type": "function"
    },
    {
      "inputs": [],
      "name": "HEALTHY_THRESHOLD",
      "outputs": [
        {
          "internalType": "uint256",
          "name": "",
          "type": "uint256"
        }
      ],
      "stateMutability": "view",
      "type": "function"
    },
    {
      "inputs": [],
      "name": "currentRisk",
      "outputs": [
        {
          "internalType": "enum ReactiveRiskGuardian.RiskLevel",
          "name": "",
          "type": "uint8"
        }
      ],
      "stateMutability": "view",
      "type": "function"
    },
    {
      "inputs": [
        {
          "internalType": "address",
          "name": "player",
          "type": "address"
        },
        {
          "internalType": "uint256",
          "name": "amount",
          "type": "uint256"
        }
      ],
      "name": "flagWhaleActivity",
      "outputs": [],
      "stateMutability": "nonpayable",
      "type": "function"
    },
    {
      "inputs": [],
      "name": "lastAdjustmentBlock",
      "outputs": [
        {
          "internalType": "uint256",
          "name": "",
          "type": "uint256"
        }
      ],
      "stateMutability": "view",
      "type": "function"
    },
    {
      "inputs": [
        {
          "internalType": "address",
          "name": "emitter",
          "type": "address"
        },
        {
          "internalType": "bytes32[]",
          "name": "eventTopics",
          "type": "bytes32[]"
        },
        {
          "internalType": "bytes",
          "name": "data",
          "type": "bytes"
        }
      ],
      "name": "onEvent",
      "outputs": [],
      "stateMutability": "nonpayable",
      "type": "function"
    },
    {
      "inputs": [],
      "name": "owner",
      "outputs": [
        {
          "internalType": "address",
          "name": "",
          "type": "address"
        }
      ],
      "stateMutability": "view",
      "type": "function"
    },
    {
      "inputs": [
        {
          "internalType": "bytes4",
          "name": "interfaceId",
          "type": "bytes4"
        }
      ],
      "name": "supportsInterface",
      "outputs": [
        {
          "internalType": "bool",
          "name": "",
          "type": "bool"
        }
      ],
      "stateMutability": "pure",
      "type": "function"
    },
    {
      "inputs": [],
      "name": "totalGamesProcessed",
      "outputs": [
        {
          "internalType": "uint256",
          "name": "",
          "type": "uint256"
        }
      ],
      "stateMutability": "view",
      "type": "function"
    },
    {
      "inputs": [],
      "name": "vault",
      "outputs": [
        {
          "internalType": "contract KaboomVault",
          "name": "",
          "type": "address"
        }
      ],
      "stateMutability": "view",
      "type": "function"
    }
  ],
  "bytecode": "0x6080604052348015600f57600080fd5b506040516109a83803806109a8833981016040819052602c916069565b600080546001600160a01b0319166001600160a01b0392909216919091179055600180546001600160a81b0319163360ff60a01b19161790556097565b600060208284031215607a57600080fd5b81516001600160a01b0381168114609057600080fd5b9392505050565b610902806100a66000396000f3fe608060405234801561001057600080fd5b50600436106100a95760003560e01c806378e0fe281161007157806378e0fe28146101115780638da5cb5b1461011a578063a9f4c25e14610145578063c289c06714610158578063fbfa77cf14610161578063ffde0f971461017457600080fd5b806301ffc9a7146100ae578063087d31b7146100d65780630bd4e0e3146100ec5780631b4abeff146100f457806353edf33d146100fc575b600080fd5b6100c16100bc3660046105f9565b610195565b60405190151581526020015b60405180910390f35b6100de603281565b6040519081526020016100cd565b6100de604681565b6100de605a81565b61010f61010a36600461068f565b6101cc565b005b6100de60025481565b60015461012d906001600160a01b031681565b6040516001600160a01b0390911681526020016100cd565b61010f61015336600461074a565b610202565b6100de60035481565b60005461012d906001600160a01b031681565b60015461018890600160a01b900460ff1681565b6040516100cd91906107ac565b60006301ffc9a760e01b6001600160e01b0319831614806101c657506353edf33d60e01b6001600160e01b03198316145b92915050565b33610100146101ee5760405163191fbb7560e01b815260040160405180910390fd5b6101fb85858585856102d6565b5050505050565b816001600160a01b03167fa10a7b7b57534a7a71f2c46c275a17cc025453481fe3e833e86047b258a39a108260405161023d91815260200190565b60405180910390a260008060009054906101000a90046001600160a01b03166001600160a01b031663f495cdde6040518163ffffffff1660e01b8152600401602060405180830381865afa158015610299573d6000803e3d6000fd5b505050506040513d601f19601f820116820180604052508101906102bd91906107ba565b905060508110156102d1576102d181610366565b505050565b7fab6752fb7b9372c3a768319ac552dda717633aa9cae3381f8253cfa68b8301d97fdb21a82a210d91e8e44319b3b82ac6d85cdcf818c6d718c1f8ddf4f24526e0a260008686828161032a5761032a6107d3565b90506020020135905082810361034b57610346878787876104a4565b61035c565b81810361035c5761035c85856105b5565b5050505050505050565b600080603283101561037e57506002905060196103a3565b604683101561039357506001905060326103a3565b605a83106102d157506000905060645b600154600160a01b900460ff1660028111156103c1576103c1610774565b8260028111156103d3576103d3610774565b146102d1576001805483919060ff60a01b1916600160a01b8360028111156103fd576103fd610774565b0217905550436003556000546040516335daf54b60e11b8152600481018390526001600160a01b0390911690636bb5ea9690602401600060405180830381600087803b15801561044c57600080fd5b505af1158015610460573d6000803e3d6000fd5b505050507fc436c1302602dee7d96f8322c3efd9e5e46176c1a0f67b7e1df61b8e5b1075a0828483604051610497939291906107e9565b60405180910390a1505050565b60006104b282840184610808565b50506002805491925060006104c683610858565b919050555060008060009054906101000a90046001600160a01b03166001600160a01b031663f495cdde6040518163ffffffff1660e01b8152600401602060405180830381865afa15801561051f573d6000803e3d6000fd5b505050506040513d601f19601f8201168201806040525081019061054391906107ba565b90507f7a7f016b8993a515d5b828f01291807acf740f97e5eca124e646704a9bd5a3a386866001818110610579576105796107d3565b604080516020928302949094013584528615159184019190915282018490525060600160405180910390a16105ad81610366565b505050505050565b6000806105c483850185610871565b9150915060008082116105d85760646105ee565b816105e4846064610893565b6105ee91906108aa565b90506101fb81610366565b60006020828403121561060b57600080fd5b81356001600160e01b03198116811461062357600080fd5b9392505050565b80356001600160a01b038116811461064157600080fd5b919050565b60008083601f84011261065857600080fd5b50813567ffffffffffffffff81111561067057600080fd5b60208301915083602082850101111561068857600080fd5b9250929050565b6000806000806000606086880312156106a757600080fd5b6106b08661062a565b9450602086013567ffffffffffffffff8111156106cc57600080fd5b8601601f810188136106dd57600080fd5b803567ffffffffffffffff8111156106f457600080fd5b8860208260051b840101111561070957600080fd5b60209190910194509250604086013567ffffffffffffffff81111561072d57600080fd5b61073988828901610646565b969995985093965092949392505050565b6000806040838503121561075d57600080fd5b6107668361062a565b946020939093013593505050565b634e487b7160e01b600052602160045260246000fd5b600381106107a857634e487b7160e01b600052602160045260246000fd5b9052565b602081016101c6828461078a565b6000602082840312156107cc57600080fd5b5051919050565b634e487b7160e01b600052603260045260246000fd5b606081016107f7828661078a565b602082019390935260400152919050565b60008060006060848603121561081d57600080fd5b8335801515811461082d57600080fd5b95602085013595506040909401359392505050565b634e487b7160e01b600052601160045260246000fd5b60006001820161086a5761086a610842565b5060010190565b6000806040838503121561088457600080fd5b50508035926020909101359150565b80820281158282048414176101c6576101c6610842565b6000826108c757634e487b7160e01b600052601260045260246000fd5b50049056fea2646970667358221220e1f5463901a43361f418fba50df8098506ae7cef6386970af9ac954c237d9dfe64736f6c634300081e0033",
  "linkReferences": {},
  "deployedLinkReferences": {}
}