{
  "_format": "hh-sol-artifact-1",
  "contractName": "ReactiveReferral",
  "sourceName": "contracts/ReactiveReferral.sol",
  "abi": [
    {
      "inputs": [],
      "name": "OnlyReactivityPrecompile",
      "type": "error"
    },
    {
      "anonymous": false,
      "inputs": [
        {
          "indexed": true,
          "internalType": "address",
          "name": "referrer",
          "type": "address"
        },
        {
          "indexed": false,
          "internalType": "uint256",
          "name": "amount",
          "type": "uint256"
        }
      ],
      "name": "ReferralClaimed",
      "type": "event"
    },
    {
      "anonymous": false,
      "inputs": [
        {
          "indexed": true,
          "internalType": "address",
          "name": "referrer",
          "type": "address"
        },
        {
          "indexed": true,
          "internalType": "address",
          "name": "player",
          "type": "address"
        },
        {
          "indexed": false,
          "internalType": "uint256",
          "name": "betAmount",
          "type": "uint256"
        },
        {
          "indexed": false,
          "internalType": "uint256",
          "name": "reward",
          "type": "uint256"
        }
      ],
      "name": "ReferralCredited",
      "type": "event"
    },
    {
      "anonymous": false,
      "inputs": [
        {
          "indexed": true,
          "internalType": "address",
          "name": "player",
          "type": "address"
        },
        {
          "indexed": true,
          "internalType": "address",
          "name": "referrer",
          "type": "address"
        }
      ],
      "name": "ReferralRegistered",
      "type": "event"
    },
    {
      "inputs": [],
      "name": "REFERRAL_BPS",
      "outputs": [
        {
          "internalType": "uint256",
          "name": "",
          "type": "uint256"
        }
      ],
      "stateMutability": "view",
      "type": "function"
    },
    {
      "inputs": [],
      "name": "claimRewards",
      "outputs": [],
      "stateMutability": "nonpayable",
      "type": "function"
    },
    {
      "inputs": [
        {
          "internalType": "address",
          "name": "referrer",
          "type": "address"
        }
      ],
      "name": "getReferralStats",
      "outputs": [
        {
          "components": [
            {
              "internalType": "uint256",
              "name": "totalEarned",
              "type": "uint256"
            },
            {
              "internalType": "uint256",
              "name": "totalReferredVolume",
              "type": "uint256"
            },
            {
              "internalType": "uint256",
              "name": "referralCount",
              "type": "uint256"
            },
            {
              "internalType": "uint256",
              "name": "pendingBalance",
              "type": "uint256"
            }
          ],
          "internalType": "struct ReactiveReferral.ReferralStats",
          "name": "",
          "type": "tuple"
        }
      ],
      "stateMutability": "view",
      "type": "function"
    },
    {
      "inputs": [
        {
          "internalType": "address",
          "name": "player",
          "type": "address"
        }
      ],
      "name": "getReferrerOf",
      "outputs": [
        {
          "internalType": "address",
          "name": "",
          "type": "address"
        }
      ],
      "stateMutability": "view",
      "type": "function"
    },
    {
      "inputs": [
        {
          "internalType": "address",
          "name": "emitter",
          "type": "address"
        },
        {
          "internalType": "bytes32[]",
          "name": "eventTopics",
          "type": "bytes32[]"
        },
        {
          "internalType": "bytes",
          "name": "data",
          "type": "bytes"
        }
      ],
      "name": "onEvent",
      "outputs": [],
      "stateMutability": "nonpayable",
      "type": "function"
    },
    {
      "inputs": [
        {
          "internalType": "address",
          "name": "",
          "type": "address"
        }
      ],
      "name": "referralStats",
      "outputs": [
        {
          "internalType": "uint256",
          "name": "totalEarned",
          "type": "uint256"
        },
        {
          "internalType": "uint256",
          "name": "totalReferredVolume",
          "type": "uint256"
        },
        {
          "internalType": "uint256",
          "name": "referralCount",
          "type": "uint256"
        },
        {
          "internalType": "uint256",
          "name": "pendingBalance",
          "type": "uint256"
        }
      ],
      "stateMutability": "view",
      "type": "function"
    },
    {
      "inputs": [
        {
          "internalType": "address",
          "name": "",
          "type": "address"
        }
      ],
      "name": "referrerOf",
      "outputs": [
        {
          "internalType": "address",
          "name": "",
          "type": "address"
        }
      ],
      "stateMutability": "view",
      "type": "function"
    },
    {
      "inputs": [
        {
          "internalType": "bytes4",
          "name": "interfaceId",
          "type": "bytes4"
        }
      ],
      "name": "supportsInterface",
      "outputs": [
        {
          "internalType": "bool",
          "name": "",
          "type": "bool"
        }
      ],
      "stateMutability": "pure",
      "type": "function"
    },
    {
      "inputs": [],
      "name": "totalReferralsPaid",
      "outputs": [
        {
          "internalType": "uint256",
          "name": "",
          "type": "uint256"
        }
      ],
      "stateMutability": "view",
      "type": "function"
    },
    {
      "inputs": [],
      "name": "totalReferredVolume",
      "outputs": [
        {
          "internalType": "uint256",
          "name": "",
          "type": "uint256"
        }
      ],
      "stateMutability": "view",
      "type": "function"
    }
  ],
  "bytecode": "0x6080604052348015600f57600080fd5b506108948061001f6000396000f3fe608060405234801561001057600080fd5b506004361061009e5760003560e01c80633a0e3409116100665780633a0e34091461013b57806353edf33d146101905780636e8cddea146101a3578063bc7f25e4146101ab578063d21cacdf146101ef57600080fd5b806301ffc9a7146100a357806311a64f2d146100cb5780631504b9b8146100e257806321bade13146100eb578063372500ab14610131575b600080fd5b6100b66100b1366004610631565b610218565b60405190151581526020015b60405180910390f35b6100d460025481565b6040519081526020016100c2565b6100d460035481565b6100fe6100f936600461067a565b61024f565b6040516100c291908151815260208083015190820152604080830151908201526060918201519181019190915260800190565b6101396102c6565b005b61017061014936600461067a565b60006020819052908152604090208054600182015460028301546003909301549192909184565b6040805194855260208501939093529183015260608201526080016100c2565b61013961019e3660046106e0565b610367565b6100d4606481565b6101d76101b936600461067a565b6001600160a01b039081166000908152600160205260409020541690565b6040516001600160a01b0390911681526020016100c2565b6101d76101fd36600461067a565b6001602052600090815260409020546001600160a01b031681565b60006301ffc9a760e01b6001600160e01b03198316148061024957506353edf33d60e01b6001600160e01b03198316145b92915050565b61027a6040518060800160405280600081526020016000815260200160008152602001600081525090565b506001600160a01b031660009081526020818152604091829020825160808101845281548152600182015492810192909252600281015492820192909252600390910154606082015290565b336000908152602081905260409020600301548061031d5760405162461bcd60e51b815260206004820152601060248201526f4e6f7468696e6720746f20636c61696d60801b604482015260640160405180910390fd5b336000818152602081815260408083206003019290925590518381527f6cd4d40588b17656762e007b5b0c873a86cc13d23123cd1c44b4389b8aafa105910160405180910390a250565b33610100146103895760405163191fbb7560e01b815260040160405180910390fd5b610396858585858561039d565b5050505050565b7f8f297a367476f4d40bc7e8d7ec84ee23ec7d7b2fb8233cb9b737b17004eb6bf38085856000816103d0576103d061079d565b905060200201350361044f576000858560028181106103f1576103f161079d565b60200291909101359150600090508061040c858701876107b3565b90925090506001600160a01b0381161580159061043b5750826001600160a01b0316816001600160a01b031614155b1561044b5761044b818484610457565b5050505b505050505050565b6001600160a01b0382811660009081526001602052604090205416610504576001600160a01b03828116600090815260016020908152604080832080546001600160a01b03191694881694851790559282528190529081206002018054916104be836107f9565b9190505550826001600160a01b0316826001600160a01b03167f5f1ca2fcc108b751843a763e60d2201f593516109d7dbb1b700468f2d4190bb760405160405180910390a35b6000612710610514606484610812565b61051e9190610829565b6001600160a01b03851660009081526020819052604081208054929350839290919061054b90849061084b565b90915550506001600160a01b0384166000908152602081905260408120600101805484929061057b90849061084b565b90915550506001600160a01b038416600090815260208190526040812060030180548392906105ab90849061084b565b9250508190555080600260008282546105c4919061084b565b9250508190555081600360008282546105dd919061084b565b909155505060408051838152602081018390526001600160a01b0380861692908716917fdc43a08089b55cf50b6f89c7793c678339b59379ea81e892b46a7c4891f8046a910160405180910390a350505050565b60006020828403121561064357600080fd5b81356001600160e01b03198116811461065b57600080fd5b9392505050565b6001600160a01b038116811461067757600080fd5b50565b60006020828403121561068c57600080fd5b813561065b81610662565b60008083601f8401126106a957600080fd5b50813567ffffffffffffffff8111156106c157600080fd5b6020830191508360208285010111156106d957600080fd5b9250929050565b6000806000806000606086880312156106f857600080fd5b853561070381610662565b9450602086013567ffffffffffffffff81111561071f57600080fd5b8601601f8101881361073057600080fd5b803567ffffffffffffffff81111561074757600080fd5b8860208260051b840101111561075c57600080fd5b60209190910194509250604086013567ffffffffffffffff81111561078057600080fd5b61078c88828901610697565b969995985093965092949392505050565b634e487b7160e01b600052603260045260246000fd5b600080604083850312156107c657600080fd5b8235915060208301356107d881610662565b809150509250929050565b634e487b7160e01b600052601160045260246000fd5b60006001820161080b5761080b6107e3565b5060010190565b8082028115828204841417610249576102496107e3565b60008261084657634e487b7160e01b600052601260045260246000fd5b500490565b80820180821115610249576102496107e356fea2646970667358221220b77b1f6ddb67556edda5f15dbc5efb4bf2665a05d9ceac59d9f96ce28dccc6ef64736f6c634300081e0033",
  "linkReferences": {},
  "deployedLinkReferences": {}
}