{
  "_format": "hh-sol-artifact-1",
  "contractName": "KaboomGame",
  "sourceName": "contracts/KaboomGame.sol",
  "abi": [
    {
      "inputs": [
        {
          "internalType": "address",
          "name": "_vault",
          "type": "address"
        }
      ],
      "stateMutability": "nonpayable",
      "type": "constructor"
    },
    {
      "anonymous": false,
      "inputs": [
        {
          "indexed": true,
          "internalType": "uint256",
          "name": "gameId",
          "type": "uint256"
        },
        {
          "indexed": true,
          "internalType": "address",
          "name": "player",
          "type": "address"
        },
        {
          "indexed": false,
          "internalType": "uint256",
          "name": "amount",
          "type": "uint256"
        },
        {
          "indexed": false,
          "internalType": "address",
          "name": "referrer",
          "type": "address"
        }
      ],
      "name": "BetPlaced",
      "type": "event"
    },
    {
      "anonymous": false,
      "inputs": [
        {
          "indexed": true,
          "internalType": "uint256",
          "name": "gameId",
          "type": "uint256"
        },
        {
          "indexed": true,
          "internalType": "address",
          "name": "player",
          "type": "address"
        },
        {
          "indexed": false,
          "internalType": "uint256",
          "name": "betAmount",
          "type": "uint256"
        }
      ],
      "name": "GameLost",
      "type": "event"
    },
    {
      "anonymous": false,
      "inputs": [
        {
          "indexed": true,
          "internalType": "uint256",
          "name": "gameId",
          "type": "uint256"
        },
        {
          "indexed": true,
          "internalType": "address",
          "name": "player",
          "type": "address"
        },
        {
          "indexed": false,
          "internalType": "bool",
          "name": "won",
          "type": "bool"
        },
        {
          "indexed": false,
          "internalType": "uint256",
          "name": "amount",
          "type": "uint256"
        },
        {
          "indexed": false,
          "internalType": "uint256",
          "name": "multiplier",
          "type": "uint256"
        }
      ],
      "name": "GameSettled",
      "type": "event"
    },
    {
      "anonymous": false,
      "inputs": [
        {
          "indexed": true,
          "internalType": "uint256",
          "name": "gameId",
          "type": "uint256"
        },
        {
          "indexed": true,
          "internalType": "address",
          "name": "player",
          "type": "address"
        },
        {
          "indexed": false,
          "internalType": "uint256",
          "name": "betAmount",
          "type": "uint256"
        },
        {
          "indexed": false,
          "internalType": "uint8",
          "name": "mineCount",
          "type": "uint8"
        },
        {
          "indexed": false,
          "internalType": "bytes32",
          "name": "commitment",
          "type": "bytes32"
        }
      ],
      "name": "GameStarted",
      "type": "event"
    },
    {
      "anonymous": false,
      "inputs": [
        {
          "indexed": true,
          "internalType": "uint256",
          "name": "gameId",
          "type": "uint256"
        },
        {
          "indexed": true,
          "internalType": "address",
          "name": "player",
          "type": "address"
        },
        {
          "indexed": false,
          "internalType": "uint256",
          "name": "payout",
          "type": "uint256"
        },
        {
          "indexed": false,
          "internalType": "uint256",
          "name": "multiplier",
          "type": "uint256"
        }
      ],
      "name": "GameWon",
      "type": "event"
    },
    {
      "anonymous": false,
      "inputs": [
        {
          "indexed": true,
          "internalType": "uint256",
          "name": "gameId",
          "type": "uint256"
        },
        {
          "indexed": false,
          "internalType": "uint8",
          "name": "tileIndex",
          "type": "uint8"
        },
        {
          "indexed": false,
          "internalType": "bool",
          "name": "safe",
          "type": "bool"
        },
        {
          "indexed": false,
          "internalType": "uint256",
          "name": "newMultiplier",
          "type": "uint256"
        }
      ],
      "name": "TileRevealed",
      "type": "event"
    },
    {
      "inputs": [],
      "name": "GRID_SIZE",
      "outputs": [
        {
          "internalType": "uint8",
          "name": "",
          "type": "uint8"
        }
      ],
      "stateMutability": "view",
      "type": "function"
    },
    {
      "inputs": [],
      "name": "HOUSE_EDGE_BPS",
      "outputs": [
        {
          "internalType": "uint256",
          "name": "",
          "type": "uint256"
        }
      ],
      "stateMutability": "view",
      "type": "function"
    },
    {
      "inputs": [],
      "name": "WAD",
      "outputs": [
        {
          "internalType": "uint256",
          "name": "",
          "type": "uint256"
        }
      ],
      "stateMutability": "view",
      "type": "function"
    },
    {
      "inputs": [
        {
          "internalType": "uint256",
          "name": "gameId",
          "type": "uint256"
        }
      ],
      "name": "cashOut",
      "outputs": [],
      "stateMutability": "nonpayable",
      "type": "function"
    },
    {
      "inputs": [],
      "name": "gameCounter",
      "outputs": [
        {
          "internalType": "uint256",
          "name": "",
          "type": "uint256"
        }
      ],
      "stateMutability": "view",
      "type": "function"
    },
    {
      "inputs": [
        {
          "internalType": "uint256",
          "name": "",
          "type": "uint256"
        }
      ],
      "name": "games",
      "outputs": [
        {
          "internalType": "address",
          "name": "player",
          "type": "address"
        },
        {
          "internalType": "uint256",
          "name": "betAmount",
          "type": "uint256"
        },
        {
          "internalType": "uint8",
          "name": "mineCount",
          "type": "uint8"
        },
        {
          "internalType": "uint16",
          "name": "mineLayout",
          "type": "uint16"
        },
        {
          "internalType": "bytes32",
          "name": "salt",
          "type": "bytes32"
        },
        {
          "internalType": "bytes32",
          "name": "commitment",
          "type": "bytes32"
        },
        {
          "internalType": "uint16",
          "name": "revealedTiles",
          "type": "uint16"
        },
        {
          "internalType": "uint8",
          "name": "safeTilesRevealed",
          "type": "uint8"
        },
        {
          "internalType": "uint256",
          "name": "multiplier",
          "type": "uint256"
        },
        {
          "internalType": "enum KaboomGame.GameStatus",
          "name": "status",
          "type": "uint8"
        },
        {
          "internalType": "address",
          "name": "referrer",
          "type": "address"
        },
        {
          "internalType": "uint256",
          "name": "timestamp",
          "type": "uint256"
        }
      ],
      "stateMutability": "view",
      "type": "function"
    },
    {
      "inputs": [
        {
          "internalType": "uint256",
          "name": "gameId",
          "type": "uint256"
        }
      ],
      "name": "getGame",
      "outputs": [
        {
          "internalType": "address",
          "name": "player",
          "type": "address"
        },
        {
          "internalType": "uint256",
          "name": "betAmount",
          "type": "uint256"
        },
        {
          "internalType": "uint8",
          "name": "mineCount",
          "type": "uint8"
        },
        {
          "internalType": "bytes32",
          "name": "commitment",
          "type": "bytes32"
        },
        {
          "internalType": "uint16",
          "name": "revealedTiles",
          "type": "uint16"
        },
        {
          "internalType": "uint8",
          "name": "safeTilesRevealed",
          "type": "uint8"
        },
        {
          "internalType": "uint256",
          "name": "multiplier",
          "type": "uint256"
        },
        {
          "internalType": "enum KaboomGame.GameStatus",
          "name": "status",
          "type": "uint8"
        }
      ],
      "stateMutability": "view",
      "type": "function"
    },
    {
      "inputs": [],
      "name": "owner",
      "outputs": [
        {
          "internalType": "address",
          "name": "",
          "type": "address"
        }
      ],
      "stateMutability": "view",
      "type": "function"
    },
    {
      "inputs": [
        {
          "internalType": "uint256",
          "name": "gameId",
          "type": "uint256"
        },
        {
          "internalType": "uint8",
          "name": "tileIndex",
          "type": "uint8"
        }
      ],
      "name": "revealTile",
      "outputs": [],
      "stateMutability": "nonpayable",
      "type": "function"
    },
    {
      "inputs": [
        {
          "internalType": "uint8",
          "name": "mineCount",
          "type": "uint8"
        },
        {
          "internalType": "address",
          "name": "referrer",
          "type": "address"
        }
      ],
      "name": "startGame",
      "outputs": [
        {
          "internalType": "uint256",
          "name": "gameId",
          "type": "uint256"
        }
      ],
      "stateMutability": "payable",
      "type": "function"
    },
    {
      "inputs": [],
      "name": "vault",
      "outputs": [
        {
          "internalType": "contract KaboomVault",
          "name": "",
          "type": "address"
        }
      ],
      "stateMutability": "view",
      "type": "function"
    },
    {
      "inputs": [
        {
          "internalType": "uint256",
          "name": "gameId",
          "type": "uint256"
        }
      ],
      "name": "verifyGame",
      "outputs": [
        {
          "internalType": "bool",
          "name": "verified",
          "type": "bool"
        },
        {
          "internalType": "bytes32",
          "name": "commitment",
          "type": "bytes32"
        },
        {
          "internalType": "uint16",
          "name": "mineLayout",
          "type": "uint16"
        },
        {
          "internalType": "bytes32",
          "name": "salt",
          "type": "bytes32"
        }
      ],
      "stateMutability": "view",
      "type": "function"
    }
  ],
  "bytecode": "0x6080604052348015600f57600080fd5b50604051611422380380611422833981016040819052602c916059565b600080546001600160a01b039092166001600160a01b031992831617905560018054909116331790556087565b600060208284031215606a57600080fd5b81516001600160a01b0381168114608057600080fd5b9392505050565b61138c806100966000396000f3fe6080604052600436106100a75760003560e01c80638aeb5f0f116100645780638aeb5f0f146102315780638da5cb5b14610251578063a2f77bcc14610289578063b32ff2be14610315578063dcb09d461461032a578063fbfa77cf1461033d57600080fd5b8063117a5b90146100ac5780632e0be39a1461015c578063524d7daf146101805780635c7b79f5146101cc5780636a146024146101ee5780637fc4eda81461020a575b600080fd5b3480156100b857600080fd5b5061013b6100c73660046110b9565b60036020819052600091825260409091208054600182015460028301549383015460048401546005850154600686015460078701546008909701546001600160a01b0396871698959760ff8088169861ffff610100998a90048116999087169662010000900483169594928416930416908c565b6040516101539c9b9a9998979695949392919061110a565b60405180910390f35b34801561016857600080fd5b5061017260025481565b604051908152602001610153565b34801561018c57600080fd5b506101a061019b3660046110b9565b61035d565b60405161015394939291909315158452602084019290925261ffff166040830152606082015260800190565b3480156101d857600080fd5b506101ec6101e73660046110b9565b61045e565b005b3480156101fa57600080fd5b50610172670de0b6b3a764000081565b34801561021657600080fd5b5061021f601081565b60405160ff9091168152602001610153565b34801561023d57600080fd5b506101ec61024c3660046111a4565b61056f565b34801561025d57600080fd5b50600154610271906001600160a01b031681565b6040516001600160a01b039091168152602001610153565b34801561029557600080fd5b506103016102a43660046110b9565b60009081526003602052604090208054600182015460028301546004840154600585015460068601546007909601546001600160a01b0390951696939560ff93841695929461ffff83169462010000909304831693919290911690565b6040516101539897969594939291906111d0565b34801561032157600080fd5b5061017260c881565b61017261033836600461122b565b6108ce565b34801561034957600080fd5b50600054610271906001600160a01b031681565b60008181526003602052604081208190819081906001600782015460ff16600381111561038c5761038c6110d2565b141580156103b357506000600782015460ff1660038111156103b0576103b06110d2565b14155b6103f75760405162461bcd60e51b815260206004820152601060248201526f11d85b59481b9bdd081cd95d1d1b195960821b60448201526064015b60405180910390fd5b60048101546002820154600383015460405161010090920460f081901b6001600160f01b03191660208401526022830182905292965061ffff9092169450909250849060420160405160208183030381529060405280519060200120149450509193509193565b60008181526003602052604090206001600782015460ff166003811115610487576104876110d2565b146104c65760405162461bcd60e51b815260206004820152600f60248201526e47616d65206e6f742061637469766560881b60448201526064016103ee565b80546001600160a01b0316331461050f5760405162461bcd60e51b815260206004820152600d60248201526c4e6f7420796f75722067616d6560981b60448201526064016103ee565b600581015462010000900460ff166105625760405162461bcd60e51b815260206004820152601660248201527552657665616c206174206c6561737420312074696c6560501b60448201526064016103ee565b61056b82610d95565b5050565b60008281526003602052604090206001600782015460ff166003811115610598576105986110d2565b146105d75760405162461bcd60e51b815260206004820152600f60248201526e47616d65206e6f742061637469766560881b60448201526064016103ee565b80546001600160a01b031633146106205760405162461bcd60e51b815260206004820152600d60248201526c4e6f7420796f75722067616d6560981b60448201526064016103ee565b601060ff8316106106625760405162461bcd60e51b815260206004820152600c60248201526b496e76616c69642074696c6560a01b60448201526064016103ee565b6005810154600160ff84161b1661ffff16156106b35760405162461bcd60e51b815260206004820152601060248201526f105b1c9958591e481c995d99585b195960821b60448201526064016103ee565b60058101805461ffff600160ff86161b8181168284161761ffff1990931692909217909255600283015461010090041616158015906107eb5760078201805460ff191660031790556040805160ff851681526000602082018190529181019190915284907f3ccfd89a70b559b187fb8adf600211d285ecc949512b9b07a87f24bb396b27d99060600160405180910390a2815460018301546040519081526001600160a01b039091169085907f6dd6b233b201ff5342eb5248f0849dd9ceac79f106942d38bb6341013bb901d59060200160405180910390a3815460018301546040805160008082526020820193909352908101919091526001600160a01b039091169085907fab6752fb7b9372c3a768319ac552dda717633aa9cae3381f8253cfa68b8301d99060600160405180910390a36108c8565b60058201805462010000900460ff1690600261080683611284565b82546101009290920a60ff8181021990931691831602179091556005840154600285015461083f93506201000090910482169116610f7d565b600683018190556040805160ff86168152600160208201529081019190915284907f3ccfd89a70b559b187fb8adf600211d285ecc949512b9b07a87f24bb396b27d99060600160405180910390a260028201546000906108a39060ff1660106112a3565b600584015490915060ff8083166201000090920416106108c6576108c685610d95565b505b50505050565b60008034116109145760405162461bcd60e51b81526020600482015260126024820152714d7573742062657420736f6d657468696e6760701b60448201526064016103ee565b60018360ff161015801561092c5750600c8360ff1611155b6109665760405162461bcd60e51b815260206004820152600b60248201526a26b4b732b99d101896989960a91b60448201526064016103ee565b60008054906101000a90046001600160a01b03166001600160a01b031663646668b66040518163ffffffff1660e01b8152600401602060405180830381865afa1580156109b7573d6000803e3d6000fd5b505050506040513d601f19601f820116820180604052508101906109db91906112bc565b341115610a1c5760405162461bcd60e51b815260206004820152600f60248201526e115e18d959591cc81b585e0818995d608a1b60448201526064016103ee565b600260008154610a2b906112d5565b91829055509050600044423384610a436001436112ee565b6040805160208101969096528501939093526bffffffffffffffffffffffff19606092831b1691840191909152607483015240609482015260b4016040516020818303038152906040528051906020012090506000610aa28286611024565b9050600082604051602001610acd9181526a12d05093d3d357d4d0531560aa1b6020820152602b0190565b60405160208183030381529060405280519060200120905060008282604051602001610b1292919060f09290921b6001600160f01b0319168252600282015260220190565b60408051601f19818403018152828252805160209182012061018084018352338452349184019190915260ff8a169183019190915261ffff851660608301526080820184905260a08201819052600060c0830181905260e0830152670de0b6b3a764000061010083015291506101208101600181526001600160a01b038089166020808401919091524260409384015260008981526003808352908490208551815494166001600160a01b03199094169390931783559084015160018084019190915592840151600283018054606087015161ffff90811661010090810262ffffff1993841660ff968716171790935560808801518686015560a0880151600487015560c088015160058701805460e08b015190961662010000029590931691161792909217909155840151600683015561012084015160078301805493949193909260ff199190911691908490811115610c6f57610c6f6110d2565b0217905550610140820151600782018054610100600160a81b0319166101006001600160a01b03938416021790556101609092015160089091015560008054604080516310422e0d60e11b8152905191909316926320845c1a92349260048084019382900301818588803b158015610ce657600080fd5b505af1158015610cfa573d6000803e3d6000fd5b50506040805134815260ff8c1660208201529081018590523393508892507fb8c831602db82cfad7e6f8ab684b76c502e97d9e96e6db0025c15107b13c9b3a915060600160405180910390a3604080513481526001600160a01b0388166020820152339187917f8f297a367476f4d40bc7e8d7ec84ee23ec7d7b2fb8233cb9b737b17004eb6bf3910160405180910390a35050505092915050565b600081815260036020526040812060078101805460ff1916600217905560068101546001820154919291670de0b6b3a764000091610dd291611301565b610ddc919061132e565b905060008060009054906101000a90046001600160a01b03166001600160a01b0316632d9a37d36040518163ffffffff1660e01b8152600401602060405180830381865afa158015610e32573d6000803e3d6000fd5b505050506040513d601f19601f82011682018060405250810190610e5691906112bc565b905080821115610e64578091505b600054835460405163117de2fd60e01b81526001600160a01b0391821660048201526024810185905291169063117de2fd90604401600060405180830381600087803b158015610eb357600080fd5b505af1158015610ec7573d6000803e3d6000fd5b5050845460068601546040516001600160a01b0390921693508792507ff84628f2e60bdbeba9f69b77bc46e521674525a65d95c82a999a4ec15e8b521291610f1791878252602082015260400190565b60405180910390a382546006840154604080516001815260208101869052908101919091526001600160a01b039091169085907fab6752fb7b9372c3a768319ac552dda717633aa9cae3381f8253cfa68b8301d99060600160405180910390a350505050565b6000670de0b6b3a7640000815b8460ff168160ff161015610ff7576000610fa58260106112a3565b60ff169050600082610fb88760106112a3565b610fc291906112a3565b60ff16905080600003610fd6575050610ff7565b80610fe18386611301565b610feb919061132e565b93505050600101610f8a565b5061271061100660c8826112ee565b6110109083611301565b61101a919061132e565b9150505b92915050565b600080805b8360ff168260ff1610156110b1576040805160208082018890528183018490528251808303840181526060909201909252805191012060009061106e90601090611342565b9050600160ff82161b841661ffff1660000361109e57600160ff82161b93909317928261109a81611284565b9350505b816110a8816112d5565b92505050611029565b505092915050565b6000602082840312156110cb57600080fd5b5035919050565b634e487b7160e01b600052602160045260246000fd5b6004811061110657634e487b7160e01b600052602160045260246000fd5b9052565b6001600160a01b038d168152602081018c905260ff8b8116604083015261ffff8b81166060840152608083018b905260a083018a9052881660c0830152861660e0820152610100810185905261018081016111696101208301866110e8565b6001600160a01b039390931661014082015261016001529a9950505050505050505050565b803560ff8116811461119f57600080fd5b919050565b600080604083850312156111b757600080fd5b823591506111c76020840161118e565b90509250929050565b6001600160a01b03891681526020810188905260ff87811660408301526060820187905261ffff86166080830152841660a082015260c08101839052610100810161121e60e08301846110e8565b9998505050505050505050565b6000806040838503121561123e57600080fd5b6112478361118e565b915060208301356001600160a01b038116811461126357600080fd5b809150509250929050565b634e487b7160e01b600052601160045260246000fd5b600060ff821660ff810361129a5761129a61126e565b60010192915050565b60ff828116828216039081111561101e5761101e61126e565b6000602082840312156112ce57600080fd5b5051919050565b6000600182016112e7576112e761126e565b5060010190565b8181038181111561101e5761101e61126e565b808202811582820484141761101e5761101e61126e565b634e487b7160e01b600052601260045260246000fd5b60008261133d5761133d611318565b500490565b60008261135157611351611318565b50069056fea2646970667358221220a600b67898b7960b666c797e79f73d238a01905409fe4e8689f1772922c7db2964736f6c634300081e0033",
  "linkReferences": {},
  "deployedLinkReferences": {}
}