{
  "_format": "hh-sol-artifact-1",
  "contractName": "KaboomVault",
  "sourceName": "contracts/KaboomVault.sol",
  "abi": [
    {
      "inputs": [],
      "stateMutability": "nonpayable",
      "type": "constructor"
    },
    {
      "anonymous": false,
      "inputs": [
        {
          "indexed": true,
          "internalType": "address",
          "name": "to",
          "type": "address"
        },
        {
          "indexed": false,
          "internalType": "uint256",
          "name": "amount",
          "type": "uint256"
        }
      ],
      "name": "EmergencyWithdraw",
      "type": "event"
    },
    {
      "anonymous": false,
      "inputs": [
        {
          "indexed": false,
          "internalType": "uint256",
          "name": "oldPercent",
          "type": "uint256"
        },
        {
          "indexed": false,
          "internalType": "uint256",
          "name": "newPercent",
          "type": "uint256"
        }
      ],
      "name": "MaxBetPercentChanged",
      "type": "event"
    },
    {
      "anonymous": false,
      "inputs": [
        {
          "indexed": true,
          "internalType": "address",
          "name": "player",
          "type": "address"
        },
        {
          "indexed": false,
          "internalType": "uint256",
          "name": "amount",
          "type": "uint256"
        },
        {
          "indexed": false,
          "internalType": "uint256",
          "name": "newBalance",
          "type": "uint256"
        }
      ],
      "name": "PayoutSent",
      "type": "event"
    },
    {
      "anonymous": false,
      "inputs": [
        {
          "indexed": false,
          "internalType": "uint256",
          "name": "newBalance",
          "type": "uint256"
        },
        {
          "indexed": false,
          "internalType": "uint256",
          "name": "peakBalance",
          "type": "uint256"
        }
      ],
      "name": "VaultBalanceChanged",
      "type": "event"
    },
    {
      "anonymous": false,
      "inputs": [
        {
          "indexed": true,
          "internalType": "address",
          "name": "funder",
          "type": "address"
        },
        {
          "indexed": false,
          "internalType": "uint256",
          "name": "amount",
          "type": "uint256"
        },
        {
          "indexed": false,
          "internalType": "uint256",
          "name": "newBalance",
          "type": "uint256"
        }
      ],
      "name": "VaultFunded",
      "type": "event"
    },
    {
      "inputs": [],
      "name": "deposit",
      "outputs": [],
      "stateMutability": "payable",
      "type": "function"
    },
    {
      "inputs": [],
      "name": "emergencyWithdraw",
      "outputs": [],
      "stateMutability": "nonpayable",
      "type": "function"
    },
    {
      "inputs": [],
      "name": "gameContract",
      "outputs": [
        {
          "internalType": "address",
          "name": "",
          "type": "address"
        }
      ],
      "stateMutability": "view",
      "type": "function"
    },
    {
      "inputs": [],
      "name": "getBalance",
      "outputs": [
        {
          "internalType": "uint256",
          "name": "",
          "type": "uint256"
        }
      ],
      "stateMutability": "view",
      "type": "function"
    },
    {
      "inputs": [],
      "name": "getHealthPercent",
      "outputs": [
        {
          "internalType": "uint256",
          "name": "",
          "type": "uint256"
        }
      ],
      "stateMutability": "view",
      "type": "function"
    },
    {
      "inputs": [],
      "name": "getMaxBet",
      "outputs": [
        {
          "internalType": "uint256",
          "name": "",
          "type": "uint256"
        }
      ],
      "stateMutability": "view",
      "type": "function"
    },
    {
      "inputs": [],
      "name": "getMaxPayout",
      "outputs": [
        {
          "internalType": "uint256",
          "name": "",
          "type": "uint256"
        }
      ],
      "stateMutability": "view",
      "type": "function"
    },
    {
      "inputs": [],
      "name": "maxBetPercent",
      "outputs": [
        {
          "internalType": "uint256",
          "name": "",
          "type": "uint256"
        }
      ],
      "stateMutability": "view",
      "type": "function"
    },
    {
      "inputs": [],
      "name": "maxPayoutPercent",
      "outputs": [
        {
          "internalType": "uint256",
          "name": "",
          "type": "uint256"
        }
      ],
      "stateMutability": "view",
      "type": "function"
    },
    {
      "inputs": [],
      "name": "owner",
      "outputs": [
        {
          "internalType": "address",
          "name": "",
          "type": "address"
        }
      ],
      "stateMutability": "view",
      "type": "function"
    },
    {
      "inputs": [
        {
          "internalType": "address",
          "name": "player",
          "type": "address"
        },
        {
          "internalType": "uint256",
          "name": "amount",
          "type": "uint256"
        }
      ],
      "name": "payout",
      "outputs": [],
      "stateMutability": "nonpayable",
      "type": "function"
    },
    {
      "inputs": [],
      "name": "peakBalance",
      "outputs": [
        {
          "internalType": "uint256",
          "name": "",
          "type": "uint256"
        }
      ],
      "stateMutability": "view",
      "type": "function"
    },
    {
      "inputs": [],
      "name": "receiveBet",
      "outputs": [],
      "stateMutability": "payable",
      "type": "function"
    },
    {
      "inputs": [],
      "name": "riskGuardian",
      "outputs": [
        {
          "internalType": "address",
          "name": "",
          "type": "address"
        }
      ],
      "stateMutability": "view",
      "type": "function"
    },
    {
      "inputs": [
        {
          "internalType": "address",
          "name": "_game",
          "type": "address"
        }
      ],
      "name": "setGameContract",
      "outputs": [],
      "stateMutability": "nonpayable",
      "type": "function"
    },
    {
      "inputs": [
        {
          "internalType": "uint256",
          "name": "_percent",
          "type": "uint256"
        }
      ],
      "name": "setMaxBetPercent",
      "outputs": [],
      "stateMutability": "nonpayable",
      "type": "function"
    },
    {
      "inputs": [
        {
          "internalType": "address",
          "name": "_guardian",
          "type": "address"
        }
      ],
      "name": "setRiskGuardian",
      "outputs": [],
      "stateMutability": "nonpayable",
      "type": "function"
    },
    {
      "stateMutability": "payable",
      "type": "receive"
    }
  ],
  "bytecode": "0x608060405260646003556103e8600455348015601a57600080fd5b50600080546001600160a01b03191633179055610a9b8061003c6000396000f3fe6080604052600436106101025760003560e01c80636bb5ea9611610095578063d0e30db011610064578063d0e30db0146102dc578063d3f33009146102e4578063db2e21bc14610304578063f495cdde14610319578063f91510ce1461032e57600080fd5b80636bb5ea96146102665780637d6a7c6d146102865780638da5cb5b146102a6578063b0cdf8b3146102c657600080fd5b80632d9a37d3116100d15780632d9a37d3146102065780633496f0171461021b578063405ebd4d14610231578063646668b61461025157600080fd5b806304f225e214610182578063117de2fd146101bf57806312065fe0146101e157806320845c1a146101fe57600080fd5b3661017d5760055447111561011657476005555b6040805134815247602082015233917f3dcb1a97c343d0c00e1809c139e8b8348116c0c82c850e0c82d54e91fb36e8b8910160405180910390a2600554604080514781526020810192909252600080516020610a46833981519152910160405180910390a1005b600080fd5b34801561018e57600080fd5b506002546101a2906001600160a01b031681565b6040516001600160a01b0390911681526020015b60405180910390f35b3480156101cb57600080fd5b506101df6101da36600461096f565b610344565b005b3480156101ed57600080fd5b50475b6040519081526020016101b6565b6101df61053c565b34801561021257600080fd5b506101f06105c8565b34801561022757600080fd5b506101f060045481565b34801561023d57600080fd5b506101df61024c366004610999565b6105ea565b34801561025d57600080fd5b506101f0610636565b34801561027257600080fd5b506101df6102813660046109bb565b610649565b34801561029257600080fd5b506101df6102a1366004610999565b610730565b3480156102b257600080fd5b506000546101a2906001600160a01b031681565b3480156102d257600080fd5b506101f060035481565b6101df61077c565b3480156102f057600080fd5b506001546101a2906001600160a01b031681565b34801561031057600080fd5b506101df61082d565b34801561032557600080fd5b506101f0610933565b34801561033a57600080fd5b506101f060055481565b6001546001600160a01b031633146103985760405162461bcd60e51b815260206004820152601260248201527113db9b1e4819d85b594818dbdb9d1c9858dd60721b60448201526064015b60405180910390fd5b478111156103e85760405162461bcd60e51b815260206004820152601a60248201527f496e73756666696369656e74207661756c742062616c616e6365000000000000604482015260640161038f565b6103f06105c8565b8111156104345760405162461bcd60e51b8152602060048201526012602482015271115e18d959591cc81b585e081c185e5bdd5d60721b604482015260640161038f565b6000826001600160a01b03168260405160006040518083038185875af1925050503d8060008114610481576040519150601f19603f3d011682016040523d82523d6000602084013e610486565b606091505b50509050806104c95760405162461bcd60e51b815260206004820152600f60248201526e151c985b9cd9995c8819985a5b1959608a1b604482015260640161038f565b604080518381524760208201526001600160a01b038516917f096e196e637d37bc3047a3f191bf831742d7529c4d6bae0d8811a5ebf5ee0967910160405180910390a2600554604080514781526020810192909252600080516020610a46833981519152910160405180910390a1505050565b6001546001600160a01b0316331461058b5760405162461bcd60e51b815260206004820152601260248201527113db9b1e4819d85b594818dbdb9d1c9858dd60721b604482015260640161038f565b60055447111561059a57476005555b600554604080514781526020810192909252600080516020610a4683398151915291015b60405180910390a1565b6000612710600454476105db91906109d4565b6105e591906109ff565b905090565b6000546001600160a01b031633146106145760405162461bcd60e51b815260040161038f90610a21565b600180546001600160a01b0319166001600160a01b0392909216919091179055565b6000612710600354476105db91906109d4565b6002546001600160a01b031633146106985760405162461bcd60e51b815260206004820152601260248201527127b7363c903934b9b59033bab0b93234b0b760711b604482015260640161038f565b600a81101580156106ab57506101f48111155b6106eb5760405162461bcd60e51b815260206004820152601160248201527052616e67653a20302e312520746f20352560781b604482015260640161038f565b600380549082905560408051828152602081018490527fc05e22c9d7799965654d4691059d6e109ab67b601c36f4cbbb00bc04aa961e9c910160405180910390a15050565b6000546001600160a01b0316331461075a5760405162461bcd60e51b815260040161038f90610a21565b600280546001600160a01b0319166001600160a01b0392909216919091179055565b600034116107bc5760405162461bcd60e51b815260206004820152600d60248201526c135d5cdd081cd95b990814d515609a1b604482015260640161038f565b6005544711156107cb57476005555b6040805134815247602082015233917f3dcb1a97c343d0c00e1809c139e8b8348116c0c82c850e0c82d54e91fb36e8b8910160405180910390a2600554604080514781526020810192909252600080516020610a4683398151915291016105be565b6000546001600160a01b031633146108575760405162461bcd60e51b815260040161038f90610a21565b600080546040514792916001600160a01b03169083908381818185875af1925050503d80600081146108a5576040519150601f19603f3d011682016040523d82523d6000602084013e6108aa565b606091505b50509050806108ed5760405162461bcd60e51b815260206004820152600f60248201526e151c985b9cd9995c8819985a5b1959608a1b604482015260640161038f565b6000546040518381526001600160a01b03909116907f5fafa99d0643513820be26656b45130b01e1c03062e1266bf36f88cbd3bd96959060200160405180910390a25050565b60006005546000036109455750606490565b6005546105db4760646109d4565b80356001600160a01b038116811461096a57600080fd5b919050565b6000806040838503121561098257600080fd5b61098b83610953565b946020939093013593505050565b6000602082840312156109ab57600080fd5b6109b482610953565b9392505050565b6000602082840312156109cd57600080fd5b5035919050565b80820281158282048414176109f957634e487b7160e01b600052601160045260246000fd5b92915050565b600082610a1c57634e487b7160e01b600052601260045260246000fd5b500490565b6020808252600a908201526927b7363c9037bbb732b960b11b60408201526060019056fedb21a82a210d91e8e44319b3b82ac6d85cdcf818c6d718c1f8ddf4f24526e0a2a2646970667358221220906794a24c18af83b60f45835a4a84c43390777fc2f1206f9454a4da435281e464736f6c634300081e0033",
  "linkReferences": {},
  "deployedLinkReferences": {}
}